:10000000021E7C120DDF80FE0200BE0225A443000A
:10001000D30000004300D00000004300C5FF2BA622
:1000200042009800004200A000004200C8000042C8
:1000300000CC019042009E0000420014019050004C
:1000400003000000000000000000000000000000AD
:10005000004200A600004200A200004200A400648A
:1000600044009A000000004400AC0000000044007E
:10007000A8000000004400C1000000004200BF04CE
:10008000B04200CA00004200D60BB84200CE0000C9
:1000900041000200410013004100160041005700DA
:1000A000C112C113C114C1154200D80000420000A2
:1000B0000001440255000000004100E300009001EF
:1000C000A57405F07D607F11022A29021A32F920F9
:1000D000E73624F950037907E4F42402FBE582159E
:1000E0008270021583DBF6E024FB501BE96014E408
:1000F000F0E582158270021583E004F0B40A08E48A
:10010000F0D9EE7401F00A22C2D522ED33EC33921D
:10011000D5FA602AB4FF33EDC2E77BFF60067A01AF
:100120007930E4227A01793920D5047A01793422B0
:100130004E614E002B494E46002D494E4600E47A52
:1001400008F0A3DAFC7B00740722C083C082ECC0F5
:10015000E0EDC0E0EEC0E0EFC0E0EA75F010A4CA48
:10016000ABF075F04DA42BFBE435F0FCEA2410FA5B
:10017000EB34C5FBEC34D9FCEDC2E7FF75F056A4B7
:10018000F42411C5F0F434C58FF0A42AE5F03BE463
:100190003CF020E7141204DED0E0FFD0E0FED0E017
:1001A000FDD0E0FC1204118014F4041204DED0E04F
:1001B000FFD0E0FED0E0FDD0E0FC120308D082D0FA
:1001C00083E0FAEDD2E7CD33EC332482FBE4C3CFF6
:1001D00033CFCE33CECD33CD33DBF37B0775F00A8F
:1001E000846004F0A31B0AE5F0F0A38FF0740AA466
:1001F000FFACF08EF0740AA42CFEACF050010C8D14
:10020000F0740AA42CFDE435F0F0A3DBDE740722C1
:10021000020553E86480F8E933E83360110460F0C4
:10022000ED33EC337009E8FCE9FDEAFEEBFF220454
:1002300060DED3EB9FEA9EE99DE8C2E78CF0C2F74F
:1002400095F0400CE8CCF8E9CDF9EACEFAEBCFFB1B
:1002500012051E85D0F05804700320D5B3E8047051
:10026000075002B2D502055D92D5EC0460F7E4CCEC
:10027000C0E0C398F8603B94186008400DD0E0FBE4
:10028000020535E4FBFAC9FC8028E830E406E4C93D
:10029000FBE4CAFCE830E305E4C9CACBFCE8540738
:1002A0006010F8C3E913F9EA13FAEB13FBEC13FC43
:1002B000D8F130F52FC3E49CFCEF9BFFEE9AFEEDE6
:1002C00099FDD0E0FBEF4E4D4C701222DB0302058E
:1002D0005AEC2CFCEF33FFEE33FEED33FDED30E74F
:1002E000EB020535EF2BFFEE3AFEED39FDD0E0FBDA
:1002F00050130BBB000302055DED13FDEE13FEEF83
:1003000013FFEC13FC020535EC4D6011E849701742
:10031000ED33EC3304600DE4FCFFFEFD22E933E82D
:10032000330470F802055312051E58046009E4CC2A
:100330002481500628500902055D28400302055A11
:10034000C0E0EB4A7044B98006D0E0FB020549EFFB
:100350004E701CBD8008EBFFEAFEE9FD80EBE98DE5
:10036000F0A4FEE5F00203F1E9CDF9EAFEEBFFEFC0
:1003700089F0A4FCE5F0CE89F0A42EFFE435F0CDA1
:1003800089F0A42DFEE435F08067EF4E7005BD8046
:10039000D780C3EF8BF0A4ACF0EE8BF0A42CFCE480
:1003A00035F0F8EF8AF0A42CE5F038FCE433CB8D7F
:1003B000F0A42CFCE5F03BF8EE8AF0A42CFCE5F070
:1003C00038F8E433CF89F0A42CFCE5F038CF3400C2
:1003D000CE89F0A42FFFE5F03EFEE433C98DF0A4F2
:1003E0002EFEE5F039CD8AF0A42FFFE5F03EFEE4C5
:1003F0003DFD33D0E0FB50070BBB000F02055DEC69
:100400002CFCEF33FFEE33FEED33FD020535020524
:100410005DEC5D046005E8590470030205531205A4
:100420001E580460F6EC4860F2EC7004FDFEFF22FA
:10043000C860DB2481C85009C398600250060205D9
:100440005A9850CAF582E9294B4A7005AB820205D9
:100450004975F0007C1A7880C3EF9BEE9AED9940C5
:100460000DC3EF9BFFEE9AFEED99FDE842F0DC2311
:10047000ACF0D0E0FFD0E0FED0E0FDAB8220E71092
:100480001BEB60BAEC2CFCEF33FFEE33FEED33FDDB
:10049000020535E803F830E705C0F075F000EF2FEE
:1004A000FFEE33FEED33FD40B830E7C280AA3F8057
:1004B00000004120000042C80000447A0000461CB1
:1004C000400047C35000497424004B1896804CBE2E
:1004D000BC205A0E1BCA6753C21C749DC5AEFB607C
:1004E000065407601C232312050CEB5438600912D4
:1004F00004F8120507120308ECF8EDF9EEFAEFCB59
:1005000022EB12050780F1543803241C9004AEFE40
:1005100093FC0EEE93FD0EEE930ECE93FF22E9D2E6
:10052000E7C933E833F892D5EDD2E7CD33EC33FCAD
:100530005002B2D522EC30E7100FBF000C0EBE0007
:10054000080DBD00040BEB6014A2D5EB13FCED927B
:10055000E7FD2274FFFCFDFEFF22E480F8A2D574C3
:10056000FF13FC7D80E480EFE709F608DFFA8046A0
:10057000E709F208DFFA803E88828C83E709F0A35E
:10058000DFFA8032E309F608DFFA8078E309F2083F
:10059000DFFA807088828C83E309F0A3DFFA80643D
:1005A00089828A83E0A3F608DFFA805889828A83E9
:1005B000E0A3F208DFFA804C80D280FA80C680D4B3
:1005C000806980F28033801080A680EA809A80A8BB
:1005D00080DA80E280CA803389828A83ECFAE493ED
:1005E000A3C8C582C8CCC583CCF0A3C8C582C8CC7B
:1005F000C583CCDFE9DEE7800D89828A83E493A39B
:10060000F608DFF9ECFAA9F0EDFB2289828A83EC87
:10061000FAE0A3C8C582C8CCC583CCF0A3C8C58204
:10062000C8CCC583CCDFEADEE880DB89828A83E43C
:1006300093A3F208DFF980CC88F0EF60010E4E60E2
:10064000C388F0ED2402B4040050B9F582EB240213
:10065000B4040050AF23234582239005B873BB0137
:100660000689828A83E0225002E722BBFE02E3224F
:1006700089828A83E49322BB010CE58229F582E515
:10068000833AF583E0225006E92582F8E622BBFE94
:1006900006E92582F8E222E58229F582E5833AF52A
:1006A00083E49322BB010689828A83F0225002F7F9
:1006B00022BBFE01F322F8BB010DE58229F582E59C
:1006C000833AF583E8F0225006E92582C8F622BB7A
:1006D000FE05E92582C8F222EF8DF0A4A8F0CF8CA8
:1006E000F0A428CE8DF0A42EFE22BC000BBE002963
:1006F000EF8DF084FFADF022E4CCF875F008EF2F19
:10070000FFEE33FEEC33FCEE9DEC984005FCEE9DD5
:10071000FE0FD5F0E9E4CEFD22EDF8F5F0EE8420F1
:10072000D21CFEADF075F008EF2FFFED33FD400752
:10073000985006D5F0F222C398FD0FD5F0EA22C5F5
:10074000F0F8A3E028F0C5F0F8E5821582700215F4
:1007500083E038F022A3F8E0C5F025F0F0E582153B
:100760008270021583E0C838F0E822E88FF0A4CC4C
:100770008BF0A42CFCE98EF0A42CFC8AF0EDA42CC8
:10078000FCEA8EF0A4CDA8F08BF0A42DCC3825F097
:10079000FDE98FF0A42CCD35F0FCEB8EF0A4FEA982
:1007A000F0EB8FF0A4CFC5F02ECD39FEE43CFCEA8F
:1007B000A42DCE35F0FDE43CFC2275F008758200D6
:1007C000EF2FFFEE33FECD33CDCC33CCC58233C516
:1007D000829BED9AEC99E58298400CF582EE9BFEA7
:1007E000ED9AFDEC99FC0FD5F0D6E4CEFBE4CDFA02
:1007F000E4CCF9A88222B800C1B90059BA002DECA6
:100800008BF084CFCECDFCE5F0CBF97818EF2FFF3D
:10081000EE33FEED33FDEC33FCEB33FB10D70399E5
:100820004004EB99FB0FD8E5E4F9FA227818EF2F92
:10083000FFEE33FEED33FDEC33FCC933C910D705B1
:100840009BE99A4007EC9BFCE99AF90FD8E0E4C9D0
:10085000FAE4CCFB2275F010EF2FFFEE33FEED3300
:10086000FDCC33CCC833C810D7079BEC9AE899402D
:100870000AED9BFDEC9AFCE899F80FD5F0DAE4CD8F
:10088000FBE4CCFAE4C8F922EB9FF5F0EA9E42F0D3
:10089000E99D42F0E89C45F022E8600FEFC333FF8A
:1008A000EE33FEED33FDEC33FCD8F122ECF0A3ED9A
:1008B000F0A3EEF0A3EFF022A8828583F0D083D0DE
:1008C000821208CF1208CF1208CF1208CFE473E4C7
:1008D00093A3C583C5F0C583C8C582C8F0A3C583EB
:1008E000C5F0C583C8C582C822F8E0FBA3A3E0F920
:1008F00025F0F0E582158270021583E0FA38F022C7
:10090000EBF0A3EAF0A3E9F022D083D082F8E493DD
:100910007012740193700DA3A393F8740193F58280
:100920008883E4737402936860EFA3A3A380DFEC71
:100930008EF0A4CCC5F0CCCDF8EFA4CEC5F02DFD43
:10094000E43CFCE8A42EC8C5F03DFDE43CFCEFA46B
:10095000FFE5F028FEE43DFDE43CFC22E50D24210A
:10096000F582E43402F583E0050D2290021E30107A
:1009700003900221E475F0011208E902065E2009E5
:10098000E97F2ED2098018EF540F2490D43440D43C
:10099000FF300D0BEF24BFB41A0050032461FFE5B4
:1009A0000E6002150E0511E5117002051030100ED3
:1009B00090021EE475F0011208E9EF0206A4022974
:1009C000767403D2108003E4C210F50D90021E125B
:1009D0000900E4F50EF510F511E50E60077F201211
:1009E000099F80F5750FFFC20AC209C20BC20CC273
:1009F0000EC20FC21112096BFF700D3010057F007F
:100A00001209B0AF11AE1022B4255FC2D5C20D12CB
:100A1000096BFF24D0B40A00501A75F00A780E3022
:100A2000D50508B6FF0106C6A426F620D504700237
:100A3000D20C80D924CFB41A00EF5004C2E5D20DF5
:100A4000020CA2D20A80C6D20980C0D20B80BCD2CE
:100A5000D580BAD20E80B47F2012099F200B077474
:100A600001B50E0040F112095CFF12099F0209D97D
:100A7000D211D20F809512095CFB12095CFA12099F
:100A80005CF94A4B700679A07A0D7BFF200B2EE5AE
:100A90000E602A7E008E8275830012067760060E35
:100AA000EE650F70F0C2D5EBC0E0EAC0E0E9C0E04F
:100AB000EE120D03D0E0F9D0E0FAD0E0FB12065EB2
:100AC000FF60AAEBC0E0EAC0E0E9C0E012099FD0F5
:100AD000E02401F9D0E03400FAD0E0FBE50F046037
:100AE000DCD50FD98087D20B80A2120CE560F7E528
:100AF0000F7001041200CEA90F600DE50F600914FC
:100B0000F50F120D8DEF60F3EA30E702F404C3999C
:100B10005079EAF4250F0430E701E404F50F800D65
:100B2000120CE560C1EA050F250F1200CEEA900213
:100B30004DF030E701E4250F04D50F04200E011419
:100B4000120D03E4C0E0120D8D90024DE060132001
:100B5000E70714F0120987802204F0D0E014C0E007
:100B60007F00120987E50F600712097E150F800BC1
:100B7000300E0312097ED0E00209D9D0E00480C40F
:100B8000120CE5609EE50F041200CE90024DEAF0D3
:100B9000E50F200E026001042404120D0374FF040B
:100BA000C0E0120D8D120987E50F200E02600312BE
:100BB000097ED0E0B50FE87F4512099190024DE023
:100BC0007F2B30E7047F2DF404C0E012099FD0E0B2
:100BD00075F00A84C0F0120988D0E0120988020971
:100BE000D9791080027908C20FC2118008D2D57954
:100BF0000A8004790AC2D5E50F047002F50FE4FA01
:100C0000FDFEFF12095CFC7B08200A1312095CFD43
:100C10007B1030090A12095CFE12095CFF7B20EC94
:100C20003382D592D55013C3E43009069FFFE49E6A
:100C3000FEE4200A039DFDE49CFCE4CBF8C20AEC30
:100C4000700CCFCECDCCE824F8F870F38017C3EF4A
:100C500033FFEE33FEED33FDEC33FCEB33FB994019
:100C600002FB0FD8E9EB300A05F8D0E0C448B20A1D
:100C7000C0E00AEC4D4E4F78207B0070C2EAB50F01
:100C80000040BCC0E0120D05D0F0D0E0200A04C442
:100C9000C0E0C4B20AC0F0120988D0F0D5F0EB026F
:100CA00009D91209090A76530BE1580A474C0A433D
:100CB000420BE54F0BED440BED490A5C430BF3553A
:100CC0000B20460B80450AEA470DC0500A4B2D0AFF
:100CD0004F2E0A722B0A53230A70200DA92A0A0BE1
:100CE0004800000A6AE50FB4FF03750F0612095C9D
:100CF000FC12095CFD12095CFE12095CFF900246C1
:100D000002010B790AA2D5200C14300E09B9100289
:100D10000404B9080104A2D5200F02500104200BDD
:100D200068920BB50E005034C0E07F20300C197F64
:100D300030A20B720F720E500F120D5CC20BC20F5D
:100D4000C20EC2117F30800F300E03E9C0E01209DD
:100D50009F300E03D0E0F9D0E0B50ECC300E177FF7
:100D600030B9100C12099F7F58300D077F7880032F
:100D7000B9080312099F300B057F2D02099F7F20C0
:100D80002011F87F2B200FF322920B80CF7F00B42D
:100D90000700500B2446F582E43402F583E0FF227D
:100DA000286E756C6C2900D20A12095C300AF8C2F0
:100DB0000A780E30D50108F6020A0B2D5043495827
:100DC00012095C2403B405004001E4900DBB9312AA
:100DD0000990743A120990D20C750E04020BE1438B
:100DE000BA8012299D12225D122AE6D2AF900164C8
:100DF000E06404601AD3900099E094E8900098E0D1
:100E00006480948340097F017E0012273380DE12C4
:100E10002AD2122B771220117B017A0079039001DC
:100E2000B27404F0E4FD7FA012208C900005E02451
:100E3000D0FFE434FFFE7C007D0A1206D8AA06AB80
:100E400007900004E024D0FFE434FFFE7D64120626
:100E5000D8EF2BFFEE3AFE900006E024D0FDEC34F4
:100E6000FFCD2FFFED3E90009EF0A3EFF07BFF7AC9
:100E70002C798F90009EE0FFA3E09001B0CFF0A30B
:100E8000EFF012239190009EE0FFA3E09000CCCF02
:100E9000F0A3EFF0121AD690009A1208AC7B017AF8
:100EA0000079027D0020B6027D0112294F92127B4B
:100EB000017A0079137D0020C6027D0112294F922C
:100EC000137B017A0079167D0020A3027D0112298F
:100ED0004F92147B017A0079577D002090027D01AA
:100EE00012294F921530120F900000E07004A3E019
:100EF000640270031224A9201403020FA8900000BA
:100F0000E07004A3E064017003122331900000E05C
:100F10007004A3E0640370067F03FE1221F29000C8
:100F200000E07004A3E06404707E7B017A00790322
:100F30009001B27404F0E4FD7FA012208C9001B007
:100F40007401F0A37400F0A37403F07BFF7A2C7992
:100F500098122391900005E024D0FFE434FFFE7C3A
:100F6000007D0A1206D8AA06AB07900004E024D040
:100F7000FFE434FFFE7D641206D8EF2BFFEE3AFE4D
:100F8000900006E024D0FDEC34FFCD2FFFED3EFEB7
:100F900090009EF0A3EFF07BFF7A2C79A19001B036
:100FA000EEF0A3EFF01223913015031228A0122BBC
:100FB000099000ACE0F8A3E0F9A3E0FAA3E0FBC3DA
:100FC0001208884003020E9D900000E0FEA3E0FF9F
:100FD000EE60030210B1EF24FE601314601614607B
:100FE00060240360030210B11214F10210B6121053
:100FF000C40210B620B61530C612900000E070048E
:10100000A3E0640370067F01FE1221F220C61530B2
:10101000B612900000E07004A3E0640370067F0243
:10102000FE1221F220B61520C612900000E07004D6
:10103000A3E0640370067F04FE1221F212130880FD
:101040007590022174FFF0A3742CF0A374A9F090A2
:1010500000CCE0FFA3E0900224CFF0A3EFF07B01EF
:101060007A0079B01209C17B017A0079B07D017CE8
:10107000007F017E0012276C90022174FFF0A374A0
:101080002CF0A374B0F090009EE0FFA3E090022447
:10109000CFF0A3EFF07B017A0079B01209C17B0198
:1010A0007A0079B07D017C007F027E0012276C807F
:1010B000057F011228FAB2A0122B099000AC120889
:1010C000AC020E9D7BFF7A2B79D27D017C007F02E2
:1010D0007E0012276C7BFF7A2B79D07D0F7C007FFE
:1010E000027E0012276C7BFF7A2C79267D017C0022
:1010F0007F017E0012276C7BFF7A2C792E7D0C7C81
:10110000007F017E0012276C7BFF7A2B79D07D1047
:101110007C007F017E0012276C122B09A804A90510
:10112000AA06AB079000A8E0FCA3E0FDA3E0FEA3A5
:10113000E024F4FFEE3401FEE43DFDE43CFCD31278
:10114000088850030211D790009AE0FCA3E0FDA3A9
:10115000E0FEA3E0FF9001AF1208AC9000CCE0FEEF
:10116000A3E0FF121F919000A0EEF0A3EFF07BFF31
:101170007A2B79F29000A0E0FFA3E09001B0CFF0CD
:10118000A3EFF01223917BFF7A2C79309000A4E03A
:10119000FFA3E09001B0CFF0A3EFF01223917BFF0B
:1011A0007A2C79439000D8E0FFA3E09001B0CFF013
:1011B000A3EFF01223917BFF7A2B79FF9000CCE014
:1011C000FFA3E09001B0CFF0A3EFF0122391122B18
:1011D000099000A81208AC90022174FFF0A3742BB0
:1011E000F0A374DBF09000A0E0FFA3E0900224CF16
:1011F000F0A3EFF07B017A0079B01209C17B017A8C
:101200000079B07D0A7C007F027E0012276CD390AB
:1012100000A1E094009000A0E0940050117BFF7AC0
:101220002C790F7D0A7C007F027E0012276C9000D3
:10123000A4E07002A3E070187BFF7A2C79547D0D36
:10124000FC7F01FE12276CE49000D8F0A3F0801B15
:101250009000A4E0FCA3E0FD9000A0E0FEA3E0FF6E
:101260001206EA9000D8EEF0A3EFF090022174FF8E
:10127000F0A3742CF0A37458F09000A4E0FFA3E056
:10128000900224CFF0A3EFF07B017A0079B012092D
:10129000C17B017A0079B07D0D7C007F017E001258
:1012A000276CC39000D9E094649000D8E09400408B
:1012B00006E4F0A37464F090022174FFF0A3742C90
:1012C000F0A37458F09000D8E0FFA3E0900224CF80
:1012D000F0A3EFF07B017A0079B01209C17B017AAB
:1012E0000079B07D087C007F017E0012276C9000A1
:1012F000D8E07002A3E0700F7BFF7A2C79547D0850
:10130000FC7F01FE12276C227BFF7A2B79D27D01B4
:101310007C007F027E0012276C90009AE0FCA3E024
:10132000FDA3E0FEA3E0FF9001AF1208AC9000CC5B
:10133000E0FEA3E0FF121F919000A0EEF0A3EFF0FB
:1013400090022174FFF0A3742BF0A374DBF0A3EEE2
:10135000F0A3EFF07B017A0079B01209C17B017A2A
:101360000079B07D0A7C007F027E0012276C7BFF33
:101370007A2B79D07D0F7C007F027E0012276C7B58
:10138000FF7A2C795C7D017C007F017E0012276C46
:1013900090022174FFF0A3742CF0A37458F0900015
:1013A000C8E0FFA3E0900224CFF0A3EFF07B017A26
:1013B0000079B01209C17B017A0079B07D0C7C0004
:1013C0007F017E0012276C7BFF7A2B79D07D107C09
:1013D000007F017E0012276C9000C8E0FAA3E0FBBA
:1013E0009000A0E0FEA3E0FFAD03AC021206EA907D
:1013F00000CEEEF0A3EFF0EB4A70069000CEF0A323
:10140000F09000C8E0FEA3E0FF9000A0E0FCA3E0A5
:10141000FDD39FEC9E50030214ECED4C70030214BC
:10142000EC122B09C004C005C006C0079000C9E03B
:101430002432FD9000C8E03400FC9000A0E0FEA340
:10144000E0FF1206EA7C007D641206D8E4FDC004C9
:10145000C005C006AB079000BFE0FEA3E0FFA3E01D
:10146000F8A3E0F9A3E0FAA3E02FFFEA3EFEED398E
:10147000FDEC38FCD002D001D000C3EF9BFBEE9A0C
:10148000FAED99F9EC98F8D007D006D005D004C34E
:10149000120888505BB2A4B2B4C2A07BFF7A2C7948
:1014A000689000A0E0FFA3E09001B0CFF0A3EFF0C0
:1014B0001223917BFF7A2C79769000C8E0FFA3E09D
:1014C0009001B0CFF0A3EFF01223917BFF7A2B793C
:1014D000FF9000CCE0FFA3E09001B0CFF0A3EFF0CD
:1014E000122391122B099000C10208ACD2A4D2B4ED
:1014F000227BFF7A2B79CB7D017C007F017E00125D
:10150000276C7BFF7A2B79D07D0A7C007F017E00DF
:1015100012276C7BFF7A2B79D27D017C007F027EC3
:101520000012276C7BFF7A2B79D07D0F7C007F0225
:101530007E0012276C90022174FFF0A3742BF0A39D
:1015400074DBF09000A6E0FFA3E0900224CFF0A3AC
:10155000EFF07B017A0079B01209C17B017A007942
:10156000B07D057C007F017E0012276C122B09A83C
:1015700004A905AA06AB079000A8E0FCA3E0FDA320
:10158000E0FEA3E024F4FFEE3401FEE43DFDE43C84
:10159000FCD3120888500302162490009AE0FCA3A2
:1015A000E0FDA3E0FEA3E0FF9001AF1208AC9000C5
:1015B000CCE0FEA3E0FF121F919000A6E0FCA3E0A8
:1015C000FDC3EF9DFFEE9C9000A2F0A3EFF07BFF28
:1015D0007A2B79DF90009AE0FCA3E0FDA3E0FEA364
:1015E000E0FF9001B01208AC1223917BFF7A2B79B7
:1015F000F29000A2E0FFA3E09001B0CFF0A3EFF0E3
:101600001223917BFF7A2B79FF9000CCE0FFA3E0BF
:101610009001B0CFF0A3EFF0122391122B099000AC
:10162000A81208AC90022174FFF0A3742BF0A374ED
:10163000DBF09000A2E0FFA3E0900224CFF0A3EF44
:10164000F07B017A0079B01209C17B017A0079B090
:101650007D0A7C007F027E0012276CD39000A3E0FD
:1016600094009000A2E0940050117BFF7A2C790F37
:101670007D0A7C007F027E0012276C229000DAE057
:1016800030E7709000DDE0706A9000DCE0706490FC
:1016900000E0E07004A3E06402600302178C900095
:1016A000DAE0540F14601914603C2402600302173E
:1016B0008C9000DFE070069000DEE0601902178C6D
:1016C000900164E0B4040C9000DFE070069000DE4E
:1016D000E0600302178C9001A874FFF0A3742DF052
:1016E000A3743702177E900164E0B404069000DF13
:1016F000E0600302178C9000DEE0FE540F900217AA
:10170000F0EE146041247F600304707E900217E0C5
:10171000FF74017E00A807088005C333CE33CED8FE
:10172000F9FF9001ABE0FDEF5D9001A8600C74FF44
:10173000F0A3742DF0A37439800A74FFF0A3742D04
:10174000F0A374378038900217E0FF74017E00A880
:1017500007088005C333CE33CED8F9FF9001ACE043
:10176000FDEF5D9001A8600C74FFF0A3742DF0A351
:101770007439800A74FFF0A3742DF0A37437F090CD
:1017800001A6E4F0A37402F0800580000200BE12FE
:101790002AF922122A257F14122A79AE07EE30E6A2
:1017A000077D807F14122A29EE20E0030218867B31
:1017B000017A0179247F211226F99000E2EFF0905E
:1017C00000C5E0FBA3E0FAA3E04A4B7003021876E1
:1017D000E4900217F09000E2E0FF900217E0FEC3F1
:1017E0009F40030218769000C5E0FBA3E0FAA3E057
:1017F000F99000E3E0FD3395E08D82F583120677E2
:10180000FF74242EF582E43401F583E06F7031908B
:1018100000E3E004F09000E3E0FF3395E08F82F511
:10182000831206777047FD7F14122A29E4F5F4F538
:10183000DC90FE07F07F0AFE122AA475C76080FEC6
:101840009000C5E0FBA3E0FAA3E0F912065EFF906A
:101850000217E02424F582E43401F583E0B507089B
:101860009000E37401F08005E49000E3F09002172B
:10187000E004F00217D5D216122A8B5009E4FD7F3E
:1018800014122A29C21622900218EBF0A3EAF0A340
:10189000E9F0E4FFFE90021BE0FBA3E0FAA3E0F90D
:1018A00012065EFDC3EF9DEE94005026900218E0F4
:1018B000FBA3E0FAA3E0F98F828E83120677FD7412
:1018C000582FF58274003EF583EDF00FBF00010E36
:1018D00080C3900058E06423705490005AE024D0F4
:1018E000FFE434FFFE7C007D0A1206D8AA06AB078F
:1018F000900059E024D0FFE434FFFE7D641206D846
:10190000EF2BFFEE3AFE90005BE024D0FDEC34FFBD
:10191000CD2FFFED3E900014F0A3EFF0900218E001
:10192000FBA3E0FAA3E0F9E4FD7FA01222C8900037
:1019300014E0FEA3E0FF9000CCEEF0A3EFF09002E5
:101940002174FFF0A3742CF0A37486F0A3EEF0A32F
:10195000EFF07B017A0079171209C17B017A0079D7
:10196000177D097C00021C169000DAE020E70302D4
:101970001A119000DDE024FE602314603924026017
:1019800003021A119001A874FFF0A3742CF0A37441
:10199000B8F09001A6E4F0A37412F080779001A84B
:1019A00074FFF0A3742CF0A374CAF09001A6E4F0C5
:1019B000A37443F0805E9000DCE014602014603675
:1019C0002402704B9001A874FFF0A3742DF0A3744F
:1019D0000DF09001A6E4F0A37404F080379001A804
:1019E00074FFF0A3742DF0A37411F09001A6E4F03D
:1019F000A37408F0801E9001A874FFF0A3742DF06A
:101A0000A37419F09001A6E4F0A3741EF080058081
:101A1000000200BE9000E0E0FEA3E0FFD39001A72B
:101A2000E09F9001A6E09E4005EEF0A3EFF0122AA1
:101A3000F922C0E0C0F0C083C082C0D075D000C021
:101A400000C001C002C003C004C005C006C00790AA
:101A50000216E5FCF07F06122A79900213EFF07F60
:101A600002122A79A3EFF07F04122A79A3EFF090F3
:101A70000213E030E103122BA4900213E030E203E2
:101A80001226BC900214E030E003122107900214E9
:101A9000E030E1031229BF900214E030E203122982
:101AA000FE900215E030E103121793900213E0302C
:101AB000E003122BA5900216E0F5FCD007D006D06B
:101AC00005D004D003D002D001D000D0D0D082D035
:101AD00083D0F0D0E0329001AF1208B800000000CF
:101AE0009001B31208B800000000E49001ADF0A32B
:101AF000F0121F089001AF1208AC9001B3E0FCA3F4
:101B0000E0FDA3E0FEA3E0FF9001AFE0F8A3E0F961
:101B1000A3E0FAA3E0FBEF2BFFEE3AFEED39FDEC7C
:101B200038FCA31208AC7F647E001227339001AE0C
:101B3000E004F070069001ADE004F0C39001AEE067
:101B400094049001ADE0940040A79001B3E0FCA3A1
:101B5000E0FDA3E0FEA3E0FFE47B04FAF9F812073E
:101B6000F69001B31208AC9001B3E0FCA3E0FDA332
:101B7000E0FEA3E0FF22900164E064047023900083
:101B8000DAE0B4021C9000DFE070169000DDE07037
:101B9000109000DCE070789000E0E07002A3E0605C
:101BA00002806C9000DEE0FE540F900217F0EE14FD
:101BB000602D247F60030470569001ABE0FF90021B
:101BC00017E0FD7401A805088002C333D8FCF45F58
:101BD0009001ABF07F0E122A297D407F1180249066
:101BE00001ACE0FF900217E0FD7401A80508800237
:101BF000C333D8FCF45F9001ACF07F0E122A297D2C
:101C0000807F14122A29E4FD7F0E122A2980030204
:101C100000BE122B5F2290021EEBF0A3EAF0A3E9B4
:101C2000F0A3ECF0A3EDF0900226122A1CE490023F
:101C300024F0A3F0900221E0FEA3E0FFD39440EE55
:101C40006480948040067D407F408000900223EFB6
:101C5000F07F11122A79EF30E00E90022674FFF522
:101C6000F012075545F070E990021EE0FBA3E0FA80
:101C7000A3E0F9900224E0FEA3E0FFE92FF9EA3E99
:101C8000FA900223122639900223E0FFFD7C009097
:101C90000225E02DF0900224E03CF0C3900222E007
:101CA0009DF0900221E09CF0EFC394405086D21842
:101CB00043AF8022900164E0640470239000DAE076
:101CC000B4021C9000DFE070169000DDE070109010
:101CD00000DCE070769000E0E07002A3E06002803B
:101CE0006A9000DEE0FE540F900217F0EE14602CB4
:101CF000247F60030470549001ABE0FF900217E072
:101D0000FD7401A805088002C333D8FC4F9001ABD5
:101D1000F07F0E122A297D107F1180239001ACE004
:101D2000FF900217E0FD7401A805088002C333D8B4
:101D3000FC4F9001ACF07F0E122A297D207F1412F7
:101D40002A29E4FD7F0E122A2980030200BE122BED
:101D50005F22900164E0640260229000DAE0701C6F
:101D60009000DDE070169000DFE070109000DEE083
:101D7000700A9000E0E07002A3E060030200BE90F1
:101D800000DCE0640190016470547404F0E490019C
:101D9000ABF09001ACF07D017F0E122A297D207FEF
:101DA00012122A297D087F10122A297D027F0E1225
:101DB0002A297D207F12122A297D087F10122A29C4
:101DC0007D017F0E122A29E4FD7F12122A297D0847
:101DD0007F13122A29E4FD7F0E122A29800D740335
:101DE000F09001AB74FFF09001ACF0122B5F2290E9
:101DF00001DDEEF0A3EFF09001E2122A1CE4900165
:101E0000E0F0A3F09001DDE0FEA3E0FFD39440EE0C
:101E1000940040067D407F4080009001DFEFF07F1E
:101E200011122A79EF30E00E9001E274FFF5F01202
:101E3000075545F070E99001E0E0FEA3E024E4F9E5
:101E400074003EFA7B019001DF1226399001DFE039
:101E5000FFFD9001E1E02DF09001E0E03400F0C3DF
:101E60009001DEE09FF09001DDE09400F09001DF52
:101E7000E0C39440508ED21843AF8022787FE4F6BE
:101E8000D8FD758123021EC3020003E493A3F8E486
:101E900093A34003F68001F208DFF48029E493A3C2
:101EA000F85407240CC8C333C4540F4420C88340DB
:101EB00004F456800146F6DFE4800B0102040810AA
:101EC00020408090000EE47E019360BCA3FF543F4D
:101ED00030E509541FFEE493A360010ECF54C025E2
:101EE000E060A840B8E493A3FAE493A3F8E493A3D2
:101EF000C8C582C8CAC583CAF0A3C8C582C8CAC536
:101F000083CADFE9DEE780BEC2C79001B71208B816
:101F1000000000002091FDE4FBEBC3941874809452
:101F2000805042D2C79001B7E0FCA3E0FDA3E0FEE1
:101F3000A3E0FF78011208999001B71208ACC2C75C
:101F400030911F9001B7E0FCA3E0FDA3E0FEA3E009
:101F50002401FFE43EFEE43DFDE43CFC9001B712A9
:101F600008AC0B80B4D2C79001B7E0FCA3E0FDA39E
:101F7000E0FEA3E0FFED6480FDEC9001B71208AC39
:101F8000C2C79001B7E0FCA3E0FDA3E0FEA3E0FF21
:101F9000229001ADEEF0A3EFF0121F089001B312F2
:101FA00008AC9001AFE0FCA3E0FDA3E0FEA3E0FFDE
:101FB000A3E0F8A3E0F9A3E0FAA3E0FBC3120888CA
:101FC00050129001AFE0FCA3E0FDA3E0FEA3E0FF10
:101FD000A31208AC9001AFE0F8A3E0F9A3E0FAA3E4
:101FE000E0FBA3E0FCA3E0FDA3E0FEA3E0C39BFFB6
:101FF000EE9AFEED99FDEC98FCC006C0079001AD8D
:10200000E0FEA3E0FBAA06E4F9F8D007D006020739
:10201000F690022174FFF0A3742BF0A374AFF0A329
:1020200074FFF0A3742BF0A374B2F07B017A0079F3
:10203000B01209C17B017A0079B07D027C007F017A
:102040007E0012276C7FF47E0112273390022174E8
:10205000FFF0A3742BF0A374AFF0A374FFF0A3748C
:102060002BF0A374C1F07B017A0079B01209C17B17
:10207000017A0079B07D047C007F027E0012276C1B
:102080007FD07E071227337F010228FA9001ADEF3F
:10209000F0A3EDF0A3EBF0A3EAF0A3E9F0122B8399
:1020A000E425E0FF9001ADE04FFF122B36122B8CA0
:1020B0009001AEE0FF122B36122B8C122B83900175
:1020C000ADE04401FF122B36122B8CE49001B3F0EB
:1020D0009001B2E0FFA3E0C39F5026122B1890019D
:1020E000AFE0FBA3E0FAA3E0F99001B3E0F582755D
:1020F0008300EF1206B6122B449001B3E004F08087
:10210000CF122B27022B95122A70AE07EE30E20D6C
:1021100054FBFD7F11122A29E49001A5F0EE30E472
:10212000084480FD7F11122A299001A5E024FD605A
:102130004714604724047046EE30E0427B017A0089
:1021400079DA7F201226F99000E0E0FEA3E0FF128A
:102150002A389000E0EEF0A3EFF09000DAE054604F
:1021600024E0600B24E0600A244070090223F1029D
:102170002A54022BA10200BE02217F1225552212F1
:102180002A70EF20E16B9001A6E0FEA3E0FFD3945C
:1021900040EE940040067D407F408000900218EFA2
:1021A000F09001A8E0FBA3E0FAA3E0F990021DEF94
:1021B000F07F201227D8900218E0FF7E00C3900124
:1021C000A7E09FF09001A6E09EF09001A9EE8FF0AD
:1021D00012073F9001A6E07002A3E0700D7D0A7F18
:1021E00011122A29E49001A5F0227D027F11122A02
:1021F0002922EF64014E700F9000C9E004F0705C7A
:102200009000C8E004F022EF64024E701CD39000EE
:10221000C9E094009000C8E09400400DA3E024FFC2
:10222000F09000C8E034FFF022EF64034E602DEF21
:1022300064044E702790009AE0FCA3E0FDA3E0FE4A
:10224000A3E0FF9001AF1208AC9000CCE0FEA3E049
:10225000FF121F919000C8EEF0A3EFF02253B2FCE2
:1022600043B10390FE077480F090FE07E030E0F980
:10227000E4F5DC75F490FDFF122A297D087F011238
:102280002A297D3F7F07122A297D3F7F09122A29AB
:102290007D077F0B122A29E4FD7F01122A29900174
:1022A000647402F0E49001A5F09001ABF0A3F0900B
:1022B000024E1208B800C20100E4900252F0A3F0EE
:1022C000A37408F043AF802290021EEFF0A3EDF05C
:1022D000A3EBF0A3EAF0A3E9F0A37403F0122B83BD
:1022E000E425E0FF90021EE04FFF122B36122B8CEC
:1022F00090021FE0FF122B36122B8CE4900224F088
:10230000900223E0FFA3E0FEC39F5022900220E052
:10231000FBA3E0FAA3E0F98E82758300120677FF33
:10232000122B36122B8C900224E004F080D2022B68
:102330009530145C900000E07004A3E064017050DC
:1023400090009AE0FCA3E0FDA3E0FEA3E0FF900173
:10235000AF1208AC9000CCE0FEA3E0FF121F9190FA
:1023600000A6EEF0A3EFF07BFF7A2C79149001B079
:10237000EEF0A3EFF01223917BFF7A2B79FF900010
:10238000CCE0FFA3E09001B0CFF0A3EFF0122391D7
:10239000229001ADEBF0A3EAF0A3E9F09001D8742C
:1023A00001F0A37401F0A374B0F09001ADE0F9A3C3
:1023B000E0FAA3E09001DDC9F0A3EAF0A3E9F09010
:1023C00001D8E0F9A3E0FAA3E09001E0C9F0A3EAA4
:1023D000F0A3E9F07B017A0079E41225EF9001DBAC
:1023E000EEF0A3EFF0121DEF9001DBE0FEA3E0FFA3
:1023F000229000DBE0B40D00504F902401F8282813
:102400007302242802242B02244902242E02244988
:1024100002243102243402243702243A02243D02E9
:10242000244002244302244602167C021B76021C2E
:10243000B402250402196802000802244D021D524C
:1024400002267B022926022B9E1200BE229000DA71
:10245000E0648070249000DDE0701E9000DCE0708D
:10246000189000DFE070129000DEE0700C9000E049
:10247000E07004A3E0640160030200BE900164E028
:102480009001A8B4040C74FFF0A3742DF0A3743968
:10249000800A74FFF0A3742DF0A37437F09001A6A6
:1024A000E4F0A304F0122AF92290009AE0FCA3E0E1
:1024B000FDA3E0FEA3E0FF9001AF1208AC9000CCBA
:1024C000E0FEA3E0FF121F91D3EF94E8EE940340E7
:1024D0000B9000A47403F0A374E7F02290009AE03C
:1024E000FCA3E0FDA3E0FEA3E0FF9001AF1208AC67
:1024F0009000CCE0FEA3E0FF121F919000A4EEF04C
:10250000A3EFF0229000DAE070259000DFE0701F6A
:102510009000DEE070199000DDE070139000DCE0C8
:10252000C39480500A9000E0E07002A3E0600302D0
:1025300000BE9000DCE0900217F0FDE4FF122A29B3
:10254000900217E090016460057403F08003740248
:10255000F0122B5F22122A70EF30E0479001A8E0C2
:10256000FBA3E0FAA3E0F97F201226F9EFFDC39068
:1025700001A7E09DF09001A6E09400F09001A9E48D
:102580008FF012073F9001A6E07002A3E0700D7D6E
:10259000487F11122A29E49001A5F0227D407F1185
:1025A000122A2922C0E0C0F0C083C082C0D075D0FA
:1025B00000C000C004C005C006C007900255E0FC82
:1025C000A3E0FDA3E0FEA3E02401FFE43EFEE43D22
:1025D000FDE43CFC9002551208ACD007D006D005B3
:1025E000D004D000D0D0D082D083D0F0D0E03290D0
:1025F00001DDE0FFA3E0FEA3E0CF900221F0A3EE17
:10260000F0A3EFF09001E0E0CBF0A3E0CAF0A3E08C
:10261000C9F07F22900224AD82AC8312065E8D82C7
:102620008C83F0A309E970010ADFEC9001E0E0FB84
:10263000A3E0FAA3E0F90209C1E0FD90022C7401C5
:10264000F0900228EBF0A3EAF0A3E9F0AE05AF06A4
:102650001EEF602090022CE02420FF900228E0FB77
:10266000A3E475F001120755A9F0FA12065EFD12F7
:102670002A2980DA7D017F11022A29900164E0B4C1
:10268000041D9000DAE0B481169000DDE070109037
:1026900000DFE0700AA3E07004A3E06401600302BD
:1026A00000BE9001A874FFF0A3742DF0A37437F05E
:1026B0009001A6E4F0A304F0122AF922E4FDFF122F
:1026C0002A299001647402F0E49001A5F00D7F0EB8
:1026D000122A297D487F11122A297D027F0E122A93
:1026E000297D487F11122A29122A257D907F1412F4
:1026F0002A29E4FD7F0E022A29900218EBF0A3EAB2
:10270000F0A3E9F0AE077F16122A79AD07AC05AF4A
:10271000051DEF601BAF06122A79900218E0FBA39B
:10272000E475F001120755A9F0FAEF1206A480DF54
:10273000AF0422E4FCFD900255E0F8A3E0F9A3E029
:10274000FAA3E02FFFEA3EFEED39FDEC38FC9001E4
:10275000B71208AC122B099001B7E0F8A3E0F9A377
:10276000E0FAA3E0FBD312088850E9229001ADEB18
:10277000F0A3EAF0A3E9F01227A3E49001B0F090EF
:1027800001ADE0FBA3E0FAA3E0F9A3E0F5827583D5
:1027900000120677FF600B1228CE9001B0E004F023
:1027A00080DD229001B3ECF0A3EDF09001B1EEF0EA
:1027B000A3EFF064014E7006A3A3E0148013900110
:1027C000B1E07004A3E06402700D9001B3A3E024B3
:1027D0003F4480FF1228FA2290021AEBF0A3EAF09D
:1027E000A3E9F0AE0790021DE0FF14F0EF601BAF0D
:1027F0000690021AE0FBA3E475F001120755A9F058
:10280000FA12065EFD122A2980DB22900164E0B4F0
:1028100004089000DAE0642160030200BE9001A881
:102820007401F0A37402F0A3744EF09000E0E0FF96
:10283000A3E09001A6CFF0A3EFF0122B522290015B
:1028400064E0B404089000DAE064A160030200BE12
:102850009001A87401F0A37402F0A3744EF09000EC
:10286000E0E0FFA3E09001A6CFF0A3EFF0122AF979
:10287000227580FFC2A5D2A6D2A77F017E001227B3
:10288000339001B6E580F07F017E00122733C2A7A6
:102890007F017E001227339001B6E0548070D92268
:1028A000D2A4D2B47F011228FA900001E004F070A3
:1028B00006900000E004F0D3900001E09404900042
:1028C00000E0648094804005E4F0A304F0229001CD
:1028D000B1EFF0122871D2A5C2A67F017E001227A7
:1028E000339001B1E0F5807F017E00122733D2A73B
:1028F0007F017E00122733C2A7229001B5EFF012AC
:102900002871C2A5C2A67F017E001227339001B5AF
:10291000E0F5807F017E00122733D2A77F017E0081
:10292000122733C2A722900164E0B4041B9000DA9E
:10293000E0B401149000DDE0700E9000DFE070085C
:10294000A3E07002A3E060030200BE122B5F22ED41
:102950007002801512065EFFC3940A748094804052
:10296000047F0A8003EF04FFEF1206A412065E64E0
:1029700009C37001D322EFB40A07740D12298174C0
:102980000A309811A899B8130CC2983098FDA899EC
:10299000C298B811F63099FDC299F59922E4F594E0
:1029A000F593F592F591F596F595F5B2F5B1F5B487
:1029B000F5B3F5CAF5C9F5CCF5CBF5E2F5E1227D25
:1029C00001122A72AE07EE30E5077D407F11122A10
:1029D00029EE30E207E4FD7F11122A29C21822EF06
:1029E0001FAC0670011E4C601400000000000000C7
:1029F000000000000000000000000080E2227D02D4
:102A0000122A72AE07EE30E5077D407F11122A29A7
:102A1000EE30E207E4FD7F11122A2922E4F0A374CC
:102A2000C8F053AF7F7D017F0EE5FC20E7FBEF543C
:102A30007FF5FCAF058FEC22900217EEF0A3EFF0CC
:102A4000E0A3F0900217E090021AF0900219E0FE65
:102A5000A3E0FF229000DBE024DF600A14600A2478
:102A600002700902280B02283E022ABC1200BE2274
:102A7000E4FD7F0E122A297F11E5FC20E7FBEF44DD
:102A800080F5FCE5FC20E7FBAFEC2290021B740113
:102A9000F0A37400F0A374E2F07B017A01792412B0
:102AA0001887D322AB07AA06EB1BAE0270011A4EA1
:102AB00060097FE87E031229DF80ED22900164E047
:102AC000B404089000DAE0642160030200BE122B17
:102AD0005F227F381228FA7F0C1228FA7F0612280C
:102AE000FA7F010228FA538E7F5389F0758A307578
:102AF0008CF8C28DD28CD2A9229001A57403F07DEE
:102B0000407F11122A2902217F900255E0FCA3E0A8
:102B1000FDA3E0FEA3E0FF2290FE817404F0122BDF
:102B20006B90FE87E0FF2290FE827401F090FE81A0
:102B30007405F0022B6B90FE86EFF090FE8174021C
:102B4000F0022B6B90FE82E4F090FE817405F0029F
:102B50002B6B9001A57404F07D407F11022A29E4BB
:102B60009001A5F07D487F11022A2990FE82E03075
:102B7000E6F9E054BFF02290FE8074E0F090FE820F
:102B8000E4F02290FE817401F0022B6B90FE8174C0
:102B900003F0022B6B90FE817406F0022B6B020097
:102BA000BE0200BE22224053544349535023002505
:102BB00073003230323335363033303233313835DA
:102BC000004C696E5A68694B6169005069203A008F
:102BD0006700576569676874203A00253464007798
:102BE00065696768745F62617365203D20256C7557
:102BF0000A00776569676874203D2025640A0077BC
:102C000065696768745F6B203D202533640A002086
:102C1000202030007765696768745F746172652091
:102C20003D2025640A00436F756E74203A007800D9
:102C30007765696768745F636F756E74203D2025E2
:102C4000640A004974656D5F436F756E74203D20A2
:102C500025640A0020203000253364007468726502
:102C600073686F6C64203A00776569676874203D0B
:102C7000202534640A007468726573686F6C642080
:102C80003D20253364006B203D202533640A004538
:102C90006B203D2025640A00456B203D2025730AEA
:102CA000006B203D2025640A006B203D2025640038
:102CB000456B203D20256400120100020200004007
:102CC000BF3402FF000101020001090243000201BA
:102CD00000803209040000010202010005240010F6
:102CE0000105240100010424020205240600010755
:102CF0000582034000FF09040100020A00000007EA
:102D0000058102400000070501024000000403099C
:102D10000408035300540043001E035300540043AF
:102D2000002000550053004200200053006500724F
:0B2D300000690061006C000000010061
:00000001FF
