:1000000002153A120D6880FE021EE20219DDC0E000
:10001000C0F0C083C082C0D075D000C000C001C095
:1000200002C003C004C005C006C00790013CE5FC47
:10003000F07F06121E65900139EFF07F02121E65F7
:10004000A3EFF07F04121E65A3EFF0900139E030BA
:10005000E1031200CA900139E030E203121AF59070
:10006000013AE030E0031216CF90013AE030E103AC
:10007000121DAB90013AE030E203121DEA90013B01
:10008000E030E103120FD6900139E030E003121F97
:100090000E90013CE0F5FCD007D006D005D004D08E
:1000A00003D002D001D000D0D0D082D083D0F0D005
:1000B000E032AB07AA06EB1BAE0270011A4E6009D4
:1000C0007FE87E03121DCB80ED222202000EF92074
:1000D000E73624F950037907E4F42402FBE582159E
:1000E0008270021583DBF6E024FB501BE96014E408
:1000F000F0E582158270021583E004F0B40A08E48A
:10010000F0D9EE7401F00A22C2D522ED33EC33921D
:10011000D5FA602AB4FF33EDC2E77BFF60067A01AF
:100120007930E4227A01793920D5047A01793422B0
:100130004E614E002B494E46002D494E4600E47A52
:1001400008F0A3DAFC7B00740722C083C082ECC0F5
:10015000E0EDC0E0EEC0E0EFC0E0EA75F010A4CA48
:10016000ABF075F04DA42BFBE435F0FCEA2410FA5B
:10017000EB34C5FBEC34D9FCEDC2E7FF75F056A4B7
:10018000F42411C5F0F434C58FF0A42AE5F03BE463
:100190003CF020E7141204DED0E0FFD0E0FED0E017
:1001A000FDD0E0FC1204118014F4041204DED0E04F
:1001B000FFD0E0FED0E0FDD0E0FC120308D082D0FA
:1001C00083E0FAEDD2E7CD33EC332482FBE4C3CFF6
:1001D00033CFCE33CECD33CD33DBF37B0775F00A8F
:1001E000846004F0A31B0AE5F0F0A38FF0740AA466
:1001F000FFACF08EF0740AA42CFEACF050010C8D14
:10020000F0740AA42CFDE435F0F0A3DBDE740722C1
:10021000020553E86480F8E933E83360110460F0C4
:10022000ED33EC337009E8FCE9FDEAFEEBFF220454
:1002300060DED3EB9FEA9EE99DE8C2E78CF0C2F74F
:1002400095F0400CE8CCF8E9CDF9EACEFAEBCFFB1B
:1002500012051E85D0F05804700320D5B3E8047051
:10026000075002B2D502055D92D5EC0460F7E4CCEC
:10027000C0E0C398F8603B94186008400DD0E0FBE4
:10028000020535E4FBFAC9FC8028E830E406E4C93D
:10029000FBE4CAFCE830E305E4C9CACBFCE8540738
:1002A0006010F8C3E913F9EA13FAEB13FBEC13FC43
:1002B000D8F130F52FC3E49CFCEF9BFFEE9AFEEDE6
:1002C00099FDD0E0FBEF4E4D4C701222DB0302058E
:1002D0005AEC2CFCEF33FFEE33FEED33FDED30E74F
:1002E000EB020535EF2BFFEE3AFEED39FDD0E0FBDA
:1002F00050130BBB000302055DED13FDEE13FEEF83
:1003000013FFEC13FC020535EC4D6011E849701742
:10031000ED33EC3304600DE4FCFFFEFD22E933E82D
:10032000330470F802055312051E58046009E4CC2A
:100330002481500628500902055D28400302055A11
:10034000C0E0EB4A7044B98006D0E0FB020549EFFB
:100350004E701CBD8008EBFFEAFEE9FD80EBE98DE5
:10036000F0A4FEE5F00203F1E9CDF9EAFEEBFFEFC0
:1003700089F0A4FCE5F0CE89F0A42EFFE435F0CDA1
:1003800089F0A42DFEE435F08067EF4E7005BD8046
:10039000D780C3EF8BF0A4ACF0EE8BF0A42CFCE480
:1003A00035F0F8EF8AF0A42CE5F038FCE433CB8D7F
:1003B000F0A42CFCE5F03BF8EE8AF0A42CFCE5F070
:1003C00038F8E433CF89F0A42CFCE5F038CF3400C2
:1003D000CE89F0A42FFFE5F03EFEE433C98DF0A4F2
:1003E0002EFEE5F039CD8AF0A42FFFE5F03EFEE4C5
:1003F0003DFD33D0E0FB50070BBB000F02055DEC69
:100400002CFCEF33FFEE33FEED33FD020535020524
:100410005DEC5D046005E8590470030205531205A4
:100420001E580460F6EC4860F2EC7004FDFEFF22FA
:10043000C860DB2481C85009C398600250060205D9
:100440005A9850CAF582E9294B4A7005AB820205D9
:100450004975F0007C1A7880C3EF9BEE9AED9940C5
:100460000DC3EF9BFFEE9AFEED99FDE842F0DC2311
:10047000ACF0D0E0FFD0E0FED0E0FDAB8220E71092
:100480001BEB60BAEC2CFCEF33FFEE33FEED33FDDB
:10049000020535E803F830E705C0F075F000EF2FEE
:1004A000FFEE33FEED33FD40B830E7C280AA3F8057
:1004B00000004120000042C80000447A0000461CB1
:1004C000400047C35000497424004B1896804CBE2E
:1004D000BC205A0E1BCA6753C21C749DC5AEFB607C
:1004E000065407601C232312050CEB5438600912D4
:1004F00004F8120507120308ECF8EDF9EEFAEFCB59
:1005000022EB12050780F1543803241C9004AEFE40
:1005100093FC0EEE93FD0EEE930ECE93FF22E9D2E6
:10052000E7C933E833F892D5EDD2E7CD33EC33FCAD
:100530005002B2D522EC30E7100FBF000C0EBE0007
:10054000080DBD00040BEB6014A2D5EB13FCED927B
:10055000E7FD2274FFFCFDFEFF22E480F8A2D574C3
:10056000FF13FC7D80E480EFE709F608DFFA8046A0
:10057000E709F208DFFA803E88828C83E709F0A35E
:10058000DFFA8032E309F608DFFA8078E309F2083F
:10059000DFFA807088828C83E309F0A3DFFA80643D
:1005A00089828A83E0A3F608DFFA805889828A83E9
:1005B000E0A3F208DFFA804C80D280FA80C680D4B3
:1005C000806980F28033801080A680EA809A80A8BB
:1005D00080DA80E280CA803389828A83ECFAE493ED
:1005E000A3C8C582C8CCC583CCF0A3C8C582C8CC7B
:1005F000C583CCDFE9DEE7800D89828A83E493A39B
:10060000F608DFF9ECFAA9F0EDFB2289828A83EC87
:10061000FAE0A3C8C582C8CCC583CCF0A3C8C58204
:10062000C8CCC583CCDFEADEE880DB89828A83E43C
:1006300093A3F208DFF980CC88F0EF60010E4E60E2
:10064000C388F0ED2402B4040050B9F582EB240213
:10065000B4040050AF23234582239005B873BB0137
:100660000689828A83E0225002E722BBFE02E3224F
:1006700089828A83E49322BB010CE58229F582E515
:10068000833AF583E0225006E92582F8E622BBFE94
:1006900006E92582F8E222E58229F582E5833AF52A
:1006A00083E49322BB010689828A83F0225002F7F9
:1006B00022BBFE01F322EF8DF0A4A8F0CF8CF0A4B2
:1006C00028CE8DF0A42EFE22C5F0F8A3E028F0C5B8
:1006D000F0F8E582158270021583E038F022A3F865
:1006E000E0C5F025F0F0E582158270021583E0C8C0
:1006F00038F0E822E88FF0A4CC8BF0A42CFCE98E33
:10070000F0A42CFC8AF0EDA42CFCEA8EF0A4CDA879
:10071000F08BF0A42DCC3825F0FDE98FF0A42CCD82
:1007200035F0FCEB8EF0A4FEA9F0EB8FF0A4CFC562
:10073000F02ECD39FEE43CFCEAA42DCE35F0FDE4EC
:100740003CFC2275F008758200EF2FFFEE33FECDE2
:1007500033CDCC33CCC58233C5829BED9AEC99E581
:100760008298400CF582EE9BFEED9AFDEC99FC0F11
:10077000D5F0D6E4CEFBE4CDFAE4CCF9A88222B8D9
:1007800000C1B90059BA002DEC8BF084CFCECDFC5E
:10079000E5F0CBF97818EF2FFFEE33FEED33FDECEB
:1007A00033FCEB33FB10D703994004EB99FB0FD8D4
:1007B000E5E4F9FA227818EF2FFFEE33FEED33FD72
:1007C000EC33FCC933C910D7059BE99A4007EC9B71
:1007D000FCE99AF90FD8E0E4C9FAE4CCFB2275F001
:1007E00010EF2FFFEE33FEED33FDCC33CCC833C812
:1007F00010D7079BEC9AE899400AED9BFDEC9AFC18
:10080000E899F80FD5F0DAE4CDFBE4CCFAE4C8F9C6
:1008100022EB9FF5F0EA9E42F0E99D42F0E89C450C
:10082000F022E8600FEFC333FFEE33FEED33FDEC53
:1008300033FCD8F122ECF0A3EDF0A3EEF0A3EFF03F
:1008400022A8828583F0D083D082120858120858DB
:10085000120858120858E473E493A3C583C5F0C581
:1008600083C8C582C8F0A3C583C5F0C583C8C58247
:10087000C822F8E0FBA3A3E0F925F0F0E582158299
:1008800070021583E0FA38F022EBF0A3EAF0A3E956
:10089000F022D083D082F8E4937012740193700D2B
:1008A000A3A393F8740193F5828883E4737402938D
:1008B0006860EFA3A3A380DFEC8EF0A4CCC5F0CCDE
:1008C000CDF8EFA4CEC5F02DFDE43CFCE8A42EC885
:1008D000C5F03DFDE43CFCEFA4FFE5F028FEE43D5F
:1008E000FDE43CFC22E508240CF582E43401F583A8
:1008F000E005082290010930070390010CE475F02F
:100900000112087202065E2000E97F2ED2008018D4
:10091000EF540F2490D43440D4FF30040BEF24BFA5
:10092000B41A0050032461FFE50960021509050CA3
:10093000E50C7002050B30070E900109E475F0011B
:10094000120872EF0206A4021D847403D20780030A
:10095000E4C207F508900109120889E4F509F50BCE
:10096000F50CE50960077F2012092880F5750AFF5C
:10097000C201C200C202C203C205C206C2081208F6
:10098000F4FF700D3007057F00120939AF0CAE0B74
:1009900022B4255FC2D5C2041208F4FF24D0B40AE1
:1009A00000501A75F00A780930D50508B6FF01061F
:1009B000C6A426F620D5047002D20380D924CFB471
:1009C0001A00EF5004C2E5D204020C2BD20180C6FB
:1009D000D20080C0D20280BCD2D580BAD20580B409
:1009E0007F201209282002077401B5090040F11286
:1009F00008E5FF120928020962D208D20680951282
:100A000008E5FB1208E5FA1208E5F94A4B70067989
:100A1000297A0D7BFF20022EE509602A7E008E8256
:100A200075830012067760060EEE650A70F0C2D577
:100A3000EBC0E0EAC0E0E9C0E0EE120C8CD0E0F9D7
:100A4000D0E0FAD0E0FB12065EFF60AAEBC0E0EA5D
:100A5000C0E0E9C0E0120928D0E02401F9D0E03478
:100A600000FAD0E0FBE50A0460DCD50AD98087D221
:100A70000280A2120C6E60F7E50A7001041200CE2B
:100A8000A90A600DE50A600914F50A120D16EF6057
:100A9000F3EA30E702F404C3995079EAF4250A0432
:100AA00030E701E404F50A800D120C6E60C1EA051E
:100AB0000A250A1200CEEA900138F030E701E42559
:100AC0000A04D50A0420050114120C8CE4C0E012BB
:100AD0000D16900138E0601320E70714F01209109A
:100AE000802204F0D0E014C0E07F00120910E50A73
:100AF0006007120907150A800B300503120907D099
:100B0000E0020962D0E00480C4120C6E609EE50A27
:100B1000041200CE900138EAF0E50A2005026001D7
:100B2000042404120C8C74FF04C0E0120D16120988
:100B300010E50A2005026003120907D0E0B50AE8B3
:100B40007F4512091A900138E07F2B30E7047F2D92
:100B5000F404C0E0120928D0E075F00A84C0F01255
:100B60000911D0E012091102096279108002790896
:100B7000C206C2088008D2D5790A8004790AC2D593
:100B8000E50A047002F50AE4FAFDFEFF1208E5FC2E
:100B90007B082001131208E5FD7B1030000A1208C3
:100BA000E5FE1208E5FF7B20EC3382D592D5501389
:100BB000C3E43000069FFFE49EFEE42001039DFD98
:100BC000E49CFCE4CBF8C201EC700CCFCECDCCE8B9
:100BD00024F8F870F38017C3EF33FFEE33FEED33E4
:100BE000FDEC33FCEB33FB994002FB0FD8E9EB3013
:100BF0000105F8D0E0C448B201C0E00AEC4D4E4F08
:100C000078207B0070C2EAB50A0040BCC0E0120C3C
:100C10008ED0F0D0E0200104C4C0E0C4B201C0F026
:100C2000120911D0F0D5F0EB02096212089209FF07
:100C3000530B6A5809D04C09CC420B6E4F0B7644CB
:100C40000B764909E5430B7C550AA9460B09450A71
:100C500073470D495009D42D09D82E09FB2B09DC07
:100C60002309F9200D322A099448000009F3E50A06
:100C7000B4FF03750A061208E5FC1208E5FD120828
:100C8000E5FE1208E5FF90013102010B790AA2D5B9
:100C9000200314300509B910020404B9080104A2A4
:100CA000D52006025001042002689202B5090050C6
:100CB00034C0E07F203003197F30A2027206720533
:100CC000500F120CE5C202C206C205C2087F308076
:100CD0000F300503E9C0E0120928300503D0E0F920
:100CE000D0E0B509CC3005177F30B9100C120928B7
:100CF0007F583004077F788003B908031209283031
:100D000002057F2D0209287F202008F87F2B20066E
:100D1000F322920280CF7F00B40700500B2431F5FC
:100D200082E43401F583E0FF22286E756C6C2900A3
:100D3000D2011208E53001F8C201780930D5010866
:100D4000F60209942D504349581208E52403B405CE
:100D5000004001E4900D4493120919743A120919E4
:100D6000D203750904020B6A43BA80E4F594F59343
:100D7000F592F591F596F595F5B4F5B3F5CAF5C983
:100D8000F5CCF5CBF5E2F5E11217BA121EA1D2AF00
:100D900090008AE0640470F8121E8D90010C74FFBC
:100DA000F0A3741FF0A3749BF0A374FFF0A3741F4F
:100DB000F0A3749EF07B017A01795312094A7B01FA
:100DC0007A0179537D017C007F017E00121BA57F93
:100DD000E87E03121B6C90010C74FFF0A3741FF0EB
:100DE000A3749BF0A374FFF0A3741FF0A374A8F086
:100DF0007B017A01795312094A7B017A0179537D8B
:100E0000017C007F027E00121BA57FE87E03121B7F
:100E10006C7F01121D0512119490014D120835B21C
:100E2000A090014DE0FCA3E0FDA3E0FEA3E0FF9055
:100E300000D51208357F907E0112164F900151EEB9
:100E4000F0A3EFF090010C74FFF0A3741FF0A374F3
:100E5000AFF0900151E0FFA3E090010FCFF0A3EFBE
:100E6000F07B017A01795312094A7BFF7A1F79B22C
:100E700090014DE0FCA3E0FDA3E0FEA3E0FF9000A5
:100E8000D61208351218257BFF7A1F79C5900151BB
:100E9000E0FFA3E09000D6CFF0A3EFF01218257B7F
:100EA000017A0179537D017C007F017E00121BA530
:100EB0007FE87E03121B6C7F01121D05020E1F903E
:100EC0000000E030E770900003E0706A900002E0FC
:100ED0007064900006E07004A3E064026003020FF7
:100EE000CF900000E0540F14601914603C2402609D
:100EF00003020FCF900005E07006900004E0601937
:100F0000020FCF90008AE0B4040C900005E0700658
:100F1000900004E06003020FCF9000CE74FFF0A3B6
:100F2000741FF0A3748E020FC190008AE0B404060F
:100F3000900005E06003020FCF900004E0FE540F24
:100F400090013DF0EE146041247F600304707E90B8
:100F5000013DE0FF74017E00A807088005C333CE81
:100F600033CED8F9FF9000D1E0FDEF5D9000CE6068
:100F70000C74FFF0A3741FF0A37490800A74FFF048
:100F8000A3741FF0A3748E803890013DE0FF7401BC
:100F90007E00A807088005C333CE33CED8F9FF9072
:100FA00000D2E0FDEF5D9000CE600C74FFF0A37402
:100FB0001FF0A37490800A74FFF0A3741FF0A37451
:100FC0008EF09000CCE4F0A37402F0800580000263
:100FD0001EE2121EB422121E117F14121E65AE07ED
:100FE000EE30E6077D807F14121E15EE20E003022E
:100FF00010C97B017A00794A7F21121B32900008C8
:10100000EFF0900162E0FBA3E0FAA3E04A4B70032B
:101010000210B9E490013DF0900008E0FF90013D1E
:10102000E0FEC39F40030210B9900162E0FBA3E021
:10103000FAA3E0F9900009E0FD3395E08D82F58395
:10104000120677FF744A2EF582E43400F583E06FD0
:101050007031900009E004F0900009E0FF3395E062
:101060008F82F5831206777047FD7F14121E15E4F8
:10107000F5F4F5DC90FE07F07F0AFE1200B275C7AA
:101080006080FE900162E0FBA3E0FAA3E0F91206A3
:101090005EFF90013DE0244AF582E43400F583E0F0
:1010A000B507089000097401F08005E4900009F08C
:1010B00090013DE004F0021018D209121EC450093C
:1010C000E4FD7F14121E15C20922900000E020E703
:1010D00003021173900003E024FE6023146039249E
:1010E0000260030211739000CE74FFF0A3741FF02E
:1010F000A3740FF09000CCE4F0A37412F08077900A
:1011000000CE74FFF0A3741FF0A37421F09000CC04
:10111000E4F0A37443F0805E900002E014602014B9
:1011200060362402704B9000CE74FFF0A3741FF061
:10113000A37464F09000CCE4F0A37404F0803790C2
:1011400000CE74FFF0A3741FF0A37468F09000CC7D
:10115000E4F0A37408F0801E9000CE74FFF0A37436
:101160001FF0A37470F09000CCE4F0A3741EF08024
:10117000058000021EE2900006E0FEA3E0FFD3908F
:1011800000CDE09F9000CCE09E4005EEF0A3EFF094
:10119000121EB4229000D5120841000000009000F9
:1011A000D912084100000000E49000D3F0A3F0122F
:1011B00015C69000D51208359000D9E0FCA3E0FDDB
:1011C000A3E0FEA3E0FF9000D5E0F8A3E0F9A3E0E0
:1011D000FAA3E0FBEF2BFFEE3AFEED39FDEC38FC15
:1011E000A31208357F647E00121B6C9000D4E004CB
:1011F000F070069000D3E004F0C39000D4E09404B3
:101200009000D3E0940040A79000D9E0FCA3E0FD5B
:10121000A3E0FEA3E0FFE47B04FAF9F812077F9055
:1012200000D91208359000D9E0FCA3E0FDA3E0FE50
:10123000A3E0FF2290008AE064047023900000E0A5
:10124000B4021C900005E07016900003E07010904E
:101250000002E07078900006E07002A3E060028077
:101260006C900004E0FE540F90013DF0EE14602DF0
:10127000247F60030470569000D1E0FF90013DE0B0
:10128000FD7401A805088002C333D8FCF45F900008
:10129000D1F07F0E121E157D407F1180249000D268
:1012A000E0FF90013DE0FD7401A805088002C33312
:1012B000D8FCF45F9000D2F07F0E121E157D807F67
:1012C00014121E15E4FD7F0E121E158003021EE28D
:1012D000121EFC2290013EEBF0A3EAF0A3E9F0A37A
:1012E000ECF0A3EDF0900146121E08E4900144F0EA
:1012F000A3F0900141E0FEA3E0FFD39440EE6480B0
:10130000948040067D407F408000900143EFF07F55
:1013100011121E65EF30E00E90014674FFF5F012D9
:1013200006DE45F070E990013EE0FBA3E0FAA3E0A1
:10133000F9900144E0FEA3E0FFE92FF9EA3EFA90BC
:101340000143121A72900143E0FFFD7C00900145B9
:10135000E02DF0900144E03CF0C3900142E09DF0AC
:10136000900141E09CF0EFC394405086D20B43AF14
:10137000802290008AE064047023900000E0B402B0
:101380001C900005E07016900003E07010900002C1
:10139000E07076900006E07002A3E06002806A9040
:1013A0000004E0FE540F90013DF0EE14602C247F09
:1013B00060030470549000D1E0FF90013DE0FD74A3
:1013C00001A805088002C333D8FC4F9000D1F07FFC
:1013D0000E121E157D107F1180239000D2E0FF9029
:1013E000013DE0FD7401A805088002C333D8FC4F1D
:1013F0009000D2F07F0E121E157D207F14121E1554
:10140000E4FD7F0E121E158003021EE2121EFC2256
:1014100090008AE064026022900000E0701C90005E
:1014200003E07016900005E07010900004E0700A70
:10143000900006E07002A3E06003021EE29000024A
:10144000E0640190008A70547404F0E49000D1F0DC
:101450009000D2F07D017F0E121E157D207F1212AA
:101460001E157D087F10121E157D027F0E121E159F
:101470007D207F12121E157D087F10121E157D0122
:101480007F0E121E15E4FD7F12121E157D087F13BC
:10149000121E15E4FD7F0E121E15800D7403F090D0
:1014A00000D174FFF09000D2F0121EFC22900103D4
:1014B000EEF0A3EFF0900108121E08E4900106F090
:1014C000A3F0900103E0FEA3E0FFD39440EE94006C
:1014D00040067D407F408000900105EFF07F1112B3
:1014E0001E65EF30E00E90010874FFF5F01206DE85
:1014F00045F070E9900106E0FEA3E0240AF97400CB
:101500003EFA7B01900105121A72900105E0FFFD81
:10151000900107E02DF0900106E03400F0C3900147
:1015200004E09FF0900103E09400F0900105E0C317
:101530009440508ED20B43AF8022787FE4F6D8FDE2
:10154000758121021581020003E493A3F8E493A3BB
:101550004003F68001F208DFF48029E493A3F854F5
:1015600007240CC8C333C4540F4420C8834004F478
:1015700056800146F6DFE4800B010204081020408B
:1015800080901D31E47E019360BCA3FF543F30E5A1
:1015900009541FFEE493A360010ECF54C025E06000
:1015A000A840B8E493A3FAE493A3F8E493A3C8C5CE
:1015B00082C8CAC583CAF0A3C8C582C8CAC583CABF
:1015C000DFE9DEE780BEC2C79000DD1208410000FF
:1015D00000002091FDE4FBEBC394187480948050CC
:1015E00042D2C79000DDE0FCA3E0FDA3E0FEA3E053
:1015F000FF78011208229000DD120835C2C7309131
:101600001F9000DDE0FCA3E0FDA3E0FEA3E02401C9
:10161000FFE43EFEE43DFDE43CFC9000DD120835B5
:101620000B80B4D2C79000DDE0FCA3E0FDA3E0FE98
:10163000A3E0FFED6480FDEC9000DD120835C2C729
:101640009000DDE0FCA3E0FDA3E0FEA3E0FF22901C
:1016500000D3EEF0A3EFF01215C69000D9120835B2
:101660009000D5E0FCA3E0FDA3E0FEA3E0FFA3E033
:10167000F8A3E0F9A3E0FAA3E0FBC31208115012AB
:101680009000D5E0FCA3E0FDA3E0FEA3E0FFA312E1
:1016900008359000D5E0F8A3E0F9A3E0FAA3E0FB59
:1016A000A3E0FCA3E0FDA3E0FEA3E0C39BFFEE9A52
:1016B000FEED99FDEC98FCC006C0079000D3E0FE5B
:1016C000A3E0FBAA06E4F9F8D007D00602077F12D0
:1016D0001E5CAE07EE30E20D54FBFD7F11121E15AD
:1016E000E49000CBF0EE30E4084480FD7F11121E40
:1016F000159000CBE024FD60471460472404704639
:10170000EE30E0427B017A0079007F20121B32909C
:101710000006E0FEA3E0FF121E24900006EEF0A3F8
:10172000EFF0900000E0546024E0600B24E0600AD9
:1017300024407009021885021E40021F0B021EE29F
:1017400002174712198E22121E5CEF20E16B9000E7
:10175000CCE0FEA3E0FFD39440EE940040067D4031
:101760007F40800090013EEFF09000CEE0FBA3E0D0
:10177000FAA3E0F9900143EFF07F20121C119001D1
:101780003EE0FF7E00C39000CDE09FF09000CCE0F3
:101790009EF09000CFEE8FF01206C89000CCE07063
:1017A00002A3E0700D7D0A7F11121E15E49000CB9C
:1017B000F0227D027F11121E152253B2FC43B103A9
:1017C00090FE077480F090FE07E030E0F9E4F5DC6D
:1017D00075F490FDFF121E157D087F01121E157D08
:1017E0003F7F07121E157D3F7F09121E157D077F63
:1017F0000B121E15E4FD7F01121E1590008A740263
:10180000F0E49000CBF09000D1F0A3F090016B12C7
:10181000084100C20100E490016FF0A3F0A3740836
:10182000F043AF80229000D3EBF0A3EAF0A3E9F0FD
:101830009000FE7401F0A37400F0A374D6F0900041
:10184000D3E0F9A3E0FAA3E0900103C9F0A3EAF022
:10185000A3E9F09000FEE0F9A3E0FAA3E09001060E
:10186000C9F0A3EAF0A3E9F07B017A00790A121A21
:1018700028900101EEF0A3EFF01214AD900101E009
:10188000FEA3E0FF22900001E0B40D00504F90183D
:1018900095F82828730218BC0218BF0218DD021838
:1018A000C20218DD0218C50218C80218CB0218CEF1
:1018B0000218D10218D40218D70218DA020EBF0299
:1018C000123402137202193D0210CA0200080218F3
:1018D000E1021410021AB4021D5B021F08121EE27C
:1018E00022900000E064807024900003E0701E905D
:1018F0000002E07018900005E07012900004E070A3
:101900000C900006E07004A3E064016003021EE294
:1019100090008AE09000CEB4040C74FFF0A3741F12
:10192000F0A37490800A74FFF0A3741FF0A3748E68
:10193000F09000CCE4F0A304F0121EB4229000005A
:10194000E07025900005E0701F900004E070199091
:101950000003E07013900002E0C39480500A9000EE
:1019600006E07002A3E06003021EE2900002E09035
:10197000013DF0FDE4FF121E1590013DE090008A4C
:1019800060057403F080037402F0121EFC22121E24
:101990005CEF30E0479000CEE0FBA3E0FAA3E0F973
:1019A0007F20121B32EFFDC39000CDE09DF0900030
:1019B000CCE09400F09000CFE48FF01206C89000C5
:1019C000CCE07002A3E0700D7D487F11121E15E47B
:1019D0009000CBF0227D407F11121E1522C0E0C086
:1019E000F0C083C082C0D075D000C000C004C00564
:1019F000C006C007900172E0FCA3E0FDA3E0FEA3D7
:101A0000E02401FFE43EFEE43DFDE43CFC90017275
:101A1000120835D007D006D005D004D000D0D0D0E1
:101A200082D083D0F0D0E032900103E0FFA3E0FE4B
:101A3000A3E0CF90010CF0A3EEF0A3EFF09001062D
:101A4000E0CBF0A3E0CAF0A3E0C9F07F2290010F41
:101A5000AD82AC8312065E8D828C83F0A309E9709F
:101A6000010ADFEC900106E0FBA3E0FAA3E0F90233
:101A7000094AE0FD90014C7401F0900148EBF0A39D
:101A8000EAF0A3E9F0AE05AF061EEF602090014C2E
:101A9000E02420FF900148E0FBA3E475F00112066A
:101AA000DEA9F0FA12065EFD121E1580DA7D017FB6
:101AB00011021E1590008AE0B4041D900000E0B4ED
:101AC0008116900003E07010900005E0700AA3E01A
:101AD0007004A3E064016003021EE29000CE74FF74
:101AE000F0A3741FF0A3748EF09000CCE4F0A30474
:101AF000F0121EB422E4FDFF121E1590008A74023B
:101B0000F0E49000CBF00D7F0E121E157D487F1182
:101B1000121E157D027F0E121E157D487F11121EAA
:101B200015121E117D907F14121E15E4FD7F0E020A
:101B30001E1590013EEBF0A3EAF0A3E9F0AE077F9B
:101B400016121E65AD07AC05AF051DEF601BAF0695
:101B5000121E6590013EE0FBA3E475F0011206DE63
:101B6000A9F0FAEF1206A480DFAF0422E4FCFD9096
:101B70000172E0F8A3E0F9A3E0FAA3E02FFFEA3E48
:101B8000FEED39FDEC38FC9000DD120835121ED355
:101B90009000DDE0F8A3E0F9A3E0FAA3E0FBD312A4
:101BA000081150E9229000D3EBF0A3EAF0A3E9F08A
:101BB000121BDCE49000D6F09000D3E0FBA3E0FA27
:101BC000A3E0F9A3E0F582758300120677FF600BAE
:101BD000121CD99000D6E004F080DD229000D9ECF0
:101BE000F0A3EDF09000D7EEF0A3EFF064014E709B
:101BF00006A3A3E01480139000D7E07004A3E06470
:101C000002700D9000D9A3E0243F4480FF121D050F
:101C100022900140EBF0A3EAF0A3E9F0AE079001B7
:101C200043E0FF14F0EF601BAF06900140E0FBA320
:101C3000E475F0011206DEA9F0FA12065EFD121E2E
:101C40001580DB2290008AE0B40408900000E06474
:101C5000216003021EE29000CE7401F0A37401F033
:101C6000A3746BF0900006E0FFA3E09000CCCFF0EF
:101C7000A3EFF0121EEF2290008AE0B40408900057
:101C800000E064A16003021EE29000CE7401F0A3A4
:101C90007401F0A3746BF0900006E0FFA3E09000E5
:101CA000CCCFF0A3EFF0121EB4227580FFC2A5D2F4
:101CB000A6D2A77F017E00121B6C9000DCE580F0AD
:101CC0007F017E00121B6CC2A77F017E00121B6C7D
:101CD0009000DCE0548070D9229000D7EFF0121C05
:101CE000AAD2A5C2A67F017E00121B6C9000D7E08D
:101CF000F5807F017E00121B6CD2A77F017E00124F
:101D00001B6CC2A7229000DBEFF0121CAAC2A5C276
:101D1000A67F017E00121B6C9000DBE0F5807F0146
:101D20007E00121B6CD2A77F017E00121B6CC2A723
:101D30002243016800000043016500000043016286
:101D4000FF1F92420151000044014D000000004479
:101D5000017200000000410009000090008AE0B418
:101D6000041B900000E0B40114900003E0700E909A
:101D70000005E07008A3E07002A3E06003021EE229
:101D8000121EFC22EFB40A07740D121D8F740A3064
:101D90009811A899B8130CC2983098FDA899C298C8
:101DA000B811F63099FDC299F599227D01121E5E97
:101DB000AE07EE30E5077D407F11121E15EE30E2D2
:101DC00007E4FD7F11121E15C20B22EF1FAC067037
:101DD000011E4C6014000000000000000000000024
:101DE0000000000000000080E2227D02121E5EAEB4
:101DF00007EE30E5077D407F11121E15EE30E20739
:101E0000E4FD7F11121E1522E4F0A374C8F053AF55
:101E10007F7D017F0EE5FC20E7FBEF547FF5FCAFF3
:101E2000058FEC2290013DEEF0A3EFF0E0A3F090DF
:101E3000013DE0900140F090013FE0FEA3E0FF2271
:101E4000900001E024DF600A14600A240270090295
:101E50001C44021C77021E77121EE222E4FD7F0E54
:101E6000121E157F11E5FC20E7FBEF4480F5FCE531
:101E7000FC20E7FBAFEC2290008AE0B4040890005D
:101E800000E064216003021EE2121EFC227F381271
:101E90001D057F0C121D057F06121D057F01021D09
:101EA00005538E7F5389F0758A30758CF8C28DD2B8
:101EB0008CD2A9229000CB7403F07D407F11121EBA
:101EC000150217477BFF7A1F79D27D027C00121220
:101ED000D4D322900172E0FCA3E0FDA3E0FEA3E0D6
:101EE000FF229000CB7405F07D607F11021E1590DB
:101EF00000CB7404F07D407F11021E15E49000CBEE
:101F0000F07D487F11021E15021EE2021EE222121F
:101F100001000202000040BF3402FF000101020084
:101F2000010902430002010080320904000001029D
:101F3000020100052400100105240100010424020F
:101F4000020524060001070582034000FF09040181
:101F500000020A0000000705810240000007050199
:101F60000240000004030904080353005400430026
:101F70001E0353005400430020005500530042004C
:101F80002000530065007200690061006C000000D1
:101F900001004053544349535023002573004C69BA
:101FA0006E5A68694B61690030323331383500252B
:101FB00064007765696768745F62617365203D20BE
:101FC000256C750A00776569676874203D20256473
:051FD0000A006F6B0028
:00000001FF
