:1000000002182512170480FE022347021D99C0E042
:10001000C0F0C083C082C0D075D000C000C001C095
:1000200002C003C004C005C006C00790013CE5FC47
:10003000F07F061222CA900139EFF07F021222CA25
:10004000A3EFF07F041222CAA3EFF0900139E03051
:10005000E1031200CA900139E030E203121EF5906C
:10006000013AE030E003121A3590013AE030E10342
:100070001221D390013AE030E20312224F90013B6B
:10008000E030E10312122D900139E030E003122339
:100090007390013CE0F5FCD007D006D005D004D029
:1000A00003D002D001D000D0D0D082D083D0F0D005
:1000B000E032AB07AA06EB1BAE0270011A4E6009D4
:1000C0007FE87E0312221280ED222202000EF92028
:1000D000E73624F950037907E4F42402FBE582159E
:1000E0008270021583DBF6E024FB501BE96014E408
:1000F000F0E582158270021583E004F0B40A08E48A
:10010000F0D9EE7401F00A22C2D522ED33EC33921D
:10011000D5FA602AB4FF33EDC2E77BFF60067A01AF
:100120007930E4227A01793920D5047A01793422B0
:100130004E614E002B494E46002D494E4600E47A52
:1001400008F0A3DAFC7B00740722C083C082ECC0F5
:10015000E0EDC0E0EEC0E0EFC0E0EA75F010A4CA48
:10016000ABF075F04DA42BFBE435F0FCEA2410FA5B
:10017000EB34C5FBEC34D9FCEDC2E7FF75F056A4B7
:10018000F42411C5F0F434C58FF0A42AE5F03BE463
:100190003CF020E7141204DED0E0FFD0E0FED0E017
:1001A000FDD0E0FC1204118014F4041204DED0E04F
:1001B000FFD0E0FED0E0FDD0E0FC120308D082D0FA
:1001C00083E0FAEDD2E7CD33EC332482FBE4C3CFF6
:1001D00033CFCE33CECD33CD33DBF37B0775F00A8F
:1001E000846004F0A31B0AE5F0F0A38FF0740AA466
:1001F000FFACF08EF0740AA42CFEACF050010C8D14
:10020000F0740AA42CFDE435F0F0A3DBDE740722C1
:10021000020553E86480F8E933E83360110460F0C4
:10022000ED33EC337009E8FCE9FDEAFEEBFF220454
:1002300060DED3EB9FEA9EE99DE8C2E78CF0C2F74F
:1002400095F0400CE8CCF8E9CDF9EACEFAEBCFFB1B
:1002500012051E85D0F05804700320D5B3E8047051
:10026000075002B2D502055D92D5EC0460F7E4CCEC
:10027000C0E0C398F8603B94186008400DD0E0FBE4
:10028000020535E4FBFAC9FC8028E830E406E4C93D
:10029000FBE4CAFCE830E305E4C9CACBFCE8540738
:1002A0006010F8C3E913F9EA13FAEB13FBEC13FC43
:1002B000D8F130F52FC3E49CFCEF9BFFEE9AFEEDE6
:1002C00099FDD0E0FBEF4E4D4C701222DB0302058E
:1002D0005AEC2CFCEF33FFEE33FEED33FDED30E74F
:1002E000EB020535EF2BFFEE3AFEED39FDD0E0FBDA
:1002F00050130BBB000302055DED13FDEE13FEEF83
:1003000013FFEC13FC020535EC4D6011E849701742
:10031000ED33EC3304600DE4FCFFFEFD22E933E82D
:10032000330470F802055312051E58046009E4CC2A
:100330002481500628500902055D28400302055A11
:10034000C0E0EB4A7044B98006D0E0FB020549EFFB
:100350004E701CBD8008EBFFEAFEE9FD80EBE98DE5
:10036000F0A4FEE5F00203F1E9CDF9EAFEEBFFEFC0
:1003700089F0A4FCE5F0CE89F0A42EFFE435F0CDA1
:1003800089F0A42DFEE435F08067EF4E7005BD8046
:10039000D780C3EF8BF0A4ACF0EE8BF0A42CFCE480
:1003A00035F0F8EF8AF0A42CE5F038FCE433CB8D7F
:1003B000F0A42CFCE5F03BF8EE8AF0A42CFCE5F070
:1003C00038F8E433CF89F0A42CFCE5F038CF3400C2
:1003D000CE89F0A42FFFE5F03EFEE433C98DF0A4F2
:1003E0002EFEE5F039CD8AF0A42FFFE5F03EFEE4C5
:1003F0003DFD33D0E0FB50070BBB000F02055DEC69
:100400002CFCEF33FFEE33FEED33FD020535020524
:100410005DEC5D046005E8590470030205531205A4
:100420001E580460F6EC4860F2EC7004FDFEFF22FA
:10043000C860DB2481C85009C398600250060205D9
:100440005A9850CAF582E9294B4A7005AB820205D9
:100450004975F0007C1A7880C3EF9BEE9AED9940C5
:100460000DC3EF9BFFEE9AFEED99FDE842F0DC2311
:10047000ACF0D0E0FFD0E0FED0E0FDAB8220E71092
:100480001BEB60BAEC2CFCEF33FFEE33FEED33FDDB
:10049000020535E803F830E705C0F075F000EF2FEE
:1004A000FFEE33FEED33FD40B830E7C280AA3F8057
:1004B00000004120000042C80000447A0000461CB1
:1004C000400047C35000497424004B1896804CBE2E
:1004D000BC205A0E1BCA6753C21C749DC5AEFB607C
:1004E000065407601C232312050CEB5438600912D4
:1004F00004F8120507120308ECF8EDF9EEFAEFCB59
:1005000022EB12050780F1543803241C9004AEFE40
:1005100093FC0EEE93FD0EEE930ECE93FF22E9D2E6
:10052000E7C933E833F892D5EDD2E7CD33EC33FCAD
:100530005002B2D522EC30E7100FBF000C0EBE0007
:10054000080DBD00040BEB6014A2D5EB13FCED927B
:10055000E7FD2274FFFCFDFEFF22E480F8A2D574C3
:10056000FF13FC7D80E480EFE709F608DFFA8046A0
:10057000E709F208DFFA803E88828C83E709F0A35E
:10058000DFFA8032E309F608DFFA8078E309F2083F
:10059000DFFA807088828C83E309F0A3DFFA80643D
:1005A00089828A83E0A3F608DFFA805889828A83E9
:1005B000E0A3F208DFFA804C80D280FA80C680D4B3
:1005C000806980F28033801080A680EA809A80A8BB
:1005D00080DA80E280CA803389828A83ECFAE493ED
:1005E000A3C8C582C8CCC583CCF0A3C8C582C8CC7B
:1005F000C583CCDFE9DEE7800D89828A83E493A39B
:10060000F608DFF9ECFAA9F0EDFB2289828A83EC87
:10061000FAE0A3C8C582C8CCC583CCF0A3C8C58204
:10062000C8CCC583CCDFEADEE880DB89828A83E43C
:1006300093A3F208DFF980CC88F0EF60010E4E60E2
:10064000C388F0ED2402B4040050B9F582EB240213
:10065000B4040050AF23234582239005B873BB0137
:100660000689828A83E0225002E722BBFE02E3224F
:1006700089828A83E49322BB010CE58229F582E515
:10068000833AF583E0225006E92582F8E622BBFE94
:1006900006E92582F8E222E58229F582E5833AF52A
:1006A00083E49322BB010689828A83F0225002F7F9
:1006B00022BBFE01F322EF8DF0A4A8F0CF8CF0A4B2
:1006C00028CE8DF0A42EFE22BC000BBE0029EF8D9B
:1006D000F084FFADF022E4CCF875F008EF2FFFEEC8
:1006E00033FEEC33FCEE9DEC984005FCEE9DFE0FD6
:1006F000D5F0E9E4CEFD22EDF8F5F0EE8420D21C31
:10070000FEADF075F008EF2FFFED33FD4007985078
:1007100006D5F0F222C398FD0FD5F0EA22C5F0F815
:10072000A3E028F0C5F0F8E582158270021583E099
:1007300038F022A3F8E0C5F025F0F0E582158270CC
:10074000021583E0C838F0E822E88FF0A4CC8BF0E3
:10075000A42CFCE98EF0A42CFC8AF0EDA42CFCEA7D
:100760008EF0A4CDA8F08BF0A42DCC3825F0FDE9B7
:100770008FF0A42CCD35F0FCEB8EF0A4FEA9F0EBAD
:100780008FF0A4CFC5F02ECD39FEE43CFCEAA42DB9
:10079000CE35F0FDE43CFC2275F008758200EF2FA9
:1007A000FFEE33FECD33CDCC33CCC58233C5829B37
:1007B000ED9AEC99E58298400CF582EE9BFEED9A5D
:1007C000FDEC99FC0FD5F0D6E4CEFBE4CDFAE4CCF9
:1007D000F9A88222B800C1B90059BA002DEC8BF0FB
:1007E00084CFCECDFCE5F0CBF97818EF2FFFEE33B8
:1007F000FEED33FDEC33FCEB33FB10D703994004E3
:10080000EB99FB0FD8E5E4F9FA227818EF2FFFEE09
:1008100033FEED33FDEC33FCC933C910D7059BE93A
:100820009A4007EC9BFCE99AF90FD8E0E4C9FAE496
:10083000CCFB2275F010EF2FFFEE33FEED33FDCC35
:1008400033CCC833C810D7079BEC9AE899400AED1F
:100850009BFDEC9AFCE899F80FD5F0DAE4CDFBE4C7
:10086000CCFAE4C8F922EB9FF5F0EA9E42F0E99D4C
:1008700042F0E89C45F022E8600FEFC333FFEE330F
:10088000FEED33FDEC33FCD8F122ECF0A3EDF0A348
:10089000EEF0A3EFF022A8828583F0D083D08212FD
:1008A00008AD1208AD1208AD1208ADE473E493A3CD
:1008B000C583C5F0C583C8C582C8F0A3C583C5F08C
:1008C000C583C8C582C822F8E0FBA3A3E0F925F0E0
:1008D000F0E582158270021583E0FA38F022EBF021
:1008E000A3EAF0A3E9F022D083D082F8E493701257
:1008F000740193700DA3A393F8740193F582888318
:10090000E4737402936860EFA3A3A380DFEC8EF01E
:10091000A4CCC5F0CCCDF8EFA4CEC5F02DFDE43CC1
:10092000FCE8A42EC8C5F03DFDE43CFCEFA4FFE5C7
:10093000F028FEE43DFDE43CFC22E508240CF582B1
:10094000E43401F583E005082290010930070390A3
:10095000010CE475F0011208C702065E2000E97F71
:100960002ED2008018EF540F2490D43440D4FF309E
:10097000040BEF24BFB41A0050032461FFE50960A3
:10098000021509050CE50C7002050B30070E9001ED
:1009900009E475F0011208C7EF0206A40221AC7445
:1009A00003D2078003E4C207F5089001091208DEAC
:1009B000E4F509F50BF50CE50960077F2012097DC8
:1009C00080F5750AFFC201C200C202C203C205C29D
:1009D00006C208120949FF700D3007057F00120991
:1009E0008EAF0CAE0B22B4255FC2D5C204120949EA
:1009F000FF24D0B40A00501A75F00A780930D505E2
:100A000008B6FF0106C6A426F620D5047002D2035C
:100A100080D924CFB41A00EF5004C2E5D204020CEE
:100A200080D20180C6D20080C0D20280BCD2D580E4
:100A3000BAD20580B47F2012097D2002077401B567
:100A4000090040F112093AFF12097D0209B7D208E4
:100A5000D206809512093AFB12093AFA12093AF9BC
:100A60004A4B7006797E7A0D7BFF20022EE50960E5
:100A70002A7E008E8275830012067760060EEE6570
:100A80000A70F0C2D5EBC0E0EAC0E0E9C0E0EE12C7
:100A90000CE1D0E0F9D0E0FAD0E0FB12065EFF6096
:100AA000AAEBC0E0EAC0E0E9C0E012097DD0E02492
:100AB00001F9D0E03400FAD0E0FBE50A0460DCD5AF
:100AC0000AD98087D20280A2120CC360F7E50A70AF
:100AD00001041200CEA90A600DE50A600914F50AA6
:100AE000120D6BEF60F3EA30E702F404C39950791A
:100AF000EAF4250A0430E701E404F50A800D120C3B
:100B0000C360C1EA050A250A1200CEEA900138F056
:100B100030E701E4250A04D50A0420050114120C6B
:100B2000E1E4C0E0120D6B900138E0601320E707AC
:100B300014F0120965802204F0D0E014C0E07F00B8
:100B4000120965E50A600712095C150A800B300579
:100B50000312095CD0E00209B7D0E00480C4120C93
:100B6000C3609EE50A041200CE900138EAF0E50A5F
:100B70002005026001042404120CE174FF04C0E0AB
:100B8000120D6B120965E50A200502600312095C6B
:100B9000D0E0B50AE87F4512096F900138E07F2B5D
:100BA00030E7047F2DF404C0E012097DD0E075F039
:100BB0000A84C0F0120966D0E01209660209B7790A
:100BC0001080027908C206C2088008D2D5790A804E
:100BD00004790AC2D5E50A047002F50AE4FAFDFEBA
:100BE000FF12093AFC7B0820011312093AFD7B1021
:100BF00030000A12093AFE12093AFF7B20EC3382D8
:100C0000D592D55013C3E43000069FFFE49EFEE466
:100C10002001039DFDE49CFCE4CBF8C201EC700CC8
:100C2000CFCECDCCE824F8F870F38017C3EF33FFB4
:100C3000EE33FEED33FDEC33FCEB33FB994002FB6E
:100C40000FD8E9EB300105F8D0E0C448B201C0E0AC
:100C50000AEC4D4E4F78207B0070C2EAB50A004086
:100C6000BCC0E0120CE3D0F0D0E0200104C4C0E02E
:100C7000C4B201C0F0120966D0F0D5F0EB0209B79A
:100C80001208E70A54530BBF580A254C0A21420B9D
:100C9000C34F0BCB440BCB490A3A430BD1550AFE49
:100CA000460B5E450AC8470D9E500A292D0A2D2E77
:100CB0000A502B0A31230A4E200D872A09E94800E1
:100CC000000A48E50AB4FF03750A0612093AFC1245
:100CD000093AFD12093AFE12093AFF900131020168
:100CE0000B790AA2D5200314300509B910020404B7
:100CF000B9080104A2D5200602500104200268921E
:100D000002B509005034C0E07F203003197F30A2C3
:100D10000272067205500F120D3AC202C206C205D7
:100D2000C2087F30800F300503E9C0E012097D3032
:100D30000503D0E0F9D0E0B509CC3005177F30B914
:100D4000100C12097D7F583004077F788003B908A2
:100D50000312097D3002057F2D02097D7F202008C6
:100D6000F87F2B2006F322920280CF7F00B4070089
:100D7000500B2431F582E43401F583E0FF22286E24
:100D8000756C6C2900D20112093A3001F8C2017861
:100D90000930D50108F60209E92D504349581209D6
:100DA0003A2403B405004001E4900D999312096EB2
:100DB000743A12096ED203750904020BBF7BFF7AE5
:100DC0002379A47D017C007F027E00121FA57BFF9A
:100DD0007A23799E7D0F7C007F027E00121FA57B07
:100DE000FF7A2379E47D017C007F017E00121FA53C
:100DF0007BFF7A2379EC7D0C7C007F017E00121F43
:100E0000A57BFF7A23799E7D107C007F017E0012F6
:100E10001FA590014FE0FCA3E0FDA3E0FEA3E0FFCF
:100E20009000D512088A7F907E0112193A900153E2
:100E3000EEF0A3EFF090010C74FFF0A37423F0A385
:100E400074A0F0A3EEF0A3EFF07B017A01795B12BE
:100E5000099F7B017A01795B7D0A7C007F027E001D
:100E6000121FA5D3900154E09400900153E0940028
:100E700050117BFF7A2379CD7D0A7C007F027E00B2
:100E8000121FA590010C74FFF0A37423F0A374EE5D
:100E9000F0900157E0FFA3E090010FCFF0A3EFF037
:100EA0007B017A01795B12099F7B017A01795B7D75
:100EB0000D7C007F017E00121FA5900157E070029B
:100EC000A3E0700F7BFF7A2379F27D0DFC7F01FE9A
:100ED000121FA5900157E0FCA3E0FD4C70089001A3
:100EE00078F0A3F08013900153E0FEA3E0FF120618
:100EF000C8900178EEF0A3EFF07BFF7A2379C090E1
:100F00000153E0FFA3E09000D6CFF0A3EFF0121B57
:100F10008B7BFF7A2379F6900157E0FFA3E09000E6
:100F2000D6CFF0A3EFF0121B8B7BFF7A24790990C8
:100F30000178E0FFA3E09000D6CFF0A3EFF0121B02
:100F40008BC3900179E09464900178E094004006AE
:100F5000E4F0A37464F090010C74FFF0A37423F028
:100F6000A374EEF0900178E0FFA3E090010FCFF0C2
:100F7000A3EFF07B017A01795B12099F7B017A0173
:100F8000795B7D087C007F017E00121FA5900178AF
:100F9000E07002A3E0700F7BFF7A2379F27D08FCFA
:100FA0007F01FE121FA522122338A804A905AA0654
:100FB000AB07900174E0FCA3E0FDA3E0FEA3E024F6
:100FC000F4FFEE3401FEE43DFDE43CFCD312086680
:100FD000500302111512233890017412088A7BFF06
:100FE0007A2379997D017C007F017E00121FA57B09
:100FF000FF7A23799E7D0A7C007F017E00121FA567
:1010000090010C74FFF0A37423F0A374A0F090017E
:1010100059E0FFA3E090010FCFF0A3EFF07B017A3E
:1010200001795B12099F7B017A01795B7D057C0068
:101030007F017E00121FA57BFF7A2379A47D017CAE
:10104000007F027E00121FA57BFF7A23799E7D0F11
:101050007C007F027E00121FA590014FE0FCA3E000
:10106000FDA3E0FEA3E0FF9000D512088A7F907EEA
:101070000112193A900159E0FCA3E0FDC3EF9DFF76
:10108000EE9C900155F0A3EFF07BFF7A2379AD90B1
:10109000014FE0FCA3E0FDA3E0FEA3E0FF9000D63B
:1010A00012088A121B8B7BFF7A2379C0900155E0CE
:1010B000FFA3E09000D6CFF0A3EFF0121B8B9001BE
:1010C0000C74FFF0A37423F0A374A0F0900155E01A
:1010D000FFA3E090010FCFF0A3EFF07B017A01793D
:1010E0005B12099F7B017A01795B7D0A7C007F029C
:1010F0007E00121FA5D3900156E09400900155E0A8
:10110000940050117BFF7A2379CD7D0A7C007F0209
:101110007E00121FA522900000E030E770900003CF
:10112000E0706A900002E07064900006E07004A332
:10113000E064026003021226900000E0540F146085
:101140001914603C24026003021226900005E0702E
:1011500006900004E0601902122690008AE0B404B0
:101160000C900005E07006900004E0600302122677
:101170009000CE74FFF0A37424F0A3749C021218A4
:1011800090008AE0B40406900005E0600302122695
:10119000900004E0FE540F90013DF0EE14604124F5
:1011A0007F600304707E90013DE0FF74017E00A823
:1011B00007088005C333CE33CED8F9FF9000D1E0C5
:1011C000FDEF5D9000CE600C74FFF0A37424F0A3DB
:1011D000749E800A74FFF0A37424F0A3749C80387A
:1011E00090013DE0FF74017E00A807088005C3332D
:1011F000CE33CED8F9FF9000D2E0FDEF5D9000CE67
:10120000600C74FFF0A37424F0A3749E800A74FF32
:10121000F0A37424F0A3749CF09000CCE4F0A374C9
:1012200002F0800580000223471223192212227641
:101230007F141222CAAE07EE30E6077D807F1412BB
:10124000227AEE20E0030213207B017A00794A7FA4
:1012500021121F32900008EFF090016AE0FBA3E03A
:10126000FAA3E04A4B7003021310E490013DF090A2
:101270000008E0FF90013DE0FEC39F400302131011
:1012800090016AE0FBA3E0FAA3E0F9900009E0FD19
:101290003395E08D82F583120677FF744A2EF5822E
:1012A000E43400F583E06F7031900009E004F090C1
:1012B0000009E0FF3395E08F82F5831206777047CF
:1012C000FD7F1412227AE4F5F4F5DC90FE07F07F3E
:1012D0000AFE1200B275C76080FE90016AE0FBA3AF
:1012E000E0FAA3E0F912065EFF90013DE0244AF522
:1012F00082E43400F583E0B507089000097401F03A
:101300008005E4900009F090013DE004F002126FC6
:10131000D20D1223295009E4FD7F1412227AC20D46
:1013200022900000E020E7030213CA900003E024AB
:10133000FE6023146039240260030213CA9000CEB9
:1013400074FFF0A37424F0A3741DF09000CCE4F0BB
:10135000A37412F080779000CE74FFF0A37424F091
:10136000A3742FF09000CCE4F0A37443F0805E905F
:101370000002E01460201460362402704B9000CE0E
:1013800074FFF0A37424F0A37472F09000CCE4F026
:10139000A37404F080379000CE74FFF0A37424F09F
:1013A000A37476F09000CCE4F0A37408F0801E9053
:1013B00000CE74FFF0A37424F0A3747EF09000CCF0
:1013C000E4F0A3741EF0800580000223479000061D
:1013D000E0FEA3E0FFD39000CDE09F9000CCE09E24
:1013E0004005EEF0A3EFF0122319229000D5120869
:1013F00096000000009000D912089600000000E45A
:101400009000D3F0A3F01218B19000D512088A9082
:1014100000D9E0FCA3E0FDA3E0FEA3E0FF9000D52F
:10142000E0F8A3E0F9A3E0FAA3E0FBEF2BFFEE3A2C
:10143000FEED39FDEC38FCA312088A7F647E0012B1
:101440001F6C9000D4E004F070069000D3E004F02C
:10145000C39000D4E094049000D3E0940040A7909F
:1014600000D9E0FCA3E0FDA3E0FEA3E0FFE47B04E1
:10147000FAF9F81207D49000D912088A9000D9E03E
:10148000FCA3E0FDA3E0FEA3E0FF2290008AE0645D
:10149000047023900000E0B4021C900005E0701678
:1014A000900003E07010900002E07078900006E079
:1014B0007002A3E06002806C900004E0FE540F9084
:1014C000013DF0EE14602D247F60030470569000FF
:1014D000D1E0FF90013DE0FD7401A805088002C342
:1014E00033D8FCF45F9000D1F07F0E12227A7D4059
:1014F0007F1180249000D2E0FF90013DE0FD740157
:10150000A805088002C333D8FCF45F9000D2F07FB6
:101510000E12227A7D807F1412227AE4FD7F0E1251
:10152000227A80030223471223612290013EEBF0CE
:10153000A3EAF0A3E9F0A3ECF0A3EDF090014612CA
:10154000226DE4900144F0A3F0900141E0FEA3E09D
:10155000FFD39440EE6480948040067D407F4080BD
:1015600000900143EFF07F111222CAEF30E00E909D
:10157000014674FFF5F012073345F070E990013E23
:10158000E0FBA3E0FAA3E0F9900144E0FEA3E0FF52
:10159000E92FF9EA3EFA900143121E72900143E0EE
:1015A000FFFD7C00900145E02DF0900144E03CF00F
:1015B000C3900142E09DF0900141E09CF0EFC394A4
:1015C000405086D20F43AF802290008AE0640470BE
:1015D00023900000E0B4021C900005E0701690001B
:1015E00003E07010900002E07076900006E0700258
:1015F000A3E06002806A900004E0FE540F90013D79
:10160000F0EE14602C247F60030470549000D1E04D
:10161000FF90013DE0FD7401A805088002C333D8A6
:10162000FC4F9000D1F07F0E12227A7D107F118046
:10163000239000D2E0FF90013DE0FD7401A8050871
:101640008002C333D8FC4F9000D2F07F0E12227A72
:101650007D207F1412227AE4FD7F0E12227A80030D
:101660000223471223612290008AE06402602290E4
:101670000000E0701C900003E07016900005E07020
:1016800010900004E0700A900006E07002A3E06091
:1016900003022347900002E0640190008A705474B2
:1016A00004F0E49000D1F09000D2F07D017F0E12A2
:1016B000227A7D207F1212227A7D087F1012227AF0
:1016C0007D027F0E12227A7D207F1212227A7D08FF
:1016D0007F1012227A7D017F0E12227AE4FD7F12A2
:1016E00012227A7D087F1312227AE4FD7F0E1222E5
:1016F0007A800D7403F09000D174FFF09000D2F066
:101700001223612243BA80122231121B20122306B7
:10171000D2AF90008AE0640470F81222F21219BA73
:101720001213EB90014F12088A7B017A01796DA2A6
:10173000B6E433FD12218592097B017A01796DA20D
:10174000C6E433FD122185920A7B017A01796DA2EC
:10175000A3E433FD122185920B7B017A01796DA2FE
:1017600090E433FD122185920C12213190014DE05D
:10177000FEA3E0FFEE7018EF24FE600B0470101261
:101780001E2E120FA7800D1221F3120DBD80057FB2
:1017900001122105B2A08091900103EEF0A3EFF0B9
:1017A00090010812226DE4900106F0A3F09001036D
:1017B000E0FEA3E0FFD39440EE940040067D407F1E
:1017C000408000900105EFF07F111222CAEF30E057
:1017D0000E90010874FFF5F012073345F070E990A0
:1017E0000106E0FEA3E0240AF974003EFA7B0190B2
:1017F0000105121E72900105E0FFFD900107E02D2A
:10180000F0900106E03400F0C3900104E09FF090F6
:101810000103E09400F0900105E0C39440508ED2A3
:101820000F43AF8022787FE4F6D8FD75812102183E
:101830006C020003E493A3F8E493A34003F6800151
:10184000F208DFF48029E493A3F85407240CC8C3FA
:1018500033C4540F4420C8834004F456800146F634
:10186000DFE4800B0102040810204080901CA3E4F8
:101870007E019360BCA3FF543F30E509541FFEE492
:1018800093A360010ECF54C025E060A840B8E49354
:10189000A3FAE493A3F8E493A3C8C582C8CAC58396
:1018A000CAF0A3C8C582C8CAC583CADFE9DEE7801B
:1018B000BEC2C79000DD120896000000002091FD16
:1018C000E4FBEBC39418748094805042D2C790001C
:1018D000DDE0FCA3E0FDA3E0FEA3E0FF7801120839
:1018E000779000DD12088AC2C730911F9000DDE0BA
:1018F000FCA3E0FDA3E0FEA3E02401FFE43EFEE440
:101900003DFDE43CFC9000DD12088A0B80B4D2C798
:101910009000DDE0FCA3E0FDA3E0FEA3E0FFED64AA
:1019200080FDEC9000DD12088AC2C79000DDE0FC6B
:10193000A3E0FDA3E0FEA3E0FF229000D3EEF0A31E
:10194000EFF01218B19000D912088A9000D5E0FC8F
:10195000A3E0FDA3E0FEA3E0FFA3E0F8A3E0F9A36A
:10196000E0FAA3E0FBC312086650129000D5E0FC39
:10197000A3E0FDA3E0FEA3E0FFA312088A9000D538
:10198000E0F8A3E0F9A3E0FAA3E0FBA3E0FCA3E006
:10199000FDA3E0FEA3E0C39BFFEE9AFEED99FDECF4
:1019A00098FCC006C0079000D3E0FEA3E0FBAA06A7
:1019B000E4F9F8D007D0060207D490010C74FFF0C8
:1019C000A37423F0A3747DF0A374FFF0A37423F039
:1019D000A37480F07B017A01795B12099F7B017A05
:1019E00001795B7D027C007F017E00121FA57FF4E0
:1019F0007E01121F6C90010C74FFF0A37423F0A3FE
:101A0000747DF0A374FFF0A37423F0A3748FF07BB4
:101A1000017A01795B12099F7B017A01795B7D0470
:101A20007C007F027E00121FA57FD07E07121F6CF4
:101A30007F010221051222C1AE07EE30E20D54FBF8
:101A4000FD7F1112227AE49000CBF0EE30E40844DE
:101A500080FD7F1112227A9000CBE024FD604714B4
:101A6000604724047046EE30E0427B017A00790042
:101A70007F20121F32900006E0FEA3E0FF122289B1
:101A8000900006EEF0A3EFF0900000E0546024E038
:101A9000600B24E0600A24407009021BEB0222A5BF
:101AA000022370022347021AAD121D4A221222C1DC
:101AB000EF20E16B9000CCE0FEA3E0FFD39440EE7A
:101AC000940040067D407F40800090013EEFF09002
:101AD00000CEE0FBA3E0FAA3E0F9900143EFF07F32
:101AE0002012201190013EE0FF7E00C39000CDE067
:101AF0009FF09000CCE09EF09000CFEE8FF01207A8
:101B00001D9000CCE07002A3E0700D7D0A7F1112E1
:101B1000227AE49000CBF0227D027F1112227A22F9
:101B200053B2FC43B10390FE077480F090FE07E0CF
:101B300030E0F9E4F5DC75F490FDFF12227A7D08BF
:101B40007F0112227A7D3F7F0712227A7D3F7F0933
:101B500012227A7D077F0B12227AE4FD7F01122286
:101B60007A90008A7402F0E49000CBF09000D1F0FB
:101B7000A3F090017A12089600C20100E490017E61
:101B8000F0A3F0A37408F043AF80229000D3EBF0F1
:101B9000A3EAF0A3E9F09000FE7401F0A37400F052
:101BA000A374D6F09000D3E0F9A3E0FAA3E090018B
:101BB00003C9F0A3EAF0A3E9F09000FEE0F9A3E086
:101BC000FAA3E0900106C9F0A3EAF0A3E9F07B01D3
:101BD0007A00790A121DE4900101EEF0A3EFF012F1
:101BE0001798900101E0FEA3E0FF22900001E0B40D
:101BF0000D00504F901BFBF8282873021C22021C7A
:101C000025021C43021C28021C43021C2B021C2E12
:101C1000021C31021C34021C37021C3A021C3D0219
:101C20001C4002111602148B0215C9021CF9021382
:101C300021020008021C47021667021EB402215C42
:101C400002236D12234722900000E06480702490EC
:101C50000003E0701E900002E07018900005E07034
:101C600012900004E0700C900006E07004A3E064A1
:101C700001600302234790008AE09000CEB4040C78
:101C800074FFF0A37424F0A3749E800A74FFF0A381
:101C90007424F0A3749CF09000CCE4F0A304F01240
:101CA00023192243017100000043016E000000432C
:101CB000016AFF23744201530000420159000042AF
:101CC00001550000420157000044014F0000000090
:101CD0004401740000000041016D00C109C10AC146
:101CE0000BC10C420178000042014D00014401810A
:101CF000000000004100090000900000E070259005
:101D00000005E0701F900004E07019900003E0707F
:101D100013900002E0C39480500A900006E0700225
:101D2000A3E06003022347900002E090013DF0FD34
:101D3000E4FF12227A90013DE090008A600574036E
:101D4000F080037402F0122361221222C1EF30E00E
:101D5000479000CEE0FBA3E0FAA3E0F97F20121F3A
:101D600032EFFDC39000CDE09DF09000CCE09400F8
:101D7000F09000CFE48FF012071D9000CCE07002CD
:101D8000A3E0700D7D487F1112227AE49000CBF021
:101D9000227D407F1112227A22C0E0C0F0C083C0B1
:101DA00082C0D075D000C000C004C005C006C00706
:101DB000900181E0FCA3E0FDA3E0FEA3E02401FF8D
:101DC000E43EFEE43DFDE43CFC90018112088AD033
:101DD00007D006D005D004D000D0D0D082D083D098
:101DE000F0D0E032900103E0FFA3E0FEA3E0CF904B
:101DF000010CF0A3EEF0A3EFF0900106E0CBF0A30E
:101E0000E0CAF0A3E0C9F07F2290010FAD82AC835D
:101E100012065E8D828C83F0A309E970010ADFEC63
:101E2000900106E0FBA3E0FAA3E0F902099F300B62
:101E30004090014DE07004A3E06401703490014FC4
:101E4000E0FCA3E0FDA3E0FEA3E0FF9000D51208B4
:101E50008A7F907E0112193A900159EEF0A3EFF0BB
:101E60007BFF7A2379D29000D6EEF0A3EFF0121B1D
:101E70008B22E0FD90014C7401F0900148EBF0A33F
:101E8000EAF0A3E9F0AE05AF061EEF602090014C2A
:101E9000E02420FF900148E0FBA3E475F001120765
:101EA00033A9F0FA12065EFD12227A80DA7D017FF4
:101EB0001102227A90008AE0B4041D900000E0B480
:101EC0008116900003E07010900005E0700AA3E016
:101ED0007004A3E0640160030223479000CE74FF06
:101EE000F0A37424F0A3749CF09000CCE4F0A3045D
:101EF000F012231922E4FDFF12227A90008A740264
:101F0000F0E49000CBF00D7F0E12227A7D487F1115
:101F100012227A7D027F0E12227A7D487F111222D0
:101F20007A1222767D907F1412227AE4FD7F0E02CF
:101F3000227A90013EEBF0A3EAF0A3E9F0AE077F2E
:101F4000161222CAAD07AC05AF051DEF601BAF0628
:101F50001222CA90013EE0FBA3E475F001120733A0
:101F6000A9F0FAEF1206A480DFAF0422E4FCFD9092
:101F70000181E0F8A3E0F9A3E0FAA3E02FFFEA3E35
:101F8000FEED39FDEC38FC9000DD12088A12233892
:101F90009000DDE0F8A3E0F9A3E0FAA3E0FBD312A0
:101FA000086650E9229000D3EBF0A3EAF0A3E9F031
:101FB000121FDCE49000D6F09000D3E0FBA3E0FA1F
:101FC000A3E0F9A3E0F582758300120677FF600BAA
:101FD0001220D99000D6E004F080DD229000D9ECE8
:101FE000F0A3EDF09000D7EEF0A3EFF064014E7097
:101FF00006A3A3E01480139000D7E07004A3E0646C
:1020000002700D9000D9A3E0243F4480FF12210507
:1020100022900140EBF0A3EAF0A3E9F0AE079001B3
:1020200043E0FF14F0EF601BAF06900140E0FBA31C
:10203000E475F001120733A9F0FA12065EFD1222D0
:102040007A80DB2290008AE0B40408900000E0640B
:102050002160030223479000CE7401F0A37401F0C5
:10206000A3747AF0900006E0FFA3E09000CCCFF0DC
:10207000A3EFF01223542290008AE0B404089000E9
:1020800000E064A160030223479000CE7401F0A336
:102090007401F0A3747AF0900006E0FFA3E09000D2
:1020A000CCCFF0A3EFF0122319227580FFC2A5D286
:1020B000A6D2A77F017E00121F6C9000DCE580F0A5
:1020C0007F017E00121F6CC2A77F017E00121F6C71
:1020D0009000DCE0548070D9229000D7EFF01220FD
:1020E000AAD2A5C2A67F017E00121F6C9000D7E085
:1020F000F5807F017E00121F6CD2A77F017E001247
:102100001F6CC2A7229000DBEFF01220AAC2A5C26A
:10211000A67F017E00121F6C9000DBE0F5807F013E
:102120007E00121F6CD2A77F017E00121F6CC2A717
:1021300022300C277F0112210590014EE004F0703F
:102140000690014DE004F0D390014EE0940290011E
:102150004DE094004005E4F0A304F02290008AE0F2
:10216000B4041B900000E0B40114900003E0700E72
:10217000900005E07008A3E07002A3E06003022372
:102180004712236122ED7002801512065EFFC39490
:102190000A7480948040047F0A8003EF04FFEF12EA
:1021A00006A412065E6409C37001D322EFB40A07C5
:1021B000740D1221B7740A309811A899B8130CC283
:1021C000983098FDA899C298B811F63099FDC29937
:1021D000F599227D011222C3AE07EE30E5077D405E
:1021E0007F1112227AEE30E207E4FD7F1112227A8B
:1021F000C20F2230091B90014DE07004A3E064027D
:10220000700F900153E0FFA3E0900157CFF0A3EFD0
:10221000F022EF1FAC0670011E4C6014000000009D
:10222000000000000000000000000000000080E24C
:1022300022E4F594F593F592F591F596F595F5B4BC
:10224000F5B3F5CAF5C9F5CCF5CBF5E2F5E1227D9C
:10225000021222C3AE07EE30E5077D407F11122245
:102260007AEE30E207E4FD7F1112227A22E4F0A335
:1022700074C8F053AF7F7D017F0EE5FC20E7FBEFD4
:10228000547FF5FCAF058FEC2290013DEEF0A3EFFB
:10229000F0E0A3F090013DE0900140F090013FE0BC
:1022A000FEA3E0FF22900001E024DF600A14600A30
:1022B000240270090220440220770222DC12234704
:1022C00022E4FD7F0E12227A7F11E5FC20E7FBEF6E
:1022D0004480F5FCE5FC20E7FBAFEC2290008AE0AF
:1022E000B40408900000E064216003022347122335
:1022F00061227F381221057F0C1221057F061221F1
:10230000057F01022105538E7F5389F0758A307550
:102310008CF8C28DD28CD2A9229000CB7403F07DB0
:10232000407F1112227A021AAD7BFF7A24791A7D3E
:10233000027C0012152BD322900181E0FCA3E0FD6A
:10234000A3E0FEA3E0FF229000CB7405F07D607F48
:102350001102227A9000CB7404F07D407F1102229A
:102360007AE49000CBF07D487F1102227A02234765
:1023700002234722405354434953502300257300FE
:102380003230323335363033303233313835004C39
:10239000696E5A68694B6169005069203A006700AC
:1023A00025346400576569676874203A0077656969
:1023B0006768745F62617365203D20256C750A0053
:1023C000776569676874203D2025640A0020202015
:1023D00030007765696768745F74617265203D20BD
:1023E00025640A00436F756E74203A007800253327
:1023F0006400202030007765696768745F636F75DB
:102400006E74203D2025640A004974656D5F436F3A
:10241000756E74203D2025640A006F6B0012010068
:102420000202000040BF3402FF0001010200010966
:10243000024300020100803209040000010202018F
:1024400000052400100105240100010424020205F6
:1024500024060001070582034000FF090401000271
:102460000A00000007058102400000070501024044
:1024700000000403090408035300540043001E0332
:102480005300540043002000550053004200200038
:10249000530065007200690061006C0000000100DB
:00000001FF
