:10000000021BBA12132980FE0227F6022227C0E043
:10001000C0F0C083C082C0D075D000C000C001C095
:1000200002C003C004C005C006C0079001FEE5FC85
:10003000F07F061227409001FBEFF07F021227406D
:10004000A3EFF07F04122740A3EFF09001FBE03014
:10005000E1031200C29001FBE030E203122387901B
:1000600001FCE030E003121E539001FCE030E1039C
:100070001226869001FCE030E2031226C59001FDB5
:10008000E030E1031215879001FBE030E00312003D
:10009000C99001FEE0F5FCD007D006D005D004D011
:1000A00003D002D001D000D0D0D082D083D0F0D005
:1000B000E0329000CB7403F07D407F111226F002F5
:0A00C0001ECB2202276B0227F62256
:1000CB0002000EF920E73624F950037907E4F424F3
:1000DB0002FBE582158270021583DBF6E024FB50F0
:1000EB001BE96014E4F0E582158270021583E004CD
:1000FB00F0B40A08E4F0D9EE7401F00A22C2D5225A
:10010B00ED33EC3392D5FA602AB4FF33EDC2E77BC3
:10011B00FF60067A017930E4227A01793920D5041F
:10012B007A017934224E614E002B494E46002D49FF
:10013B004E4600E47A08F0A3DAFC7B00740722C079
:10014B0083C082ECC0E0EDC0E0EEC0E0EFC0E0EABF
:10015B0075F010A4CAABF075F04DA42BFBE435F091
:10016B00FCEA2410FAEB34C5FBEC34D9FCEDC2E706
:10017B00FF75F056A4F42411C5F0F434C58FF0A428
:10018B002AE5F03BE43CF020E7141204DED0E0FF5C
:10019B00D0E0FED0E0FDD0E0FC1204118014F4049A
:1001AB001204DED0E0FFD0E0FED0E0FDD0E0FC1288
:1001BB000308D082D083E0FAEDD2E7CD33EC3324C1
:1001CB0082FBE4C3CF33CFCE33CECD33CD33DBF392
:1001DB007B0775F00A846004F0A31B0AE5F0F0A31B
:1001EB008FF0740AA4FFACF08EF0740AA42CFEAC52
:1001FB00F050010C8DF0740AA42CFDE435F0F0A343
:10020B00DBDE740722020553E86480F8E933E83338
:10021B0060110460F0ED33EC337009E8FCE9FDEAA2
:10022B00FEEBFF220460DED3EB9FEA9EE99DE8C262
:10023B00E78CF0C2F795F0400CE8CCF8E9CDF9EA81
:10024B00CEFAEBCFFB12051E85D0F05804700320BD
:10025B00D5B3E80470075002B2D502055D92D5EC18
:10026B000460F7E4CCC0E0C398F8603B94186008D6
:10027B00400DD0E0FB020535E4FBFAC9FC8028E811
:10028B0030E406E4C9FBE4CAFCE830E305E4C9CA80
:10029B00CBFCE854076010F8C3E913F9EA13FAEB47
:1002AB0013FBEC13FCD8F130F52FC3E49CFCEF9B54
:1002BB00FFEE9AFEED99FDD0E0FBEF4E4D4C701228
:1002CB0022DB0302055AEC2CFCEF33FFEE33FEED81
:1002DB0033FDED30E7EB020535EF2BFFEE3AFEED8C
:1002EB0039FDD0E0FB50130BBB000302055DED1392
:1002FB00FDEE13FEEF13FFEC13FC020535EC4D6026
:10030B0011E8497017ED33EC3304600DE4FCFFFE8C
:10031B00FD22E933E8330470F802055312051E5829
:10032B00046009E4CC2481500628500902055D289D
:10033B00400302055AC0E0EB4A7044B98006D0E096
:10034B00FB020549EF4E701CBD8008EBFFEAFEE98E
:10035B00FD80EBE98DF0A4FEE5F00203F1E9CDF9A8
:10036B00EAFEEBFFEF89F0A4FCE5F0CE89F0A42EBA
:10037B00FFE435F0CD89F0A42DFEE435F08067EF76
:10038B004E7005BD80D780C3EF8BF0A4ACF0EE8B25
:10039B00F0A42CFCE435F0F8EF8AF0A42CE5F0384F
:1003AB00FCE433CB8DF0A42CFCE5F03BF8EE8AF0AB
:1003BB00A42CFCE5F038F8E433CF89F0A42CFCE551
:1003CB00F038CF3400CE89F0A42FFFE5F03EFEE4E9
:1003DB0033C98DF0A42EFEE5F039CD8AF0A42FFFA2
:1003EB00E5F03EFEE43DFD33D0E0FB50070BBB00D8
:1003FB000F02055DEC2CFCEF33FFEE33FEED33FD0E
:10040B0002053502055DEC5D046005E859047003D7
:10041B0002055312051E580460F6EC4860F2EC70AE
:10042B0004FDFEFF22C860DB2481C85009C398601D
:10043B0002500602055A9850CAF582E9294B4A70B8
:10044B0005AB8202054975F0007C1A7880C3EF9BDF
:10045B00EE9AED99400DC3EF9BFFEE9AFEED99FDE1
:10046B00E842F0DC23ACF0D0E0FFD0E0FED0E0FDC2
:10047B00AB8220E7101BEB60BAEC2CFCEF33FFEEEA
:10048B0033FEED33FD020535E803F830E705C0F028
:10049B0075F000EF2FFFEE33FEED33FD40B830E784
:1004AB00C280AA3F8000004120000042C8000044E7
:1004BB007A0000461C400047C35000497424004B8F
:1004CB001896804CBEBC205A0E1BCA6753C21C74B4
:1004DB009DC5AEFB60065407601C232312050CEB75
:1004EB00543860091204F8120507120308ECF8EDF2
:1004FB00F9EEFAEFCB22EB12050780F15438032407
:10050B001C9004AEFE93FC0EEE93FD0EEE930ECEFE
:10051B0093FF22E9D2E7C933E833F892D5EDD2E75E
:10052B00CD33EC33FC5002B2D522EC30E7100FBFC9
:10053B00000C0EBE00080DBD00040BEB6014A2D521
:10054B00EB13FCED92E7FD2274FFFCFDFEFF22E4B2
:10055B0080F8A2D574FF13FC7D80E480EFE709F6E9
:10056B0008DFFA8046E709F208DFFA803E88828CC2
:10057B0083E709F0A3DFFA8032E309F608DFFA809C
:10058B0078E309F208DFFA807088828C83E309F044
:10059B00A3DFFA806489828A83E0A3F608DFFA80FE
:1005AB005889828A83E0A3F208DFFA804C80D280DC
:1005BB00FA80C680D4806980F28033801080A68058
:1005CB00EA809A80A880DA80E280CA803389828AA6
:1005DB0083ECFAE493A3C8C582C8CCC583CCF0A343
:1005EB00C8C582C8CCC583CCDFE9DEE7800D898224
:1005FB008A83E493A3F608DFF9ECFAA9F0EDFB226A
:10060B0089828A83ECFAE0A3C8C582C8CCC583CCA7
:10061B00F0A3C8C582C8CCC583CCDFEADEE880DB9B
:10062B0089828A83E493A3F208DFF980CC88F0EF08
:10063B0060010E4E60C388F0ED2402B4040050B983
:10064B00F582EB2402B4040050AF232345822390A0
:10065B0005B873BB010689828A83E0225002E72228
:10066B00BBFE02E32289828A83E49322BB010CE561
:10067B008229F582E5833AF583E0225006E925824B
:10068B00F8E622BBFE06E92582F8E222E58229F58F
:10069B0082E5833AF583E49322BB010689828A8340
:1006AB00F0225002F722BBFE01F322EF8DF0A4A83B
:1006BB00F0CF8CF0A428CE8DF0A42EFE22BC000B24
:1006CB00BE0029EF8DF084FFADF022E4CCF875F07D
:1006DB0008EF2FFFEE33FEEC33FCEE9DEC9840055C
:1006EB00FCEE9DFE0FD5F0E9E4CEFD22EDF8F5F022
:1006FB00EE8420D21CFEADF075F008EF2FFFED332A
:10070B00FD4007985006D5F0F222C398FD0FD5F0A7
:10071B00EA22C5F0F8A3E028F0C5F0F8E5821582CF
:10072B0070021583E038F022A3F8E0C5F025F0F055
:10073B00E582158270021583E0C838F0E822E88F55
:10074B00F0A4CC8BF0A42CFCE98EF0A42CFC8AF04A
:10075B00EDA42CFCEA8EF0A4CDA8F08BF0A42DCC4C
:10076B003825F0FDE98FF0A42CCD35F0FCEB8EF0A5
:10077B00A4FEA9F0EB8FF0A4CFC5F02ECD39FEE48B
:10078B003CFCEAA42DCE35F0FDE43CFC2275F008D0
:10079B00758200EF2FFFEE33FECD33CDCC33CCC5BE
:1007AB008233C5829BED9AEC99E58298400CF582D9
:1007BB00EE9BFEED9AFDEC99FC0FD5F0D6E4CEFB4B
:1007CB00E4CDFAE4CCF9A88222B800C1B90059BA39
:1007DB00002DEC8BF084CFCECDFCE5F0CBF9781867
:1007EB00EF2FFFEE33FEED33FDEC33FCEB33FB1061
:1007FB00D703994004EB99FB0FD8E5E4F9FA22787B
:10080B0018EF2FFFEE33FEED33FDEC33FCC933C98C
:10081B0010D7059BE99A4007EC9BFCE99AF90FD896
:10082B00E0E4C9FAE4CCFB2275F010EF2FFFEE33B6
:10083B00FEED33FDCC33CCC833C810D7079BEC9AF5
:10084B00E899400AED9BFDEC9AFCE899F80FD5F07E
:10085B00DAE4CDFBE4CCFAE4C8F922EB9FF5F0EA3D
:10086B009E42F0E99D42F0E89C45F022E8600FEFD4
:10087B00C333FFEE33FEED33FDEC33FCD8F122EC4A
:10088B00F0A3EDF0A3EEF0A3EFF022A8828583F0A6
:10089B00D083D0821208AD1208AD1208AD1208AD8C
:1008AB00E473E493A3C583C5F0C583C8C582C8F0C0
:1008BB00A3C583C5F0C583C8C582C822F8E0FBA3D6
:1008CB00A3E0F925F0F0E582158270021583E0FABA
:1008DB0038F022EBF0A3EAF0A3E9F022D083D08228
:1008EB00F8E4937012740193700DA3A393F8740141
:1008FB0093F5828883E4737402936860EFA3A3A3D8
:10090B0080DFEC8EF0A4CCC5F0CCCDF8EFA4CEC537
:10091B00F02DFDE43CFCE8A42EC8C5F03DFDE43C05
:10092B00FCEFA4FFE5F028FEE43DFDE43CFC22E5F2
:10093B000D2409F582E43402F583E0050D229002C3
:10094B0006301003900209E475F0011208C7020685
:10095B005E2009E97F2ED2098018EF540F2490D422
:10096B003440D4FF300D0BEF24BFB41A00500324D6
:10097B0061FFE50E6002150E0511E5117002051001
:10098B0030100E900206E475F0011208C7EF020654
:10099B00A402263D7403D2108003E4C210F50D901F
:1009AB0002061208DEE4F50EF510F511E50E6007F0
:1009BB007F2012097D80F5750FFFC20AC209C20B99
:1009CB00C20CC20EC20FC211120949FF700D3010BA
:1009DB00057F0012098EAF11AE1022B4255FC2D570
:1009EB00C20D120949FF24D0B40A00501A75F00A3F
:1009FB00780E30D50508B6FF0106C6A426F620D51D
:100A0B00047002D20C80D924CFB41A00EF5004C268
:100A1B00E5D20D020C80D20A80C6D20980C0D20B5F
:100A2B0080BCD2D580BAD20E80B47F2012097D2033
:100A3B000B077401B50E0040F112093AFF12097D44
:100A4B000209B7D211D20F809512093AFB12093A5B
:100A5B00FA12093AF94A4B7006797E7A0D7BFF2020
:100A6B000B2EE50E602A7E008E82758300120677B0
:100A7B0060060EEE650F70F0C2D5EBC0E0EAC0E089
:100A8B00E9C0E0EE120CE1D0E0F9D0E0FAD0E0FBE7
:100A9B0012065EFF60AAEBC0E0EAC0E0E9C0E0121C
:100AAB00097DD0E02401F9D0E03400FAD0E0FBE579
:100ABB000F0460DCD50FD98087D20B80A2120CC338
:100ACB0060F7E50F7001041200CEA90F600DE50F62
:100ADB00600914F50F120D6BEF60F3EA30E702F4C7
:100AEB0004C3995079EAF4250F0430E701E404F5C7
:100AFB000F800D120CC360C1EA050F250F1200CE3B
:100B0B00EA900235F030E701E4250F04D50F0420FD
:100B1B000E0114120CE1E4C0E0120D6B900235E0F3
:100B2B00601320E70714F0120965802204F0D0E06F
:100B3B0014C0E07F00120965E50F600712095C1510
:100B4B000F800B300E0312095CD0E00209B7D0E026
:100B5B000480C4120CC3609EE50F041200CE9002F9
:100B6B0035EAF0E50F200E026001042404120CE1BB
:100B7B0074FF04C0E0120D6B120965E50F200E0225
:100B8B00600312095CD0E0B50FE87F4512096F9046
:100B9B000235E07F2B30E7047F2DF404C0E012090F
:100BAB007DD0E075F00A84C0F0120966D0E012091E
:100BBB00660209B7791080027908C20FC21180084A
:100BCB00D2D5790A8004790AC2D5E50F047002F5F3
:100BDB000FE4FAFDFEFF12093AFC7B08200A131200
:100BEB00093AFD7B1030090A12093AFE12093AFF45
:100BFB007B20EC3382D592D55013C3E43009069F8A
:100C0B00FFE49EFEE4200A039DFDE49CFCE4CBF88C
:100C1B00C20AEC700CCFCECDCCE824F8F870F38080
:100C2B0017C3EF33FFEE33FEED33FDEC33FCEB3349
:100C3B00FB994002FB0FD8E9EB300A05F8D0E0C472
:100C4B0048B20AC0E00AEC4D4E4F78207B0070C2D0
:100C5B00EAB50F0040BCC0E0120CE3D0F0D0E020AE
:100C6B000A04C4C0E0C4B20AC0F0120966D0F0D5C1
:100C7B00F0EB0209B71208E70A54530BBF580A25C9
:100C8B004C0A21420BC34F0BCB440BCB490A3A43C3
:100C9B000BD1550AFE460B5E450AC8470D9E500AFE
:100CAB00292D0A2D2E0A502B0A31230A4E200D878F
:100CBB002A09E94800000A48E50FB4FF03750F063F
:100CCB0012093AFC12093AFD12093AFE12093AFFCF
:100CDB0090022E02010B790AA2D5200C14300E09BA
:100CEB00B910020404B9080104A2D5200F02500167
:100CFB0004200B68920BB50E005034C0E07F2030FF
:100D0B000C197F30A20B720F720E500F120D3AC2DC
:100D1B000BC20FC20EC2117F30800F300E03E9C021
:100D2B00E012097D300E03D0E0F9D0E0B50ECC30E7
:100D3B000E177F30B9100C12097D7F58300D077FCD
:100D4B00788003B9080312097D300B057F2D02094A
:100D5B007D7F202011F87F2B200FF322920B80CF69
:100D6B007F00B40700500B242EF582E43402F58388
:100D7B00E0FF22286E756C6C2900D20A12093A30FA
:100D8B000AF8C20A780E30D50108F60209E92D508F
:100D9B0043495812093A2403B405004001E4900D6D
:100DAB00999312096E743A12096ED20C750E0402E5
:100DBB000BBF7BFF7A28794B7D017C007F027E0085
:100DCB001224377BFF7A2879497D0F7C007F027EC6
:100DDB00001224377BFF7A28798F7D017C007F01FD
:100DEB007E001224377BFF7A2879977D0C7C007F5D
:100DFB00017E001224377BFF7A2879497D107C0015
:100E0B007F017E001224371227D9A804A905AA0650
:100E1B00AB07900167E0FCA3E0FDA3E0FEA3E02499
:100E2B00F4FFEE3401FEE43DFDE43CFCD312086616
:100E3B00407890015BE0FCA3E0FDA3E0FEA3E0FFA4
:100E4B0090019712088A900185E0FEA3E0FF121D26
:100E5B005890015FEEF0A3EFF07BFF7A28796B904F
:100E6B00015FE0FFA3E0900198CFF0A3EFF0122019
:100E7B00147BFF7A287999900163E0FFA3E090013E
:100E8B0098CFF0A3EFF01220147BFF7A2879AC9067
:100E9B000193E0FFA3E0900198CFF0A3EFF01220B5
:100EAB00141227D990016712088A90020974FFF077
:100EBB00A37428F0A37454F090015FE0FFA3E090BB
:100ECB00020CCFF0A3EFF07B017A01796F12099F2F
:100EDB007B017A01796F7D0A7C007F027E001224F0
:100EEB0037D3900160E0940090015FE094005011C3
:100EFB007BFF7A2879787D0A7C007F027E001224A2
:100F0B0037900163E07002A3E070187BFF7A2879B9
:100F1B00BD7D0DFC7F01FE122437E4900193F0A3FD
:100F2B00F0801B900163E0FCA3E0FD90015FE0FE0D
:100F3B00A3E0FF1206C8900193EEF0A3EFF090022E
:100F4B000974FFF0A37428F0A374C1F0900163E05F
:100F5B00FFA3E090020CCFF0A3EFF07B017A0179B5
:100F6B006F12099F7B017A01796F7D0D7C007F01E8
:100F7B007E00122437C3900194E09464900193E0B7
:100F8B0094004006E4F0A37464F090020974FFF03F
:100F9B00A37428F0A374C1F0900193E0FFA3E09039
:100FAB00020CCFF0A3EFF07B017A01796F12099F4E
:100FBB007B017A01796F7D087C007F017E00122412
:100FCB0037900193E07002A3E0700F7BFF7A2879D2
:100FDB00BD7D08FC7F01FE122437227BFF7A287926
:100FEB004B7D017C007F027E0012243790015BE079
:100FFB00FCA3E0FDA3E0FEA3E0FF90019712088A9B
:10100B00900185E0FEA3E0FF121D5890015FEEF00A
:10101B00A3EFF090020974FFF0A37428F0A37454AB
:10102B00F0A3EEF0A3EFF07B017A01796F12099F29
:10103B007B017A01796F7D0A7C007F027E0012248E
:10104B00377BFF7A2879497D0F7C007F027E001267
:10105B0024377BFF7A2879C57D017C007F017E00D8
:10106B0012243790020974FFF0A37428F0A374C103
:10107B00F0900183E0FFA3E090020CCFF0A3EFF020
:10108B007B017A01796F12099F7B017A01796F7D60
:10109B000C7C007F017E001224377BFF7A28794974
:1010AB007D107C007F017E00122437900183E0FAD3
:1010BB00A3E0FB90015FE0FEA3E0FFAD03AC0212E7
:1010CB0006C890018BEEF0A3EFF0EB4A700690018F
:1010DB008BF0A3F0900183E0FEA3E0FF90015FE0B3
:1010EB00FCA3E0FDD39FEC9E50030211B4ED4C70BA
:1010FB00030211B41227D9C004C005C006C0079063
:10110B000184E02432FD900183E03400FC90015F08
:10111B00E0FEA3E0FF1206C87C007D641206B6E475
:10112B00FDC004C005C006AB0790017EE0FEA3E046
:10113B00FF900187E0F8A3E0F9A3E0FAA3E02FFF0B
:10114B00EA3EFEED39FDEC38FCD002D001D000C3F5
:10115B00EF9BFBEE9AFAED99F9EC98F8D007D006D5
:10116B00D005D004C31208665043B2A4B2B4C2A0D7
:10117B007BFF7A2879D190015FE0FFA3E090019883
:10118B00CFF0A3EFF01220147BFF7A2879DF9001C8
:10119B0083E0FFA3E0900198CFF0A3EFF0122014AF
:1011AB001227D990018702088AD2A4D2B4227BFFDE
:1011BB007A2879447D017C007F017E001224377BE5
:1011CB00FF7A2879497D0A7C007F017E0012243743
:1011DB007BFF7A28794B7D017C007F027E001224F5
:1011EB00377BFF7A2879497D0F7C007F027E0012C6
:1011FB00243790020974FFF0A37428F0A37454F001
:10120B00900165E0FFA3E090020CCFF0A3EFF07B21
:10121B00017A01796F12099F7B017A01796F7D0544
:10122B007C007F017E001224371227D9A804A90560
:10123B00AA06AB07900167E0FCA3E0FDA3E0FEA3C9
:10124B00E024F4FFEE3401FEE43DFDE43CFCD3125C
:10125B000866407290015BE0FCA3E0FDA3E0FEA3F7
:10126B00E0FF90019712088A900185E0FEA3E0FF52
:10127B00121D58900165E0FCA3E0FDC3EF9DFFEE4E
:10128B009C900161F0A3EFF07BFF7A2879589001D5
:10129B005BE0FCA3E0FDA3E0FEA3E0FF900198124E
:1012AB00088A1220147BFF7A28796B900161E0FF8A
:1012BB00A3E0900198CFF0A3EFF01220141227D9DE
:1012CB0090016712088A90020974FFF0A37428F04A
:1012DB00A37454F0900161E0FFA3E090020CCFF0F7
:1012EB00A3EFF07B017A01796F12099F7B017A01E1
:1012FB00796F7D0A7C007F027E00122437D3900128
:10130B0062E09400900161E0940050117BFF7A2819
:10131B0079787D0A7C007F027E001224372243BA43
:10132B0080122664121FA91227C6D2AF90008AE042
:10133B00640470F81227B21227E8121DD812181481
:10134B0090015B12088A7B017A0079D57D0020B66B
:10135B00027D0112261692137B017A0079D67D004D
:10136B0020C6027D0112261692147B017A0079D9D0
:10137B007D0020A3027D0112261692157B017A01B6
:10138B00791A7D002090027D0112261692163013D9
:10139B000F9000D3E07004A3E06402700312212CC1
:1013AB003015219000D3E07004A3E06401700312A8
:1013BB0022BC9000D3E07004A3E0640370067F03AB
:1013CB00FE121F3E3016031225C31227D990016B54
:1013DB00E0F8A3E0F9A3E0FAA3E0FBC31208664030
:1013EB00030213519000D3E0FEA3E0FFEE7063EF16
:1013FB0024FE600C14600E240270571211B9805732
:10140B00120DBD805220B61530C6129000D3E0707D
:10141B0004A3E0640370067F01FE121F3E20C61575
:10142B0030B6129000D3E07004A3E0640370067F23
:10143B0002FE121F3E20B61520C6129000D3E0709C
:10144B0004A3E0640370067F04FE121F3E120FE636
:10145B0080057F01122597B2A01227D990016B123C
:10146B00088A021351900000E030E770900003E00F
:10147B00706A900002E07064900006E07004A3E0D4
:10148B0064026003021580900000E0540F14601991
:10149B0014603C24026003021580900005E0700686
:1014AB00900004E0601902158090008AE0B4040CEF
:1014BB00900005E07006900004E060030215809038
:1014CB0000CE74FFF0A37429F0A374770215729009
:1014DB00008AE0B40406900005E0600302158090DA
:1014EB000004E0FE540F9001FFF0EE146041247FE6
:1014FB00600304707E9001FFE0FF74017E00A8077B
:10150B00088005C333CE33CED8F9FF9000D1E0FD70
:10151B00EF5D9000CE600C74FFF0A37429F0A37400
:10152B0079800A74FFF0A37429F0A3747780389044
:10153B0001FFE0FF74017E00A807088005C333CECE
:10154B0033CED8F9FF9000D2E0FDEF5D9000CE6076
:10155B000C74FFF0A37429F0A37479800A74FFF064
:10156B00A37429F0A37477F09000CCE4F0A3740279
:10157B00F0800580000227F61200B2221226EC7FC3
:10158B0014122740AE07EE30E6077D807F1412263B
:10159B00F0EE20E00302167A7B017A00794A7F2174
:1015AB001223C4900008EFF0900180E0FBA3E0FA57
:1015BB00A3E04A4B700302166AE49001FFF090001F
:1015CB0008E0FF9001FFE0FEC39F400302166A9004
:1015DB000180E0FBA3E0FAA3E0F9900009E0FD3302
:1015EB0095E08D82F583120677FF744A2EF582E41F
:1015FB003400F583E06F7031900009E004F0900047
:10160B0009E0FF3395E08F82F5831206777047FD73
:10161B007F141226F0E4F5F4F5DC90FE07F07F0A58
:10162B00FE12278475C76080FE900180E0FBA3E06B
:10163B00FAA3E0F912065EFF9001FFE0244AF5825F
:10164B00E43400F583E0B507089000097401F080DD
:10165B0005E4900009F09001FFE004F00215C9D2F7
:10166B00171227525009E4FD7F141226F0C21722DD
:10167B00900200EBF0A3EAF0A3E9F0E4FFFE900286
:10168B0003E0FBA3E0FAA3E0F912065EFDC3EF9DB6
:10169B00EE94005026900200E0FBA3E0FAA3E0F9E1
:1016AB008F828E83120677FD741B2FF58274013E99
:1016BB00F583EDF00FBF00010E80C390011BE064BA
:1016CB0023704290011DE024D0FFE434FFFE7C0028
:1016DB007D0A1206B6AA06AB0790011CE024D0FFC8
:1016EB00E434FFFE7D641206B6EF2BFFEE3AFE905C
:1016FB00011EE024D0FDEC34FFCD2FFFED3E90001A
:10170B00D7F0A3EFF09000D7E0FEA3E0FF900185A8
:10171B00EEF0A3EFF090020974FFF0A37428F0A38E
:10172B0074EFF0A3EEF0A3EFF07B017A0079DA12FD
:10173B00099F7B017A0079DA7D097C0002195490AC
:10174B000000E020E7030217F3900003E024FE60A3
:10175B0023146039240260030217F39000CE74FF48
:10176B00F0A37428F0A374F8F09000CCE4F0A37409
:10177B0012F080779000CE74FFF0A37429F0A3745D
:10178B000AF09000CCE4F0A37443F0805E9000026A
:10179B00E01460201460362402704B9000CE74FF6E
:1017AB00F0A37429F0A3744DF09000CCE4F0A37473
:1017BB0004F080379000CE74FFF0A37429F0A3746B
:1017CB0051F09000CCE4F0A37408F0801E9000CE92
:1017DB0074FFF0A37429F0A37459F09000CCE4F0DB
:1017EB00A3741EF0800580000227F6900006E0FE31
:1017FB00A3E0FFD39000CDE09F9000CCE09E40058E
:10180B00EEF0A3EFF01200B22290019712089600AF
:10181B0000000090019B12089600000000E490016C
:10182B0095F0A3F0121CCF90019712088A90019BA0
:10183B00E0FCA3E0FDA3E0FEA3E0FF900197E0F83E
:10184B00A3E0F9A3E0FAA3E0FBEF2BFFEE3AFEEDEA
:10185B0039FDEC38FCA312088A7F647E001223FE4C
:10186B00900196E004F07006900195E004F0C390AF
:10187B000196E09404900195E0940040A790019BA1
:10188B00E0FCA3E0FDA3E0FEA3E0FFE47B04FAF998
:10189B00F81207D490019B12088A90019BE0FCA3DD
:1018AB00E0FDA3E0FEA3E0FF2290008AE064047059
:1018BB0023900000E0B4021C900005E0701690002D
:1018CB0003E07010900002E07078900006E0700268
:1018DB00A3E06002806C900004E0FE540F9001FFC7
:1018EB00F0EE14602D247F60030470569000D1E05D
:1018FB00FF9001FFE0FD7401A805088002C333D8F7
:10190B00FCF45F9000D1F07F0E1226F07D407F112A
:10191B0080249000D2E0FF9001FFE0FD7401A80548
:10192B00088002C333D8FCF45F9000D2F07F0E1214
:10193B0026F07D807F141226F0E4FD7F0E1226F038
:10194B0080030227F612281022900206EBF0A3EA7E
:10195B00F0A3E9F0A3ECF0A3EDF090020E1226E356
:10196B00E490020CF0A3F0900209E0FEA3E0FFD399
:10197B009440EE6480948040067D407F40800090D0
:10198B00020BEFF07F11122740EF30E00E90020EAA
:10199B0074FFF5F012073345F070E9900206E0FB97
:1019AB00A3E0FAA3E0F990020CE0FEA3E0FFE92F1D
:1019BB00F9EA3EFA90020B12230490020BE0FFFDB2
:1019CB007C0090020DE02DF090020CE03CF0C390F7
:1019DB00020AE09DF0900209E09CF0EFC3944050A6
:1019EB0086D21943AF802290008AE0640470239062
:1019FB000000E0B4021C900005E07016900003E0BC
:101A0B007010900002E07076900006E07002A3E088
:101A1B006002806A900004E0FE540F9001FFF0EE2C
:101A2B0014602C247F60030470549000D1E0FF906D
:101A3B0001FFE0FD7401A805088002C333D8FC4FF9
:101A4B009000D1F07F0E1226F07D107F1180239035
:101A5B0000D2E0FF9001FFE0FD7401A805088002B1
:101A6B00C333D8FC4F9000D2F07F0E1226F07D20AE
:101A7B007F141226F0E4FD7F0E1226F0800302275E
:101A8B00F61228102290008AE06402602290000077
:101A9B00E0701C900003E07016900005E070109051
:101AAB000004E0700A900006E07002A3E0600302FD
:101ABB0027F6900002E0640190008A70547404F0E1
:101ACB00E49000D1F09000D2F07D017F0E1226F051
:101ADB007D207F121226F07D087F101226F07D02EA
:101AEB007F0E1226F07D207F121226F07D087F10CC
:101AFB001226F07D017F0E1226F0E4FD7F121226D6
:101B0B00F07D087F131226F0E4FD7F0E1226F08085
:101B1B000D7403F09000D174FFF09000D2F01228F6
:101B2B0010229001C5EEF0A3EFF09001CA1226E34C
:101B3B00E49001C8F0A3F09001C5E0FEA3E0FFD351
:101B4B009440EE940040067D407F4080009001C79A
:101B5B00EFF07F11122740EF30E00E9001CA74FFB7
:101B6B00F5F012073345F070E99001C8E0FEA3E0F1
:101B7B00240AF974003EFA7B019001C712230490EA
:101B8B0001C7E0FFFD9001C9E02DF09001C8E034E2
:101B9B0000F0C39001C6E09FF09001C5E09400F007
:101BAB009001C7E0C39440508ED21943AF80227886
:101BBB007FE4F6D8FD758123021C01020003E49338
:101BCB00A3F8E493A34003F68001F208DFF4802925
:101BDB00E493A3F85407240CC8C333C4540F442014
:101BEB00C8834004F456800146F6DFE4800B010203
:101BFB00040810204080901C46E47E019360BCA337
:101C0B00FF543F30E509541FFEE493A360010ECF50
:101C1B0054C025E060A840B8E493A3FAE493A3F87A
:101C2B00E493A3C8C582C8CAC583CAF0A3C8C5823A
:101C3B00C8CAC583CADFE9DEE780BE430190000056
:101C4B000043018D000000430180FF281F42015F0C
:101C5B000000420183000042018501904200D70140
:101C6B009042016500004201610000420163006483
:101C7B0044015B0000000044016B000000004401C4
:101C8B0067000000004401870000000042017E0451
:101C9B00B042018B00004100D5004100D60041004D
:101CAB00D90041011A00C113C114C115C11642015B
:101CBB009300004200D3000144023D0000000041AC
:101CCB0000090000C2C790019F1208960000000097
:101CDB002091FDE4FBEBC39418748094805042D2A6
:101CEB00C790019FE0FCA3E0FDA3E0FEA3E0FF781B
:101CFB000112087790019F12088AC2C730911F907A
:101D0B00019FE0FCA3E0FDA3E0FEA3E02401FFE4C0
:101D1B003EFEE43DFDE43CFC90019F12088A0B80E3
:101D2B00B4D2C790019FE0FCA3E0FDA3E0FEA3E0CB
:101D3B00FFED6480FDEC90019F12088AC2C79001F1
:101D4B009FE0FCA3E0FDA3E0FEA3E0FF2290019542
:101D5B00EEF0A3EFF0121CCF90019B12088A9001BA
:101D6B0097E0FCA3E0FDA3E0FEA3E0FFA3E0F8A354
:101D7B00E0F9A3E0FAA3E0FBC3120866501290014E
:101D8B0097E0FCA3E0FDA3E0FEA3E0FFA312088A0B
:101D9B00900197E0F8A3E0F9A3E0FAA3E0FBA3E03E
:101DAB00FCA3E0FDA3E0FEA3E0C39BFFEE9AFEEDD8
:101DBB0099FDEC98FCC006C007900195E0FEA3E0EE
:101DCB00FBAA06E4F9F8D007D0060207D490020963
:101DDB0074FFF0A37428F0A37428F0A374FFF0A38E
:101DEB007428F0A3742BF07B017A01796F12099F91
:101DFB007B017A01796F7D027C007F017E001224CA
:101E0B00377FF47E011223FE90020974FFF0A37456
:101E1B0028F0A37428F0A374FFF0A37428F0A37424
:101E2B003AF07B017A01796F12099F7B017A017974
:101E3B006F7D047C007F027E001224377FD07E07EB
:101E4B001223FE7F01022597122737AE07EE30E2F1
:101E5B000D54FBFD7F111226F0E49000CBF0EE3019
:101E6B00E4084480FD7F111226F09000CBE024FDA6
:101E7B00604714604724047046EE30E0427B017AE1
:101E8B000079007F201223C4900006E0FEA3E0FF40
:101E9B001226FF900006EEF0A3EFF0900000E05446
:101EAB006024E0600B24E0600A2440700902207477
:101EBB0002271B02281C0227F6021ECB1221D82256
:101ECB00122737EF20E16B9000CCE0FEA3E0FFD3AD
:101EDB009440EE940040067D407F408000900200CD
:101EEB00EFF09000CEE0FBA3E0FAA3E0F99002053F
:101EFB00EFF07F201224A3900200E0FF7E00C3903E
:101F0B0000CDE09FF09000CCE09EF09000CFEE8FE4
:101F1B00F012071D9000CCE07002A3E0700D7D0A5B
:101F2B007F111226F0E49000CBF0227D027F11127C
:101F3B0026F022EF64014E700F900184E004F070E4
:101F4B005C900183E004F022EF64024E701CD3908E
:101F5B000184E09400900183E09400400DA3E02401
:101F6B00FFF0900183E034FFF022EF64034E602D0D
:101F7B00EF64044E702790015BE0FCA3E0FDA3E04F
:101F8B00FEA3E0FF90019712088A900185E0FEA363
:101F9B00E0FF121D58900183EEF0A3EFF02253B235
:101FAB00FC43B10390FE077480F090FE07E030E035
:101FBB00F9E4F5DC75F490FDFF1226F07D087F0146
:101FCB001226F07D3F7F071226F07D3F7F091226F8
:101FDB00F07D077F0B1226F0E4FD7F011226F090B7
:101FEB00008A7402F0E49000CBF09000D1F0A3F0E3
:101FFB0090023612089600C20100E490023AF0A358
:10200B00F0A37408F043AF8022900195EBF0A3EAA4
:10201B00F0A3E9F09001C07401F0A37401F0A37474
:10202B0098F0900195E0F9A3E0FAA3E09001C5C9FF
:10203B00F0A3EAF0A3E9F09001C0E0F9A3E0FAA362
:10204B00E09001C8C9F0A3EAF0A3E9F07B017A00A4
:10205B00790A1222729001C3EEF0A3EFF0121B2D3E
:10206B009001C3E0FEA3E0FF22900001E0B40D005D
:10207B00504F902084F82828730220AB0220AE0228
:10208B0020CC0220B10220CC0220B40220B70220C7
:10209B00BA0220BD0220C00220C30220C60220C902
:1020AB000214700218B40219F202218702174A02B5
:1020BB0000080220D0021A900223460225ED0200EE
:1020CB00C61227F622900000E06480702490000373
:1020DB00E0701E900002E07018900005E070129006
:1020EB000004E0700C900006E07004A3E064016053
:1020FB00030227F690008AE09000CEB4040C74FF24
:10210B00F0A37429F0A37479800A74FFF0A37429E7
:10211B00F0A37477F09000CCE4F0A304F01200B2BB
:10212B002290015BE0FCA3E0FDA3E0FEA3E0FF90A7
:10213B00019712088A900185E0FEA3E0FF121D585B
:10214B00D3EF94E8EE9403400B9001637403F0A378
:10215B0074E7F02290015BE0FCA3E0FDA3E0FEA39B
:10216B00E0FF90019712088A900185E0FEA3E0FF43
:10217B00121D58900163EEF0A3EFF022900000E0E7
:10218B007025900005E0701F900004E0701990001E
:10219B0003E07013900002E0C39480500A90000695
:1021AB00E07002A3E060030227F6900002E09001CA
:1021BB00FFF0FDE4FF1226F09001FFE090008A6033
:1021CB00057403F080037402F012281022122737D3
:1021DB00EF30E0479000CEE0FBA3E0FAA3E0F97FFD
:1021EB00201223C4EFFDC39000CDE09DF09000CCF6
:1021FB00E09400F09000CFE48FF012071D9000CC1C
:10220B00E07002A3E0700D7D487F111226F0E49080
:10221B0000CBF0227D407F111226F022C0E0C0F0EF
:10222B00C083C082C0D075D000C000C004C005C040
:10223B0006C00790023DE0FCA3E0FDA3E0FEA3E097
:10224B002401FFE43EFEE43DFDE43CFC90023D1224
:10225B00088AD007D006D005D004D000D0D0D082C9
:10226B00D083D0F0D0E0329001C5E0FFA3E0FEA315
:10227B00E0CF900209F0A3EEF0A3EFF09001C8E0DD
:10228B00CBF0A3E0CAF0A3E0C9F07F2290020CAD23
:10229B0082AC8312065E8D828C83F0A309E97001F8
:1022AB000ADFEC9001C8E0FBA3E0FAA3E0F9020916
:1022BB009F3015449000D3E07004A3E064017038A4
:1022CB0090015BE0FCA3E0FDA3E0FEA3E0FF900127
:1022DB009712088A900185E0FEA3E0FF121D58902B
:1022EB000165EEF0A3EFF07BFF7A28797D900198E2
:1022FB00EEF0A3EFF012201422E0FD900214740113
:10230B00F0900210EBF0A3EAF0A3E9F0AE05AF06F4
:10231B001EEF6020900214E02420FF900210E0FBDF
:10232B00A3E475F001120733A9F0FA12065EFD1251
:10233B0026F080DA7D017F110226F090008AE0B44E
:10234B00041D900000E0B48116900003E070109023
:10235B000005E0700AA3E07004A3E06401600302CF
:10236B0027F69000CE74FFF0A37429F0A37477F0D6
:10237B009000CCE4F0A304F01200B222E4FDFF12B3
:10238B0026F090008A7402F0E49000CBF00D7F0EE3
:10239B001226F07D487F111226F07D027F0E122649
:1023AB00F07D487F111226F01226EC7D907F1412DF
:1023BB0026F0E4FD7F0E0226F0900200EBF0A3EA7C
:1023CB00F0A3E9F0AE077F16122740AD07AC05AFBF
:1023DB00051DEF601BAF06122740900200E0FBA328
:1023EB00E475F001120733A9F0FAEF1206A480DFAF
:1023FB00AF0422E4FCFD90023DE0F8A3E0F9A3E07A
:10240B00FAA3E02FFFEA3EFEED39FDEC38FC90011C
:10241B009F12088A1227D990019FE0F8A3E0F9A335
:10242B00E0FAA3E0FBD312086650E922900195EB8A
:10243B00F0A3EAF0A3E9F012246EE4900198F09077
:10244B000195E0FBA3E0FAA3E0F9A3E0F582758325
:10245B0000120677FF600B12256B900198E004F0D9
:10246B0080DD2290019BECF0A3EDF0900199EEF052
:10247B00A3EFF064014E7006A3A3E0148013900148
:10248B0099E07004A3E06402700D90019BA3E0241B
:10249B003F4480FF12259722900202EBF0A3EAF053
:1024AB00A3E9F0AE07900205E0FF14F0EF601BAF5D
:1024BB0006900202E0FBA3E475F001120733A9F0CA
:1024CB00FA12065EFD1226F080DB2290008AE0B441
:1024DB000408900000E0642160030227F69000CE10
:1024EB007401F0A37402F0A37436F0900006E0FFC1
:1024FB00A3E09000CCCFF0A3EFF0122803229000C2
:10250B008AE0B40408900000E064A160030227F69F
:10251B009000CE7401F0A37402F0A37436F0900017
:10252B0006E0FFA3E09000CCCFF0A3EFF01200B2D7
:10253B00227580FFC2A5D2A6D2A77F017E001223EF
:10254B00FE90019EE580F07F017E001223FEC2A764
:10255B007F017E001223FE90019EE0548070D922F1
:10256B00900199EFF012253CD2A5C2A67F017E0007
:10257B001223FE900199E0F5807F017E001223FE6D
:10258B00D2A77F017E001223FEC2A72290019DEFEE
:10259B00F012253CC2A5C2A67F017E001223FE903D
:1025AB00019DE0F5807F017E001223FED2A77F0103
:1025BB007E001223FEC2A7227F011225979000D422
:1025CB00E004F070069000D3E004F0D39000D4E068
:1025DB0094039000D3E0648094804005E4F0A3045E
:1025EB00F02290008AE0B4041B900000E0B40114C8
:1025FB00900003E0700E900005E07008A3E07002FD
:10260B00A3E060030227F612281022ED700280155A
:10261B0012065EFFC3940A7480948040047F0A8084
:10262B0003EF04FFEF1206A412065E6409C37001E8
:10263B00D322EFB40A07740D122648740A3098118E
:10264B00A899B8130CC2983098FDA899C298B811E4
:10265B00F63099FDC299F59922E4F594F593F5922C
:10266B00F591F596F595F5B2F5B1F5B4F5B3F5CA67
:10267B00F5C9F5CCF5CBF5E2F5E1227D0112273951
:10268B00AE07EE30E5077D407F111226F0EE30E20B
:10269B0007E4FD7F111226F0C21922EF1FAC067062
:1026AB00011E4C6014000000000000000000000040
:1026BB000000000000000080E2227D02122739AEEC
:1026CB0007EE30E5077D407F111226F0EE30E20772
:1026DB00E4FD7F111226F022E4F0A374C8F053AF8F
:1026EB007F7D017F0EE5FC20E7FBEF547FF5FCAF10
:1026FB00058FEC229001FFEEF0A3EFF0E0A3F0903A
:10270B0001FFE0900202F0900201E0FEA3E0FF2245
:10271B00900001E024DF600A14600A2402700902B1
:10272B0024D602250902279C1227F622E4FD7F0EF0
:10273B001226F07F11E5FC20E7FBEF4480F5FCE56A
:10274B00FC20E7FBAFEC229002037401F0A37400B2
:10275B00F0A37408F07B017A00794A12167BD3221E
:10276B00C0E0C083C08290FE82E030E60574BFF00B
:10277B00C212D082D083D0E032AB07AA06EB1BAEDD
:10278B000270011A4E60097FE87E031226A680EDC7
:10279B002290008AE0B40408900000E064216003FA
:1027AB000227F6122810227F381225977F0C12254C
:1027BB00977F061225977F01022597538E7F5389AA
:1027CB00F0758A30758CF8C28DD28CD2A92290020A
:1027DB003DE0FCA3E0FDA3E0FEA3E0FF2290FE8022
:1027EB0074E0F090FE82E4F0D2AF229000CB74053F
:1027FB00F07D607F110226F09000CB7404F07D40D9
:10280B007F110226F0E49000CBF07D487F11022669
:10281B00F00227F6405354434953502300257300CD
:10282B003230323335363033303233313835004C89
:10283B00696E5A68694B6169005069203A006700FC
:10284B00576569676874203A0025346400776569B9
:10285B006768745F62617365203D20256C750A00A3
:10286B00776569676874203D2025640A0020202065
:10287B0030007765696768745F74617265203D200D
:10288B0025640A00436F756E74203A0078007765F3
:10289B00696768745F636F756E74203D2025640AE9
:1028AB00004974656D5F436F756E74203D20256420
:1028BB000A00202030002533640074687265736849
:1028CB006F6C64203A00776569676874203D20253A
:1028DB0034640A007468726573686F6C64203D2001
:1028EB00253364006B203D202533640A0012010060
:1028FB000202000040BF3402FF0001010200010987
:10290B0002430002010080320904000001020201AF
:10291B000005240010010524010001042402020516
:10292B0024060001070582034000FF090401000291
:10293B000A00000007058102400000070501024064
:10294B0000000403090408035300540043001E0352
:10295B005300540043002000550053004200200058
:10296B00530065007200690061006C0000000100FB
:00000001FF
