:1000000002127512145780FE021B7C021673C0E0A8
:10001000C0F0C083C082C0D075D000C000C001C095
:1000200002C003C004C005C006C00790013CE5FC47
:10003000F07F06121AFB900139EFF07F02121AFBD3
:10004000A3EFF07F04121AFBA3EFF0900139E03028
:10005000E103121BA8900139E030E20312178B90E4
:10006000013AE030E00312130190013AE030E1037D
:10007000121A4190013AE030E203121A8090013BDB
:10008000E030E103120DB1900139E030E003121BC2
:10009000A990013CE0F5FCD007D006D005D004D0F3
:1000A00003D002D001D000D0D0D082D083D0F0D005
:1000B000E0327F3812199E7F3812199E7F0C121978
:1000C0009E7F0112199E7F0402199E02000EF920E4
:1000D000E73624F950037907E4F42402FBE582159E
:1000E0008270021583DBF6E024FB501BE96014E408
:1000F000F0E582158270021583E004F0B40A08E48A
:10010000F0D9EE7401F00A22C2D522ED33EC33921D
:10011000D5FA602AB4FF33EDC2E77BFF60067A01AF
:100120007930E4227A01793920D5047A01793422B0
:100130004E614E002B494E46002D494E4600E47A52
:1001400008F0A3DAFC7B00740722C083C082ECC0F5
:10015000E0EDC0E0EEC0E0EFC0E0EA75F010A4CA48
:10016000ABF075F04DA42BFBE435F0FCEA2410FA5B
:10017000EB34C5FBEC34D9FCEDC2E7FF75F056A4B7
:10018000F42411C5F0F434C58FF0A42AE5F03BE463
:100190003CF020E7141204DED0E0FFD0E0FED0E017
:1001A000FDD0E0FC1204118014F4041204DED0E04F
:1001B000FFD0E0FED0E0FDD0E0FC120308D082D0FA
:1001C00083E0FAEDD2E7CD33EC332482FBE4C3CFF6
:1001D00033CFCE33CECD33CD33DBF37B0775F00A8F
:1001E000846004F0A31B0AE5F0F0A38FF0740AA466
:1001F000FFACF08EF0740AA42CFEACF050010C8D14
:10020000F0740AA42CFDE435F0F0A3DBDE740722C1
:10021000020553E86480F8E933E83360110460F0C4
:10022000ED33EC337009E8FCE9FDEAFEEBFF220454
:1002300060DED3EB9FEA9EE99DE8C2E78CF0C2F74F
:1002400095F0400CE8CCF8E9CDF9EACEFAEBCFFB1B
:1002500012051E85D0F05804700320D5B3E8047051
:10026000075002B2D502055D92D5EC0460F7E4CCEC
:10027000C0E0C398F8603B94186008400DD0E0FBE4
:10028000020535E4FBFAC9FC8028E830E406E4C93D
:10029000FBE4CAFCE830E305E4C9CACBFCE8540738
:1002A0006010F8C3E913F9EA13FAEB13FBEC13FC43
:1002B000D8F130F52FC3E49CFCEF9BFFEE9AFEEDE6
:1002C00099FDD0E0FBEF4E4D4C701222DB0302058E
:1002D0005AEC2CFCEF33FFEE33FEED33FDED30E74F
:1002E000EB020535EF2BFFEE3AFEED39FDD0E0FBDA
:1002F00050130BBB000302055DED13FDEE13FEEF83
:1003000013FFEC13FC020535EC4D6011E849701742
:10031000ED33EC3304600DE4FCFFFEFD22E933E82D
:10032000330470F802055312051E58046009E4CC2A
:100330002481500628500902055D28400302055A11
:10034000C0E0EB4A7044B98006D0E0FB020549EFFB
:100350004E701CBD8008EBFFEAFEE9FD80EBE98DE5
:10036000F0A4FEE5F00203F1E9CDF9EAFEEBFFEFC0
:1003700089F0A4FCE5F0CE89F0A42EFFE435F0CDA1
:1003800089F0A42DFEE435F08067EF4E7005BD8046
:10039000D780C3EF8BF0A4ACF0EE8BF0A42CFCE480
:1003A00035F0F8EF8AF0A42CE5F038FCE433CB8D7F
:1003B000F0A42CFCE5F03BF8EE8AF0A42CFCE5F070
:1003C00038F8E433CF89F0A42CFCE5F038CF3400C2
:1003D000CE89F0A42FFFE5F03EFEE433C98DF0A4F2
:1003E0002EFEE5F039CD8AF0A42FFFE5F03EFEE4C5
:1003F0003DFD33D0E0FB50070BBB000F02055DEC69
:100400002CFCEF33FFEE33FEED33FD020535020524
:100410005DEC5D046005E8590470030205531205A4
:100420001E580460F6EC4860F2EC7004FDFEFF22FA
:10043000C860DB2481C85009C398600250060205D9
:100440005A9850CAF582E9294B4A7005AB820205D9
:100450004975F0007C1A7880C3EF9BEE9AED9940C5
:100460000DC3EF9BFFEE9AFEED99FDE842F0DC2311
:10047000ACF0D0E0FFD0E0FED0E0FDAB8220E71092
:100480001BEB60BAEC2CFCEF33FFEE33FEED33FDDB
:10049000020535E803F830E705C0F075F000EF2FEE
:1004A000FFEE33FEED33FD40B830E7C280AA3F8057
:1004B00000004120000042C80000447A0000461CB1
:1004C000400047C35000497424004B1896804CBE2E
:1004D000BC205A0E1BCA6753C21C749DC5AEFB607C
:1004E000065407601C232312050CEB5438600912D4
:1004F00004F8120507120308ECF8EDF9EEFAEFCB59
:1005000022EB12050780F1543803241C9004AEFE40
:1005100093FC0EEE93FD0EEE930ECE93FF22E9D2E6
:10052000E7C933E833F892D5EDD2E7CD33EC33FCAD
:100530005002B2D522EC30E7100FBF000C0EBE0007
:10054000080DBD00040BEB6014A2D5EB13FCED927B
:10055000E7FD2274FFFCFDFEFF22E480F8A2D574C3
:10056000FF13FC7D80E480EFE709F608DFFA8046A0
:10057000E709F208DFFA803E88828C83E709F0A35E
:10058000DFFA8032E309F608DFFA8078E309F2083F
:10059000DFFA807088828C83E309F0A3DFFA80643D
:1005A00089828A83E0A3F608DFFA805889828A83E9
:1005B000E0A3F208DFFA804C80D280FA80C680D4B3
:1005C000806980F28033801080A680EA809A80A8BB
:1005D00080DA80E280CA803389828A83ECFAE493ED
:1005E000A3C8C582C8CCC583CCF0A3C8C582C8CC7B
:1005F000C583CCDFE9DEE7800D89828A83E493A39B
:10060000F608DFF9ECFAA9F0EDFB2289828A83EC87
:10061000FAE0A3C8C582C8CCC583CCF0A3C8C58204
:10062000C8CCC583CCDFEADEE880DB89828A83E43C
:1006300093A3F208DFF980CC88F0EF60010E4E60E2
:10064000C388F0ED2402B4040050B9F582EB240213
:10065000B4040050AF23234582239005B873BB0137
:100660000689828A83E0225002E722BBFE02E3224F
:1006700089828A83E49322BB010CE58229F582E515
:10068000833AF583E0225006E92582F8E622BBFE94
:1006900006E92582F8E222E58229F582E5833AF52A
:1006A00083E49322BB010689828A83F0225002F7F9
:1006B00022BBFE01F322EF8DF0A4A8F0CF8CF0A4B2
:1006C00028CE8DF0A42EFE22C5F0F8A3E028F0C5B8
:1006D000F0F8E582158270021583E038F022A3F865
:1006E000E0C5F025F0F0E582158270021583E0C8C0
:1006F00038F0E822E88FF0A4CC8BF0A42CFCE98E33
:10070000F0A42CFC8AF0EDA42CFCEA8EF0A4CDA879
:10071000F08BF0A42DCC3825F0FDE98FF0A42CCD82
:1007200035F0FCEB8EF0A4FEA9F0EB8FF0A4CFC562
:10073000F02ECD39FEE43CFCEAA42DCE35F0FDE4EC
:100740003CFC22EB9FF5F0EA9E42F0E99D42F0E886
:100750009C45F022E8600FEFC333FFEE33FEED332C
:10076000FDEC33FCD8F122ECF0A3EDF0A3EEF0A306
:10077000EFF022A8828583F0D083D08212078A12FC
:10078000078A12078A12078AE473E493A3C583C514
:10079000F0C583C8C582C8F0A3C583C5F0C583C8AA
:1007A000C582C822F8E0FBA3A3E0F925F0F0E582BA
:1007B000158270021583E0FA38F022EBF0A3EAF01C
:1007C000A3E9F022D083D082F8E4937012740193ED
:1007D000700DA3A393F8740193F5828883E4737476
:1007E00002936860EFA3A3A380DFEC8EF0A4CCC5D6
:1007F000F0CCCDF8EFA4CEC5F02DFDE43CFCE8A490
:100800002EC8C5F03DFDE43CFCEFA4FFE5F028FE5A
:10081000E43DFDE43CFC22E508240CF582E43401CF
:10082000F583E005082290010930070390010CE4EC
:1008300075F0011207A402065E2000E97F2ED200A7
:100840008018EF540F2490D43440D4FF30040BEFC1
:1008500024BFB41A0050032461FFE50960021509A2
:10086000050CE50C7002050B30070E900109E475CC
:10087000F0011207A4EF0206A40219F57403D207CF
:100880008003E4C207F5089001091207BBE4F509EB
:10089000F50BF50CE50960077F2012085A80F57505
:1008A0000AFFC201C200C202C203C205C206C208D8
:1008B000120826FF700D3007057F0012086BAF0C81
:1008C000AE0B22B4255FC2D5C204120826FF24D085
:1008D000B40A00501A75F00A780930D50508B6FF39
:1008E0000106C6A426F620D5047002D20380D924BE
:1008F000CFB41A00EF5004C2E5D204020B5DD2015E
:1009000080C6D20080C0D20280BCD2D580BAD205C7
:1009100080B47F2012085A2002077401B5090040F4
:10092000F1120817FF12085A020894D208D2068062
:1009300095120817FB120817FA120817F94A4B709C
:1009400006795B7A0C7BFF20022EE509602A7E0087
:100950008E8275830012067760060EEE650A70F0CF
:10096000C2D5EBC0E0EAC0E0E9C0E0EE120BBED0B9
:10097000E0F9D0E0FAD0E0FB12065EFF60AAEBC01F
:10098000E0EAC0E0E9C0E012085AD0E02401F9D062
:10099000E03400FAD0E0FBE50A0460DCD50AD98037
:1009A00087D20280A2120BA060F7E50A7001041240
:1009B00000CEA90A600DE50A600914F50A120C4878
:1009C000EF60F3EA30E702F404C3995079EAF425C2
:1009D0000A0430E701E404F50A800D120BA060C19F
:1009E000EA050A250A1200CEEA900138F030E70144
:1009F000E4250A04D50A0420050114120BBEE4C044
:100A0000E0120C48900138E0601320E70714F01260
:100A10000842802204F0D0E014C0E07F00120842B7
:100A2000E50A6007120839150A800B300503120821
:100A300039D0E0020894D0E00480C4120BA0609E7C
:100A4000E50A041200CE900138EAF0E50A2005021A
:100A50006001042404120BBE74FF04C0E0120C48B1
:100A6000120842E50A2005026003120839D0E0B5F9
:100A70000AE87F4512084C900138E07F2B30E704EC
:100A80007F2DF404C0E012085AD0E075F00A84C04B
:100A9000F0120843D0E01208430208947910800253
:100AA0007908C206C2088008D2D5790A8004790A7A
:100AB000C2D5E50A047002F50AE4FAFDFEFF120849
:100AC00017FC7B08200113120817FD7B1030000A69
:100AD000120817FE120817FF7B20EC3382D592D53F
:100AE0005013C3E43000069FFFE49EFEE4200103A0
:100AF0009DFDE49CFCE4CBF8C201EC700CCFCECDA4
:100B0000CCE824F8F870F38017C3EF33FFEE33FE20
:100B1000ED33FDEC33FCEB33FB994002FB0FD8E9DE
:100B2000EB300105F8D0E0C448B201C0E00AEC4D5A
:100B30004E4F78207B0070C2EAB50A0040BCC0E08E
:100B4000120BC0D0F0D0E0200104C4C0E0C4B20158
:100B5000C0F0120843D0F0D5F0EB0208941207C49D
:100B60000931530A9C5809024C08FE420AA04F0A58
:100B7000A8440AA8490917430AAE5509DB460A3BAF
:100B80004509A5470C7B5009062D090A2E092D2B76
:100B9000090E23092B200C642A08C64800000925E9
:100BA000E50AB4FF03750A06120817FC120817FDC0
:100BB000120817FE120817FF90013102010B790A83
:100BC000A2D5200314300509B910020404B90801A4
:100BD00004A2D52006025001042002689202B50941
:100BE000005034C0E07F203003197F30A20272062B
:100BF0007205500F120C17C202C206C205C2087F4E
:100C000030800F300503E9C0E012085A300503D0E8
:100C1000E0F9D0E0B509CC3005177F30B9100C12DF
:100C2000085A7F583004077F788003B908031208F8
:100C30005A3002057F2D02085A7F202008F87F2BAA
:100C40002006F322920280CF7F00B40700500B24CD
:100C500031F582E43401F583E0FF22286E756C6C77
:100C60002900D2011208173001F8C201780930D5E5
:100C70000108F60208C62D504349581208172403EC
:100C8000B405004001E4900C769312084B743A12BC
:100C9000084BD203750904020A9C900000E030E77B
:100CA00070900003E0706A900002E07064900006AB
:100CB000E07004A3E064026003020DAA900000E06B
:100CC000540F14601914603C24026003020DAA90B2
:100CD0000005E07006900004E06019020DAA900083
:100CE0008AE0B4040C900005E07006900004E06017
:100CF00003020DAA9000CE74FFF0A3741CF0A3743D
:100D000029020D9C90008AE0B40406900005E06082
:100D100003020DAA900004E0FE540F90013DF0EE96
:100D2000146041247F600304707E90013DE0FF74F5
:100D3000017E00A807088005C333CE33CED8F9FF63
:100D40009000D1E0FDEF5D9000CE600C74FFF0A349
:100D5000741CF0A3742B800A74FFF0A3741CF0A31E
:100D60007429803890013DE0FF74017E00A80708D7
:100D70008005C333CE33CED8F9FF9000D2E0FDEF2B
:100D80005D9000CE600C74FFF0A3741CF0A3742B74
:100D9000800A74FFF0A3741CF0A37429F09000CCB7
:100DA000E4F0A37402F080058000021B7C121B4E4D
:100DB00022121AA77F14121AFBAE07EE30E6077D47
:100DC000807F14121AABEE20E003020EA47B017A9E
:100DD00000794A7F211217C8900008EFF090015166
:100DE000E0FBA3E0FAA3E04A4B7003020E94E49008
:100DF000013DF0900008E0FF90013DE0FEC39F4000
:100E000003020E94900151E0FBA3E0FAA3E0F990F5
:100E10000009E0FD3395E08D82F583120677FF74BB
:100E20004A2EF582E43400F583E06F7031900009BA
:100E3000E004F0900009E0FF3395E08F82F5831223
:100E400006777047FD7F14121AABE4F5F4F5DC90D9
:100E5000FE07F07F0AFE121B0D75C76080FE900131
:100E600051E0FBA3E0FAA3E0F912065EFF90013D1A
:100E7000E0244AF582E43400F583E0B507089000E9
:100E8000097401F08005E4900009F090013DE00450
:100E9000F0020DF3D209121B5E5009E4FD7F14121B
:100EA0001AABC20922900000E020E703020F4E9027
:100EB0000003E024FE602314603924026003020F63
:100EC0004E9000CE74FFF0A3741BF0A374AAF090B0
:100ED00000CCE4F0A37412F080779000CE74FFF0A1
:100EE000A3741BF0A374BCF09000CCE4F0A3744393
:100EF000F0805E900002E0146020146036240270DE
:100F00004B9000CE74FFF0A3741BF0A374FFF0901D
:100F100000CCE4F0A37404F080379000CE74FFF0AE
:100F2000A3741CF0A37403F09000CCE4F0A3740845
:100F3000F0801E9000CE74FFF0A3741CF0A3740B1D
:100F4000F09000CCE4F0A3741EF080058000021B3A
:100F50007C900006E0FEA3E0FFD39000CDE09F90E0
:100F600000CCE09E4005EEF0A3EFF0121B4E229065
:100F7000008AE064047023900000E0B4021C90003A
:100F800005E07016900003E07010900002E07078A9
:100F9000900006E07002A3E06002806C900004E024
:100FA000FE540F90013DF0EE14602D247F60030489
:100FB00070569000D1E0FF90013DE0FD7401A8055E
:100FC000088002C333D8FCF45F9000D1F07F0E128A
:100FD0001AAB7D407F1180249000D2E0FF90013D4C
:100FE000E0FD7401A805088002C333D8FCF45F90CB
:100FF00000D2F07F0E121AAB7D807F14121AABE480
:10100000FD7F0E121AAB8003021B7C121B962290EE
:10101000013EEBF0A3EAF0A3E9F0A3ECF0A3EDF0BE
:10102000900146121A9EE4900144F0A3F090014111
:10103000E0FEA3E0FFD39440EE6480948040067D00
:10104000407F408000900143EFF07F11121AFBEFC8
:1010500030E00E90014674FFF5F01206DE45F070A8
:10106000E990013EE0FBA3E0FAA3E0F9900144E03F
:10107000FEA3E0FFE92FF9EA3EFA900143121708B8
:10108000900143E0FFFD7C00900145E02DF09001D0
:1010900044E03CF0C3900142E09DF0900141E09CAF
:1010A000F0EFC394405086D20B43AF802290008A69
:1010B000E064047023900000E0B4021C900005E09E
:1010C0007016900003E07010900002E070769000BF
:1010D00006E07002A3E06002806A900004E0FE5423
:1010E0000F90013DF0EE14602C247F6003047054D7
:1010F0009000D1E0FF90013DE0FD7401A80508805B
:1011000002C333D8FC4F9000D1F07F0E121AAB7D92
:10111000107F1180239000D2E0FF90013DE0FD742C
:1011200001A805088002C333D8FC4F9000D2F07F9D
:101130000E121AAB7D207F14121AABE4FD7F0E1243
:101140001AAB8003021B7C121B962290008AE0647B
:10115000026022900000E0701C900003E070169086
:101160000005E07010900004E0700A900006E07046
:1011700002A3E06003021B7C900002E06401900087
:101180008A70547404F0E49000D1F09000D2F07DA5
:10119000017F0E121AAB7D207F12121AAB7D087FE1
:1011A00010121AAB7D027F0E121AAB7D207F121235
:1011B0001AAB7D087F10121AAB7D017F0E121AAB9D
:1011C000E4FD7F12121AAB7D087F13121AABE4FD07
:1011D0007F0E121AAB800D7403F09000D174FFF0F3
:1011E0009000D2F0121B9622900103EEF0A3EFF0D4
:1011F000900108121A9EE4900106F0A3F0900103FA
:10120000E0FEA3E0FFD39440EE940040067D407FD3
:10121000408000900105EFF07F11121AFBEF30E0E3
:101220000E90010874FFF5F01206DE45F070E990AB
:101230000106E0FEA3E0240AF974003EFA7B019067
:101240000105121708900105E0FFFD900107E02D50
:10125000F0900106E03400F0C3900104E09FF090AC
:101260000103E09400F0900105E0C39440508ED259
:101270000B43AF8022787FE4F6D8FD7581210212FE
:10128000BC020003E493A3F8E493A34003F68001B7
:10129000F208DFF48029E493A3F85407240CC8C3B0
:1012A00033C4540F4420C8834004F456800146F6EA
:1012B000DFE4800B0102040810204080901A1CE437
:1012C0007E019360BCA3FF543F30E509541FFEE448
:1012D00093A360010ECF54C025E060A840B8E4930A
:1012E000A3FAE493A3F8E493A3C8C582C8CAC5834C
:1012F000CAF0A3C8C582C8CAC583CADFE9DEE780D1
:10130000BE121AF2AE07EE30E20D54FBFD7F111251
:101310001AABE49000CBF0EE30E4084480FD7F117E
:10132000121AAB9000CBE024FD6047146047240400
:101330007046EE30E0427B017A0079007F20121780
:10134000C8900006E0FEA3E0FF121ABA900006EE75
:10135000F0A3EFF0900000E0546024E0600B24E084
:10136000600A2440700902151B021AD6021BA5024E
:101370001B7C02137912162422121AF2EF20E16B61
:101380009000CCE0FEA3E0FFD39440EE9400400632
:101390007D407F40800090013EEFF09000CEE0FB6A
:1013A000A3E0FAA3E0F9900143EFF07F201218A721
:1013B00090013EE0FF7E00C39000CDE09FF09000E2
:1013C000CCE09EF09000CFEE8FF01206C89000CCDB
:1013D000E07002A3E0700D7D0A7F11121AABE49059
:1013E00000CBF0227D027F11121AAB2253B2FC43D4
:1013F000B10390FE077480F090FE07E030E0F9E45E
:10140000F5DC75F490FDFF121AAB7D087F01121A0E
:10141000AB7D3F7F07121AAB7D3F7F09121AAB7D70
:10142000077F0B121AABE4FD7F01121AAB90008A02
:101430007402F0E49000CBF09000D1F0A3F09001A2
:101440005A12077300C20100E490015EF0A3F0A3FA
:101450007408F043AF802243BA801213EC121B3B96
:10146000D2AFE4F594F593F596F59590008AE06493
:101470000470F81200B27B017A01794D7D057C0081
:101480007F017E0012183BB2A07BFF7A1C79369058
:1014900000D6E4F0A37417F01214BB7FE87E0312A9
:1014A00018029000D67401F0A37401F0A3744DF0FB
:1014B0007BFF7A1C79421214BB80CC9000D3EBF0F6
:1014C000A3EAF0A3E9F09000FE7401F0A37400F029
:1014D000A374D6F09000D3E0F9A3E0FAA3E0900162
:1014E00003C9F0A3EAF0A3E9F09000FEE0F9A3E05D
:1014F000FAA3E0900106C9F0A3EAF0A3E9F07B01AA
:101500007A00790A1216BE900101EEF0A3EFF012F4
:1015100011E8900101E0FEA3E0FF22900001E0B499
:101520000D00504F90152BF8282873021552021504
:101530005502157302155802157302155B02155EEC
:1015400002156102156402156702156A02156D0223
:101550001570020C9A020F6F0210AD0215D3020E25
:10156000A502000802157702114B02174A0219CC96
:10157000021BA2121B7C22900000E0648070249069
:101580000003E0701E900002E07018900005E0700B
:1015900012900004E0700C900006E07004A3E06478
:1015A000016003021B7C90008AE09000CEB4040C22
:1015B00074FFF0A3741CF0A3742B800A74FFF0A3D3
:1015C000741CF0A37429F09000CCE4F0A304F01292
:1015D0001B4E22900000E07025900005E0701F90E7
:1015E0000004E07019900003E07013900002E0C363
:1015F0009480500A900006E07002A3E06003021B92
:101600007C900002E090013DF0FDE4FF121AAB90E7
:10161000013DE090008A60057403F080037402F0DD
:10162000121B9622121AF2EF30E0479000CEE0FB38
:10163000A3E0FAA3E0F97F201217C8EFFDC39000E2
:10164000CDE09DF09000CCE09400F09000CFE48FCE
:10165000F01206C89000CCE07002A3E0700D7D4847
:101660007F11121AABE49000CBF0227D407F111263
:101670001AAB22C0E0C0F0C083C082C0D075D000D9
:10168000C000C004C005C006C007900161E0FCA313
:10169000E0FDA3E0FEA3E02401FFE43EFEE43DFD07
:1016A000E43CFC900161120767D007D006D005D05A
:1016B00004D000D0D0D082D083D0F0D0E0329001DE
:1016C00003E0FFA3E0FEA3E0CF90010CF0A3EEF057
:1016D000A3EFF0900106E0CBF0A3E0CAF0A3E0C9CD
:1016E000F07F2290010FAD82AC8312065E8D828C5A
:1016F00083F0A309E970010ADFEC900106E0FBA387
:10170000E0FAA3E0F902087CE0FD90014C7401F0DE
:10171000900148EBF0A3EAF0A3E9F0AE05AF061E96
:10172000EF602090014CE02420FF900148E0FBA3F3
:10173000E475F0011206DEA9F0FA12065EFD121A37
:10174000AB80DA7D017F11021AAB90008AE0B4040D
:101750001D900000E0B48116900003E0701090002E
:1017600005E0700AA3E07004A3E064016003021BBB
:101770007C9000CE74FFF0A3741CF0A37429F09049
:1017800000CCE4F0A304F0121B4E22E4FDFF121A79
:10179000AB90008A7402F0E49000CBF00D7F0E1243
:1017A0001AAB7D487F11121AAB7D027F0E121AAB65
:1017B0007D487F11121AAB121AA77D907F14121A5E
:1017C000ABE4FD7F0E021AAB90013EEBF0A3EAF012
:1017D000A3E9F0AE077F16121AFBAD07AC05AF0503
:1017E0001DEF601BAF06121AFB90013EE0FBA3E465
:1017F00075F0011206DEA9F0FAEF1206A480DFAF41
:101800000422E4FCFD900161E0F8A3E0F9A3E0FA12
:10181000A3E02FFFEA3EFEED39FDEC38FC9000DD41
:10182000120767121B6D9000DDE0F8A3E0F9A3E05A
:10183000FAA3E0FBD312074350E9229000D3EBF068
:10184000A3EAF0A3E9F0121872E49000D6F0900039
:10185000D3E0FBA3E0FAA3E0F9A3E0F582758300EF
:10186000120677FF600B1219709000D6E004F0802A
:10187000DD229000D9ECF0A3EDF09000D7EEF0A3BC
:10188000EFF064014E7006A3A3E01480139000D71C
:10189000E07004A3E06402700D9000D9A3E0243F3F
:1018A0004480FF12199E22900140EBF0A3EAF0A3BE
:1018B000E9F0AE07900143E0FF14F0EF601BAF06C4
:1018C000900140E0FBA3E475F0011206DEA9F0FAF6
:1018D00012065EFD121AAB80DB2290008AE0B4048F
:1018E00008900000E064216003021B7C9000CE742D
:1018F00001F0A37401F0A3745AF0900006E0FFA376
:10190000E09000CCCFF0A3EFF0121B892290008A68
:10191000E0B40408900000E064A16003021B7C9026
:1019200000CE7401F0A37401F0A3745AF090000685
:10193000E0FFA3E09000CCCFF0A3EFF0121B4E220B
:10194000D280C2A5D2A6D2A77F017E00121802A221
:1019500080E4339000DCF07F017E00121802C2A701
:101960007F017E001218029000DCE0548070D722C4
:101970009000D7EFF0121940D2A5D2A67F017E00C9
:101980001218029000D7E024FF92807F017E00129F
:101990001802D2A77F017E00121802C2A72290006F
:1019A000DBEFF0121940C2A5C2A67F017E0012181B
:1019B000029000DBE024FF92807F017E001218027B
:1019C000D2A77F017E00121802C2A72290008AE0EF
:1019D000B4041B900000E0B40114900003E0700E0A
:1019E000900005E07008A3E07002A3E06003021B12
:1019F0007C121B9622EFB40A07740D121A00740AA7
:101A0000309811A899B8130CC2983098FDA899C2C3
:101A100098B811F63099FDC299F599224301570003
:101A20000000430154000000430151FF1C2D4401FC
:101A30004D4C5A4B00440161000000004100090078
:101A4000007D01121AF4AE07EE30E5077D407F11EC
:101A5000121AABEE30E207E4FD7F11121AABC20B93
:101A600022EF1FAC0670011E4C6014000000000045
:101A70000000000000000000000000000080E222E2
:101A80007D02121AF4AE07EE30E5077D407F111299
:101A90001AABEE30E207E4FD7F11121AAB22E4F03C
:101AA000A374C8F053AF7F7D017F0EE5FC20E7FBF8
:101AB000EF547FF5FCAF058FEC2290013DEEF0A3D3
:101AC000EFF0E0A3F090013DE0900140F090013F85
:101AD000E0FEA3E0FF22900001E024DF600A146032
:101AE0000A240270090218DA02190D021B25121BC2
:101AF0007C22E4FD7F0E121AAB7F11E5FC20E7FB90
:101B0000EF4480F5FCE5FC20E7FBAFEC22AB07AA35
:101B100006EB1BAE0270011A4E60097FE87E0312CD
:101B20001A6180ED2290008AE0B40408900000E081
:101B300064216003021B7C121B9622538E7F538903
:101B4000F0758A30758CF8C28DD28CD2A9229000A3
:101B5000CB7403F07D407F11121AAB0213797BFF27
:101B60007A1C79507D027C0012100FD32290016103
:101B7000E0FCA3E0FDA3E0FEA3E0FF229000CB7415
:101B800005F07D607F11021AAB9000CB7404F07DEC
:101B9000407F11021AABE49000CBF07D487F110228
:101BA0001AAB021B7C021B7C2222120100020200E3
:101BB0000040BF3402FF000101020001090243009E
:101BC0000201008032090400000102020100052424
:101BD000001001052401000104240202052406006E
:101BE00001070582034000FF09040100020A00000A
:101BF00000070581024000000705010240000004C3
:101C000003090408035300540043001E0353005407
:101C1000004300200055005300420020005300659F
:101C2000007200690061006C000000010040535424
:101C30004349535023004858373131203D20256413
:101C40000A004C434444415441203D2025730A007E
:031C50006F6B00B7
:00000001FF
