:10000000021BDB12132980FE02281B022248C0E0DB
:10001000C0F0C083C082C0D075D000C000C001C095
:1000200002C003C004C005C006C007900200E5FC82
:10003000F07F061227659001FDEFF07F0212276521
:10004000A3EFF07F04122765A3EFF09001FDE030ED
:10005000E1031200C29001FDE030E2031223A890F8
:1000600001FEE030E003121E749001FEE030E10377
:100070001226AB9001FEE030E2031226EA9001FF67
:10008000E030E1031215A89001FDE030E00312001A
:10009000C9900200E0F5FCD007D006D005D004D00E
:1000A00003D002D001D000D0D0D082D083D0F0D005
:1000B000E0329000CB7403F07D407F1112271502CF
:0A00C0001EEC2202279002281B22EA
:1000CB0002000EF920E73624F950037907E4F424F3
:1000DB0002FBE582158270021583DBF6E024FB50F0
:1000EB001BE96014E4F0E582158270021583E004CD
:1000FB00F0B40A08E4F0D9EE7401F00A22C2D5225A
:10010B00ED33EC3392D5FA602AB4FF33EDC2E77BC3
:10011B00FF60067A017930E4227A01793920D5041F
:10012B007A017934224E614E002B494E46002D49FF
:10013B004E4600E47A08F0A3DAFC7B00740722C079
:10014B0083C082ECC0E0EDC0E0EEC0E0EFC0E0EABF
:10015B0075F010A4CAABF075F04DA42BFBE435F091
:10016B00FCEA2410FAEB34C5FBEC34D9FCEDC2E706
:10017B00FF75F056A4F42411C5F0F434C58FF0A428
:10018B002AE5F03BE43CF020E7141204DED0E0FF5C
:10019B00D0E0FED0E0FDD0E0FC1204118014F4049A
:1001AB001204DED0E0FFD0E0FED0E0FDD0E0FC1288
:1001BB000308D082D083E0FAEDD2E7CD33EC3324C1
:1001CB0082FBE4C3CF33CFCE33CECD33CD33DBF392
:1001DB007B0775F00A846004F0A31B0AE5F0F0A31B
:1001EB008FF0740AA4FFACF08EF0740AA42CFEAC52
:1001FB00F050010C8DF0740AA42CFDE435F0F0A343
:10020B00DBDE740722020553E86480F8E933E83338
:10021B0060110460F0ED33EC337009E8FCE9FDEAA2
:10022B00FEEBFF220460DED3EB9FEA9EE99DE8C262
:10023B00E78CF0C2F795F0400CE8CCF8E9CDF9EA81
:10024B00CEFAEBCFFB12051E85D0F05804700320BD
:10025B00D5B3E80470075002B2D502055D92D5EC18
:10026B000460F7E4CCC0E0C398F8603B94186008D6
:10027B00400DD0E0FB020535E4FBFAC9FC8028E811
:10028B0030E406E4C9FBE4CAFCE830E305E4C9CA80
:10029B00CBFCE854076010F8C3E913F9EA13FAEB47
:1002AB0013FBEC13FCD8F130F52FC3E49CFCEF9B54
:1002BB00FFEE9AFEED99FDD0E0FBEF4E4D4C701228
:1002CB0022DB0302055AEC2CFCEF33FFEE33FEED81
:1002DB0033FDED30E7EB020535EF2BFFEE3AFEED8C
:1002EB0039FDD0E0FB50130BBB000302055DED1392
:1002FB00FDEE13FEEF13FFEC13FC020535EC4D6026
:10030B0011E8497017ED33EC3304600DE4FCFFFE8C
:10031B00FD22E933E8330470F802055312051E5829
:10032B00046009E4CC2481500628500902055D289D
:10033B00400302055AC0E0EB4A7044B98006D0E096
:10034B00FB020549EF4E701CBD8008EBFFEAFEE98E
:10035B00FD80EBE98DF0A4FEE5F00203F1E9CDF9A8
:10036B00EAFEEBFFEF89F0A4FCE5F0CE89F0A42EBA
:10037B00FFE435F0CD89F0A42DFEE435F08067EF76
:10038B004E7005BD80D780C3EF8BF0A4ACF0EE8B25
:10039B00F0A42CFCE435F0F8EF8AF0A42CE5F0384F
:1003AB00FCE433CB8DF0A42CFCE5F03BF8EE8AF0AB
:1003BB00A42CFCE5F038F8E433CF89F0A42CFCE551
:1003CB00F038CF3400CE89F0A42FFFE5F03EFEE4E9
:1003DB0033C98DF0A42EFEE5F039CD8AF0A42FFFA2
:1003EB00E5F03EFEE43DFD33D0E0FB50070BBB00D8
:1003FB000F02055DEC2CFCEF33FFEE33FEED33FD0E
:10040B0002053502055DEC5D046005E859047003D7
:10041B0002055312051E580460F6EC4860F2EC70AE
:10042B0004FDFEFF22C860DB2481C85009C398601D
:10043B0002500602055A9850CAF582E9294B4A70B8
:10044B0005AB8202054975F0007C1A7880C3EF9BDF
:10045B00EE9AED99400DC3EF9BFFEE9AFEED99FDE1
:10046B00E842F0DC23ACF0D0E0FFD0E0FED0E0FDC2
:10047B00AB8220E7101BEB60BAEC2CFCEF33FFEEEA
:10048B0033FEED33FD020535E803F830E705C0F028
:10049B0075F000EF2FFFEE33FEED33FD40B830E784
:1004AB00C280AA3F8000004120000042C8000044E7
:1004BB007A0000461C400047C35000497424004B8F
:1004CB001896804CBEBC205A0E1BCA6753C21C74B4
:1004DB009DC5AEFB60065407601C232312050CEB75
:1004EB00543860091204F8120507120308ECF8EDF2
:1004FB00F9EEFAEFCB22EB12050780F15438032407
:10050B001C9004AEFE93FC0EEE93FD0EEE930ECEFE
:10051B0093FF22E9D2E7C933E833F892D5EDD2E75E
:10052B00CD33EC33FC5002B2D522EC30E7100FBFC9
:10053B00000C0EBE00080DBD00040BEB6014A2D521
:10054B00EB13FCED92E7FD2274FFFCFDFEFF22E4B2
:10055B0080F8A2D574FF13FC7D80E480EFE709F6E9
:10056B0008DFFA8046E709F208DFFA803E88828CC2
:10057B0083E709F0A3DFFA8032E309F608DFFA809C
:10058B0078E309F208DFFA807088828C83E309F044
:10059B00A3DFFA806489828A83E0A3F608DFFA80FE
:1005AB005889828A83E0A3F208DFFA804C80D280DC
:1005BB00FA80C680D4806980F28033801080A68058
:1005CB00EA809A80A880DA80E280CA803389828AA6
:1005DB0083ECFAE493A3C8C582C8CCC583CCF0A343
:1005EB00C8C582C8CCC583CCDFE9DEE7800D898224
:1005FB008A83E493A3F608DFF9ECFAA9F0EDFB226A
:10060B0089828A83ECFAE0A3C8C582C8CCC583CCA7
:10061B00F0A3C8C582C8CCC583CCDFEADEE880DB9B
:10062B0089828A83E493A3F208DFF980CC88F0EF08
:10063B0060010E4E60C388F0ED2402B4040050B983
:10064B00F582EB2402B4040050AF232345822390A0
:10065B0005B873BB010689828A83E0225002E72228
:10066B00BBFE02E32289828A83E49322BB010CE561
:10067B008229F582E5833AF583E0225006E925824B
:10068B00F8E622BBFE06E92582F8E222E58229F58F
:10069B0082E5833AF583E49322BB010689828A8340
:1006AB00F0225002F722BBFE01F322EF8DF0A4A83B
:1006BB00F0CF8CF0A428CE8DF0A42EFE22BC000B24
:1006CB00BE0029EF8DF084FFADF022E4CCF875F07D
:1006DB0008EF2FFFEE33FEEC33FCEE9DEC9840055C
:1006EB00FCEE9DFE0FD5F0E9E4CEFD22EDF8F5F022
:1006FB00EE8420D21CFEADF075F008EF2FFFED332A
:10070B00FD4007985006D5F0F222C398FD0FD5F0A7
:10071B00EA22C5F0F8A3E028F0C5F0F8E5821582CF
:10072B0070021583E038F022A3F8E0C5F025F0F055
:10073B00E582158270021583E0C838F0E822E88F55
:10074B00F0A4CC8BF0A42CFCE98EF0A42CFC8AF04A
:10075B00EDA42CFCEA8EF0A4CDA8F08BF0A42DCC4C
:10076B003825F0FDE98FF0A42CCD35F0FCEB8EF0A5
:10077B00A4FEA9F0EB8FF0A4CFC5F02ECD39FEE48B
:10078B003CFCEAA42DCE35F0FDE43CFC2275F008D0
:10079B00758200EF2FFFEE33FECD33CDCC33CCC5BE
:1007AB008233C5829BED9AEC99E58298400CF582D9
:1007BB00EE9BFEED9AFDEC99FC0FD5F0D6E4CEFB4B
:1007CB00E4CDFAE4CCF9A88222B800C1B90059BA39
:1007DB00002DEC8BF084CFCECDFCE5F0CBF9781867
:1007EB00EF2FFFEE33FEED33FDEC33FCEB33FB1061
:1007FB00D703994004EB99FB0FD8E5E4F9FA22787B
:10080B0018EF2FFFEE33FEED33FDEC33FCC933C98C
:10081B0010D7059BE99A4007EC9BFCE99AF90FD896
:10082B00E0E4C9FAE4CCFB2275F010EF2FFFEE33B6
:10083B00FEED33FDCC33CCC833C810D7079BEC9AF5
:10084B00E899400AED9BFDEC9AFCE899F80FD5F07E
:10085B00DAE4CDFBE4CCFAE4C8F922EB9FF5F0EA3D
:10086B009E42F0E99D42F0E89C45F022E8600FEFD4
:10087B00C333FFEE33FEED33FDEC33FCD8F122EC4A
:10088B00F0A3EDF0A3EEF0A3EFF022A8828583F0A6
:10089B00D083D0821208AD1208AD1208AD1208AD8C
:1008AB00E473E493A3C583C5F0C583C8C582C8F0C0
:1008BB00A3C583C5F0C583C8C582C822F8E0FBA3D6
:1008CB00A3E0F925F0F0E582158270021583E0FABA
:1008DB0038F022EBF0A3EAF0A3E9F022D083D08228
:1008EB00F8E4937012740193700DA3A393F8740141
:1008FB0093F5828883E4737402936860EFA3A3A3D8
:10090B0080DFEC8EF0A4CCC5F0CCCDF8EFA4CEC537
:10091B00F02DFDE43CFCE8A42EC8C5F03DFDE43C05
:10092B00FCEFA4FFE5F028FEE43DFDE43CFC22E5F2
:10093B000D240BF582E43402F583E0050D229002C1
:10094B000830100390020BE475F0011208C7020681
:10095B005E2009E97F2ED2098018EF540F2490D422
:10096B003440D4FF300D0BEF24BFB41A00500324D6
:10097B0061FFE50E6002150E0511E5117002051001
:10098B0030100E900208E475F0011208C7EF020652
:10099B00A40226627403D2108003E4C210F50D90FA
:1009AB0002081208DEE4F50EF510F511E50E6007EE
:1009BB007F2012097D80F5750FFFC20AC209C20B99
:1009CB00C20CC20EC20FC211120949FF700D3010BA
:1009DB00057F0012098EAF11AE1022B4255FC2D570
:1009EB00C20D120949FF24D0B40A00501A75F00A3F
:1009FB00780E30D50508B6FF0106C6A426F620D51D
:100A0B00047002D20C80D924CFB41A00EF5004C268
:100A1B00E5D20D020C80D20A80C6D20980C0D20B5F
:100A2B0080BCD2D580BAD20E80B47F2012097D2033
:100A3B000B077401B50E0040F112093AFF12097D44
:100A4B000209B7D211D20F809512093AFB12093A5B
:100A5B00FA12093AF94A4B7006797E7A0D7BFF2020
:100A6B000B2EE50E602A7E008E82758300120677B0
:100A7B0060060EEE650F70F0C2D5EBC0E0EAC0E089
:100A8B00E9C0E0EE120CE1D0E0F9D0E0FAD0E0FBE7
:100A9B0012065EFF60AAEBC0E0EAC0E0E9C0E0121C
:100AAB00097DD0E02401F9D0E03400FAD0E0FBE579
:100ABB000F0460DCD50FD98087D20B80A2120CC338
:100ACB0060F7E50F7001041200CEA90F600DE50F62
:100ADB00600914F50F120D6BEF60F3EA30E702F4C7
:100AEB0004C3995079EAF4250F0430E701E404F5C7
:100AFB000F800D120CC360C1EA050F250F1200CE3B
:100B0B00EA900237F030E701E4250F04D50F0420FB
:100B1B000E0114120CE1E4C0E0120D6B900237E0F1
:100B2B00601320E70714F0120965802204F0D0E06F
:100B3B0014C0E07F00120965E50F600712095C1510
:100B4B000F800B300E0312095CD0E00209B7D0E026
:100B5B000480C4120CC3609EE50F041200CE9002F9
:100B6B0037EAF0E50F200E026001042404120CE1B9
:100B7B0074FF04C0E0120D6B120965E50F200E0225
:100B8B00600312095CD0E0B50FE87F4512096F9046
:100B9B000237E07F2B30E7047F2DF404C0E012090D
:100BAB007DD0E075F00A84C0F0120966D0E012091E
:100BBB00660209B7791080027908C20FC21180084A
:100BCB00D2D5790A8004790AC2D5E50F047002F5F3
:100BDB000FE4FAFDFEFF12093AFC7B08200A131200
:100BEB00093AFD7B1030090A12093AFE12093AFF45
:100BFB007B20EC3382D592D55013C3E43009069F8A
:100C0B00FFE49EFEE4200A039DFDE49CFCE4CBF88C
:100C1B00C20AEC700CCFCECDCCE824F8F870F38080
:100C2B0017C3EF33FFEE33FEED33FDEC33FCEB3349
:100C3B00FB994002FB0FD8E9EB300A05F8D0E0C472
:100C4B0048B20AC0E00AEC4D4E4F78207B0070C2D0
:100C5B00EAB50F0040BCC0E0120CE3D0F0D0E020AE
:100C6B000A04C4C0E0C4B20AC0F0120966D0F0D5C1
:100C7B00F0EB0209B71208E70A54530BBF580A25C9
:100C8B004C0A21420BC34F0BCB440BCB490A3A43C3
:100C9B000BD1550AFE460B5E450AC8470D9E500AFE
:100CAB00292D0A2D2E0A502B0A31230A4E200D878F
:100CBB002A09E94800000A48E50FB4FF03750F063F
:100CCB0012093AFC12093AFD12093AFE12093AFFCF
:100CDB0090023002010B790AA2D5200C14300E09B8
:100CEB00B910020404B9080104A2D5200F02500167
:100CFB0004200B68920BB50E005034C0E07F2030FF
:100D0B000C197F30A20B720F720E500F120D3AC2DC
:100D1B000BC20FC20EC2117F30800F300E03E9C021
:100D2B00E012097D300E03D0E0F9D0E0B50ECC30E7
:100D3B000E177F30B9100C12097D7F58300D077FCD
:100D4B00788003B9080312097D300B057F2D02094A
:100D5B007D7F202011F87F2B200FF322920B80CF69
:100D6B007F00B40700500B2430F582E43402F58386
:100D7B00E0FF22286E756C6C2900D20A12093A30FA
:100D8B000AF8C20A780E30D50108F60209E92D508F
:100D9B0043495812093A2403B405004001E4900D6D
:100DAB00999312096E743A12096ED20C750E0402E5
:100DBB000BBF7BFF7A2879707D017C007F027E0060
:100DCB001224587BFF7A28796E7D0F7C007F027E80
:100DDB00001224587BFF7A2879B47D017C007F01B7
:100DEB007E001224587BFF7A2879BC7D0C7C007F17
:100DFB00017E001224587BFF7A28796E7D107C00CF
:100E0B007F017E001224581227FEA804A905AA060A
:100E1B00AB07900167E0FCA3E0FDA3E0FEA3E02499
:100E2B00F4FFEE3401FEE43DFDE43CFCD312086616
:100E3B00407890015BE0FCA3E0FDA3E0FEA3E0FFA4
:100E4B0090019912088A900185E0FEA3E0FF121D24
:100E5B007990015FEEF0A3EFF07BFF7A2879909009
:100E6B00015FE0FFA3E090019ACFF0A3EFF0122017
:100E7B00357BFF7A2879BE900163E0FFA3E09001F8
:100E8B009ACFF0A3EFF01220357BFF7A2879D1901F
:100E9B000193E0FFA3E090019ACFF0A3EFF01220B3
:100EAB00351227FE90016712088A90020B74FFF02F
:100EBB00A37428F0A37479F090015FE0FFA3E09096
:100ECB00020ECFF0A3EFF07B017A01796F12099F2D
:100EDB007B017A01796F7D0A7C007F027E001224F0
:100EEB0058D3900160E0940090015FE094005011A2
:100EFB007BFF7A28799D7D0A7C007F027E0012247D
:100F0B0058900163E07002A3E070187BFF7A287998
:100F1B00E27D0DFC7F01FE122458E4900193F0A3B7
:100F2B00F0801B900163E0FCA3E0FD90015FE0FE0D
:100F3B00A3E0FF1206C8900193EEF0A3EFF090022E
:100F4B000B74FFF0A37428F0A374E6F0900163E038
:100F5B00FFA3E090020ECFF0A3EFF07B017A0179B3
:100F6B006F12099F7B017A01796F7D0D7C007F01E8
:100F7B007E00122458C3900194E09464900193E096
:100F8B0094004006E4F0A37464F090020B74FFF03D
:100F9B00A37428F0A374E6F0900193E0FFA3E09014
:100FAB00020ECFF0A3EFF07B017A01796F12099F4C
:100FBB007B017A01796F7D087C007F017E00122412
:100FCB0058900193E07002A3E0700F7BFF7A2879B1
:100FDB00E27D08FC7F01FE122458227BFF7A2879E0
:100FEB00707D017C007F027E0012245890015BE033
:100FFB00FCA3E0FDA3E0FEA3E0FF90019912088A99
:10100B00900185E0FEA3E0FF121D7990015FEEF0E9
:10101B00A3EFF090020B74FFF0A37428F0A3747984
:10102B00F0A3EEF0A3EFF07B017A01796F12099F29
:10103B007B017A01796F7D0A7C007F027E0012248E
:10104B00587BFF7A28796E7D0F7C007F027E001221
:10105B0024587BFF7A2879EA7D017C007F017E0092
:10106B0012245890020B74FFF0A37428F0A374E6BB
:10107B00F0900183E0FFA3E090020ECFF0A3EFF01E
:10108B007B017A01796F12099F7B017A01796F7D60
:10109B000C7C007F017E001224587BFF7A28796E2E
:1010AB007D107C007F017E00122458900183E0FAB2
:1010BB00A3E0FB90015FE0FEA3E0FFAD03AC0212E7
:1010CB0006C890018BEEF0A3EFF0EB4A700690018F
:1010DB008BF0A3F0900183E0FEA3E0FF90015FE0B3
:1010EB00FCA3E0FDD39FEC9E50030211B4ED4C70BA
:1010FB00030211B41227FEC004C005C006C007903E
:10110B000184E02432FD900183E03400FC90015F08
:10111B00E0FEA3E0FF1206C87C007D641206B6E475
:10112B00FDC004C005C006AB0790017EE0FEA3E046
:10113B00FF900187E0F8A3E0F9A3E0FAA3E02FFF0B
:10114B00EA3EFEED39FDEC38FCD002D001D000C3F5
:10115B00EF9BFBEE9AFAED99F9EC98F8D007D006D5
:10116B00D005D004C31208665043B2A4B2B4C2A0D7
:10117B007BFF7A2879F690015FE0FFA3E090019A5C
:10118B00CFF0A3EFF01220357BFF7A297904900181
:10119B0083E0FFA3E090019ACFF0A3EFF01220358C
:1011AB001227FE90018702088AD2A4D2B4227BFFB9
:1011BB007A2879697D017C007F017E001224587B9F
:1011CB00FF7A28796E7D0A7C007F017E00122458FD
:1011DB007BFF7A2879707D017C007F027E001224D0
:1011EB00587BFF7A28796E7D0F7C007F027E001280
:1011FB00245890020B74FFF0A37428F0A37479F0B9
:10120B00900165E0FFA3E090020ECFF0A3EFF07B1F
:10121B00017A01796F12099F7B017A01796F7D0544
:10122B007C007F017E001224581227FEA804A9051A
:10123B00AA06AB07900167E0FCA3E0FDA3E0FEA3C9
:10124B00E024F4FFEE3401FEE43DFDE43CFCD3125C
:10125B000866407290015BE0FCA3E0FDA3E0FEA3F7
:10126B00E0FF90019912088A900185E0FEA3E0FF50
:10127B00121D79900165E0FCA3E0FDC3EF9DFFEE2D
:10128B009C900161F0A3EFF07BFF7A28797D9001B0
:10129B005BE0FCA3E0FDA3E0FEA3E0FF90019A124C
:1012AB00088A1220357BFF7A287990900161E0FF44
:1012BB00A3E090019ACFF0A3EFF01220351227FE96
:1012CB0090016712088A90020B74FFF0A37428F048
:1012DB00A37479F0900161E0FFA3E090020ECFF0D0
:1012EB00A3EFF07B017A01796F12099F7B017A01E1
:1012FB00796F7D0A7C007F027E00122458D3900107
:10130B0062E09400900161E0940050117BFF7A2819
:10131B00799D7D0A7C007F027E0012245822E49086
:10132B000195F0A3F043BA80122689121FCA122727
:10133B00EBD2AF90008AE06404601AD3900196E080
:10134B0094C8900195E06480948040097F017E00F1
:10135B0012241F80DE1227D712280D121DF9121826
:10136B003590015B12088A7B017A0079D57D0020CC
:10137B00B6027D0112263B92137B017A0079D67D52
:10138B000020C6027D0112263B92147B017A007964
:10139B00D97D0020A3027D0112263B92157B017A99
:1013AB0001791A7D002090027D0112263B921630A6
:1013BB00130F9000D3E07004A3E0640270031221BA
:1013CB004D3015219000D3E07004A3E0640170034D
:1013DB001222DD9000D3E07004A3E0640370067F5B
:1013EB0003FE121F5F30160312258C1227FE90018D
:1013FB006BE0F8A3E0F9A3E0FAA3E0FBC3120866E5
:10140B0040030213729000D3E0FEA3E0FFEE706383
:10141B00EF24FE600C14600E240270571211B98079
:10142B0057120DBD805220B61530C6129000D3E076
:10143B007004A3E0640370067F01FE121F5F20C6D9
:10144B001530B6129000D3E07004A3E0640370066D
:10145B007F02FE121F5F20B61520C6129000D3E04C
:10146B007004A3E0640370067F04FE121F5F120F6B
:10147B00E680057F011225E6B2A01227FE90016BD4
:10148B0012088A021372900000E030E7709000039C
:10149B00E0706A900002E07064900006E07004A3B4
:1014AB00E0640260030215A1900000E0540F146089
:1014BB001914603C240260030215A1900005E07032
:1014CB0006900004E060190215A190008AE0B404B4
:1014DB000C900005E07006900004E060030215A17B
:1014EB009000CE74FFF0A37429F0A3749C021593A3
:1014FB0090008AE0B40406900005E060030215A199
:10150B00900004E0FE540F900201F0EE14604124B1
:10151B007F600304707E900201E0FF74017E00A8DF
:10152B0007088005C333CE33CED8F9FF9000D1E046
:10153B00FDEF5D9000CE600C74FFF0A37429F0A357
:10154B00749E800A74FFF0A37429F0A3749C8038F6
:10155B00900201E0FF74017E00A807088005C333E9
:10156B00CE33CED8F9FF9000D2E0FDEF5D9000CEE8
:10157B00600C74FFF0A37429F0A3749E800A74FFAF
:10158B00F0A37429F0A3749CF09000CCE4F0A37446
:10159B0002F08005800002281B1200B222122711D4
:1015AB007F14122765AE07EE30E6077D807F14129D
:1015BB002715EE20E00302169B7B017A00794A7F08
:1015CB00211223E5900008EFF0900180E0FBA3E0EF
:1015DB00FAA3E04A4B700302168BE4900201F090E1
:1015EB000008E0FF900201E0FEC39F400302168B50
:1015FB00900180E0FBA3E0FAA3E0F9900009E0FD85
:10160B003395E08D82F583120677FF744A2EF582AF
:10161B00E43400F583E06F7031900009E004F09042
:10162B000009E0FF3395E08F82F583120677704750
:10163B00FD7F14122715E4F5F4F5DC90FE07F07F1F
:10164B000AFE1227A975C76080FE900180E0FBA3FC
:10165B00E0FAA3E0F912065EFF900201E0244AF5DE
:10166B0082E43400F583E0B507089000097401F0BB
:10167B008005E4900009F0900201E004F00215EA05
:10168B00D2171227775009E4FD7F14122715C217C2
:10169B0022900202EBF0A3EAF0A3E9F0E4FFFE9044
:1016AB000205E0FBA3E0FAA3E0F912065EFDC3EF2F
:1016BB009DEE94005026900202E0FBA3E0FAA3E01B
:1016CB00F98F828E83120677FD741B2FF5827401BE
:1016DB003EF583EDF00FBF00010E80C390011BE0C0
:1016EB006423704290011DE024D0FFE434FFFE7CA4
:1016FB00007D0A1206B6AA06AB0790011CE024D0A7
:10170B00FFE434FFFE7D641206B6EF2BFFEE3AFECC
:10171B0090011EE024D0FDEC34FFCD2FFFED3E9069
:10172B0000D7F0A3EFF09000D7E0FEA3E0FF90010D
:10173B0085EEF0A3EFF090020B74FFF0A37429F089
:10174B00A37414F0A3EEF0A3EFF07B017A0079DA27
:10175B0012099F7B017A0079DA7D097C00021975E9
:10176B00900000E020E703021814900003E024FE31
:10177B006023146039240260030218149000CE74A5
:10178B00FFF0A37429F0A3741DF09000CCE4F0A338
:10179B007412F080779000CE74FFF0A37429F0A33D
:1017AB00742FF09000CCE4F0A37443F0805E9000B3
:1017BB0002E01460201460362402704B9000CE744B
:1017CB00FFF0A37429F0A37472F09000CCE4F0A3A3
:1017DB007404F080379000CE74FFF0A37429F0A34B
:1017EB007476F09000CCE4F0A37408F0801E9000A7
:1017FB00CE74FFF0A37429F0A3747EF09000CCE4B8
:10180B00F0A3741EF08005800002281B900006E0F8
:10181B00FEA3E0FFD39000CDE09F9000CCE09E4074
:10182B0005EEF0A3EFF01200B22290019912089688
:10183B000000000090019D12089600000000E4904B
:10184B000197F0A3F0121CF090019912088A9001F5
:10185B009DE0FCA3E0FDA3E0FEA3E0FF900199E077
:10186B00F8A3E0F9A3E0FAA3E0FBEF2BFFEE3AFEBF
:10187B00ED39FDEC38FCA312088A7F647E0012243C
:10188B001F900198E004F07006900197E004F0C3FC
:10189B00900198E09404900197E0940040A7900188
:1018AB009DE0FCA3E0FDA3E0FEA3E0FFE47B04FAD4
:1018BB00F9F81207D490019D12088A90019DE0FC63
:1018CB00A3E0FDA3E0FEA3E0FF2290008AE0640406
:1018DB007023900000E0B4021C900005E07016909D
:1018EB000003E07010900002E07078900006E0704A
:1018FB0002A3E06002806C900004E0FE540F9002A3
:10190B0001F0EE14602D247F60030470569000D11B
:10191B00E0FF900201E0FD7401A805088002C333CB
:10192B00D8FCF45F9000D1F07F0E1227157D407F1D
:10193B001180249000D2E0FF900201E0FD7401A819
:10194B0005088002C333D8FCF45F9000D2F07F0E01
:10195B001227157D807F14122715E4FD7F0E1227A9
:10196B0015800302281B12283522900208EBF0A3E6
:10197B00EAF0A3E9F0A3ECF0A3EDF090021012272C
:10198B0008E490020EF0A3F090020BE0FEA3E0FF40
:10199B00D39440EE6480948040067D407F4080006D
:1019AB0090020DEFF07F11122765EF30E00E9002E1
:1019BB001074FFF5F012073345F070E9900208E060
:1019CB00FBA3E0FAA3E0F990020EE0FEA3E0FFE92F
:1019DB002FF9EA3EFA90020D12232590020DE0FF3B
:1019EB00FD7C0090020FE02DF090020EE03CF0C366
:1019FB0090020CE09DF090020BE09CF0EFC3944042
:101A0B005086D21943AF802290008AE06404702381
:101A1B00900000E0B4021C900005E07016900003EB
:101A2B00E07010900002E07076900006E07002A368
:101A3B00E06002806A900004E0FE540F900201F017
:101A4B00EE14602C247F60030470549000D1E0FFEF
:101A5B00900201E0FD7401A805088002C333D8FC95
:101A6B004F9000D1F07F0E1227157D107F11802330
:101A7B009000D2E0FF900201E0FD7401A805088000
:101A8B0002C333D8FC4F9000D2F07F0E1227157D86
:101A9B00207F14122715E4FD7F0E122715800302F9
:101AAB00281B1228352290008AE0640260229000E5
:101ABB0000E0701C900003E07016900005E07010C1
:101ACB00900004E0700A900006E07002A3E060034F
:101ADB0002281B900002E0640190008A7054740489
:101AEB00F0E49000D1F09000D2F07D017F0E122730
:101AFB00157D207F121227157D087F101227157D6B
:101B0B00027F0E1227157D207F121227157D087F6D
:101B1B00101227157D017F0E122715E4FD7F12127F
:101B2B0027157D087F13122715E4FD7F0E1227154D
:101B3B00800D7403F09000D174FFF09000D2F0127E
:101B4B002835229001C7EEF0A3EFF09001CC1227BD
:101B5B0008E49001CAF0A3F09001C7E0FEA3E0FFF8
:101B6B00D39440EE940040067D407F40800090016E
:101B7B00C9EFF07F11122765EF30E00E9001CC74A6
:101B8B00FFF5F012073345F070E99001CAE0FEA3B0
:101B9B00E0240AF974003EFA7B019001C912232557
:101BAB009001C9E0FFFD9001CBE02DF09001CAE060
:101BBB003400F0C39001C8E09FF09001C7E094009F
:101BCB00F09001C9E0C39440508ED21943AF8022EC
:101BDB00787FE4F6D8FD758123021C22020003E412
:101BEB0093A3F8E493A34003F68001F208DFF4809B
:101BFB0029E493A3F85407240CC8C333C4540F44EB
:101C0B0020C8834004F456800146F6DFE4800B01C4
:101C1B0002040810204080901C67E47E019360BC96
:101C2B00A3FF543F30E509541FFEE493A360010E5C
:101C3B00CF54C025E060A840B8E493A3FAE493A383
:101C4B00F8E493A3C8C582C8CAC583CAF0A3C8C5A4
:101C5B0082C8CAC583CADFE9DEE780BE43019000B4
:101C6B00000043018D000000430180FF2844420126
:101C7B005F0000420183000042018501904200D7C2
:101C8B0001904201650000420161000042016300C6
:101C9B006444015B0000000044016B000000004441
:101CAB000167000000004401870000000042017E34
:101CBB0004B042018B00004100D5004100D6004129
:101CCB0000D90041011A00C113C114C115C116423C
:101CDB00019300004200D3000144023F00000000CA
:101CEB004100090000C2C79001A112089600000034
:101CFB00002091FDE4FBEBC3941874809480504258
:101D0B00D2C79001A1E0FCA3E0FDA3E0FEA3E0FF9E
:101D1B0078011208779001A112088AC2C730911F6F
:101D2B009001A1E0FCA3E0FDA3E0FEA3E02401FFF2
:101D3B00E43EFEE43DFDE43CFC9001A112088A0B5D
:101D4B0080B4D2C79001A1E0FCA3E0FDA3E0FEA309
:101D5B00E0FFED6480FDEC9001A112088AC2C790F0
:101D6B0001A1E0FCA3E0FDA3E0FEA3E0FF229001B4
:101D7B0097EEF0A3EFF0121CF090019D12088A90E1
:101D8B000199E0FCA3E0FDA3E0FEA3E0FFA3E0F8D4
:101D9B00A3E0F9A3E0FAA3E0FBC31208665012908C
:101DAB000199E0FCA3E0FDA3E0FEA3E0FFA3120872
:101DBB008A900199E0F8A3E0F9A3E0FAA3E0FBA372
:101DCB00E0FCA3E0FDA3E0FEA3E0C39BFFEE9AFEC5
:101DDB00ED99FDEC98FCC006C007900197E0FEA3BF
:101DEB00E0FBAA06E4F9F8D007D0060207D490026C
:101DFB000B74FFF0A37428F0A3744DF0A374FFF0E1
:101E0B00A37428F0A37450F07B017A01796F120947
:101E1B009F7B017A01796F7D027C007F017E00122E
:101E2B0024587FF47E0112241F90020B74FFF0A341
:101E3B007428F0A3744DF0A374FFF0A37428F0A3DF
:101E4B00745FF07B017A01796F12099F7B017A0134
:101E5B00796F7D047C007F027E001224587FD07E38
:101E6B000712241F7F010225E612275CAE07EE3016
:101E7B00E20D54FBFD7F11122715E49000CBF0EE21
:101E8B0030E4084480FD7F111227159000CBE0242D
:101E9B00FD604714604724047046EE30E0427B013E
:101EAB007A0079007F201223E5900006E0FEA3E084
:101EBB00FF122724900006EEF0A3EFF0900000E055
:101ECB00546024E0600B24E0600A24407009022077
:101EDB009502274002284102281B021EEC1221F911
:101EEB002212275CEF20E16B9000CCE0FEA3E0FF19
:101EFB00D39440EE940040067D407F4080009002DA
:101F0B0002EFF09000CEE0FBA3E0FAA3E0F9900221
:101F1B0007EFF07F201224C4900202E0FF7E00C383
:101F2B009000CDE09FF09000CCE09EF09000CFEEC3
:101F3B008FF012071D9000CCE07002A3E0700D7DB6
:101F4B000A7F11122715E49000CBF0227D027F113E
:101F5B0012271522EF64014E700F900184E004F0FC
:101F6B00705C900183E004F022EF64024E701CD38E
:101F7B00900184E09400900183E09400400DA3E075
:101F8B0024FFF0900183E034FFF022EF64034E60F6
:101F9B002DEF64044E702790015BE0FCA3E0FDA3E2
:101FAB00E0FEA3E0FF90019912088A900185E0FE04
:101FBB00A3E0FF121D79900183EEF0A3EFF0225303
:101FCB00B2FC43B10390FE077480F090FE07E03043
:101FDB00E0F9E4F5DC75F490FDFF1227157D087F21
:101FEB00011227157D3F7F071227157D3F7F0912B1
:101FFB0027157D077F0B122715E4FD7F011227158F
:10200B0090008A7402F0E49000CBF09000D1F0A322
:10201B00F090023812089600C20100E490023CF0E6
:10202B00A3F0A37408F043AF8022900197EBF0A3C9
:10203B00EAF0A3E9F09001C27401F0A37401F0A3DC
:10204B00749AF0900197E0F9A3E0FAA3E09001C72E
:10205B00C9F0A3EAF0A3E9F09001C2E0F9A3E0FA1A
:10206B00A3E09001CAC9F0A3EAF0A3E9F07B017ADF
:10207B0000790A1222939001C5EEF0A3EFF0121B28
:10208B004E9001C5E0FEA3E0FF22900001E0B40DED
:10209B0000504F9020A5F82828730220CC0220CFA7
:1020AB000220ED0220D20220ED0220D50220D80220
:1020BB0020DB0220DE0220E10220E40220E70220E6
:1020CB00EA0214910218D5021A130221A802176B07
:1020DB000200080220F1021AB10223670226120243
:1020EB0000C612281B22900000E064807024900030
:1020FB0003E0701E900002E07018900005E0701273
:10210B00900004E0700C900006E07004A3E0640102
:10211B00600302281B90008AE09000CEB4040C747C
:10212B00FFF0A37429F0A3749E800A74FFF0A374CC
:10213B0029F0A3749CF09000CCE4F0A304F01200FF
:10214B00B22290015BE0FCA3E0FDA3E0FEA3E0FF65
:10215B0090019912088A900185E0FEA3E0FF121D01
:10216B0079D3EF94E8EE9403400B9001637403F082
:10217B00A374E7F02290015BE0FCA3E0FDA3E0FE7B
:10218B00A3E0FF90019912088A900185E0FEA3E07D
:10219B00FF121D79900163EEF0A3EFF02290000087
:1021AB00E07025900005E0701F900004E07019901E
:1021BB000003E07013900002E0C39480500A90007B
:1021CB0006E07002A3E0600302281B900002E0907F
:1021DB000201F0FDE4FF122715900201E090008A46
:1021EB0060057403F080037402F012283522122765
:1021FB005CEF30E0479000CEE0FBA3E0FAA3E0F900
:10220B007F201223E5EFFDC39000CDE09DF0900001
:10221B00CCE09400F09000CFE48FF012071D9000FB
:10222B00CCE07002A3E0700D7D487F11122715E4FE
:10223B009000CBF0227D407F1112271522C0E0C009
:10224B00F0C083C082C0D075D000C000C004C005F0
:10225B00C006C00790023FE0FCA3E0FDA3E0FEA395
:10226B00E02401FFE43EFEE43DFDE43CFC90023F34
:10227B0012088AD007D006D005D004D000D0D0D019
:10228B0082D083D0F0D0E0329001C7E0FFA3E0FE14
:10229B00A3E0CF90020BF0A3EEF0A3EFF09001CAF6
:1022AB00E0CBF0A3E0CAF0A3E0C9F07F2290020ECE
:1022BB00AD82AC8312065E8D828C83F0A309E9702C
:1022CB00010ADFEC9001CAE0FBA3E0FAA3E0F902FC
:1022DB00099F3015449000D3E07004A3E0640170B3
:1022EB003890015BE0FCA3E0FDA3E0FEA3E0FF90D0
:1022FB00019912088A900185E0FEA3E0FF121D7977
:10230B00900165EEF0A3EFF07BFF7A2879A29001A4
:10231B009AEEF0A3EFF012203522E0FD9002167436
:10232B0001F0900212EBF0A3EAF0A3E9F0AE05AFD7
:10233B00061EEF6020900216E02420FF900212E0B0
:10234B00FBA3E475F001120733A9F0FA12065EFD48
:10235B0012271580DA7D017F1102271590008AE084
:10236B00B4041D900000E0B48116900003E07010DF
:10237B00900005E0700AA3E07004A3E06401600321
:10238B0002281B9000CE74FFF0A37429F0A3749C59
:10239B00F09000CCE4F0A304F01200B222E4FDFFB5
:1023AB0012271590008A7402F0E49000CBF00D7F99
:1023BB000E1227157D487F111227157D027F0E12F5
:1023CB0027157D487F111227151227117D907F1439
:1023DB00122715E4FD7F0E022715900202EBF0A3E6
:1023EB00EAF0A3E9F0AE077F16122765AD07AC053F
:1023FB00AF051DEF601BAF06122765900202E0FBD5
:10240B00A3E475F001120733A9F0FAEF1206A480CA
:10241B00DFAF0422E4FCFD90023FE0F8A3E0F9A358
:10242B00E0FAA3E02FFFEA3EFEED39FDEC38FC901D
:10243B0001A112088A1227FE9001A1E0F8A3E0F98E
:10244B00A3E0FAA3E0FBD312086650E922900197B0
:10245B00EBF0A3EAF0A3E9F012248FE490019AF0D9
:10246B00900197E0FBA3E0FAA3E0F9A3E0F58275F6
:10247B008300120677FF600B1225BA90019AE004D5
:10248B00F080DD2290019DECF0A3EDF090019BEE2E
:10249B00F0A3EFF064014E7006A3A3E01480139039
:1024AB00019BE07004A3E06402700D90019DA3E01A
:1024BB00243F4480FF1225E622900204EBF0A3EAAE
:1024CB00F0A3E9F0AE07900207E0FF14F0EF601BFA
:1024DB00AF06900204E0FBA3E475F001120733A9E9
:1024EB00F0FA12065EFD12271580DB2290008AE0BF
:1024FB00B40408900000E06421600302281B9000E4
:10250B00CE7401F0A37402F0A37438F0900006E0CF
:10251B00FFA3E09000CCCFF0A3EFF012282822907D
:10252B00008AE0B40408900000E064A16003022874
:10253B001B9000CE7401F0A37402F0A37438F090DA
:10254B000006E0FFA3E09000CCCFF0A3EFF0120069
:10255B00B2227580FFC2A5D2A6D2A77F017E001240
:10256B00241F9001A0E580F07F017E0012241FC282
:10257B00A77F017E0012241F9001A0E0548070D928
:10258B0022D2A4D2B47F011225E69000D4E004F04D
:10259B0070069000D3E004F0D39000D4E094039045
:1025AB0000D3E0648094804005E4F0A304F0229013
:1025BB00019BEFF012255DD2A5C2A67F017E001212
:1025CB00241F90019BE0F5807F017E0012241FD217
:1025DB00A77F017E0012241FC2A72290019FEFF05C
:1025EB0012255DC2A5C2A67F017E0012241F900199
:1025FB009FE0F5807F017E0012241FD2A77F017E12
:10260B000012241FC2A72290008AE0B4041B900082
:10261B0000E0B40114900003E0700E900005E07030
:10262B0008A3E07002A3E0600302281B12283522E6
:10263B00ED7002801512065EFFC3940A74809480BD
:10264B0040047F0A8003EF04FFEF1206A412065E1C
:10265B006409C37001D322EFB40A07740D12266DFF
:10266B00740A309811A899B8130CC2983098FDA829
:10267B0099C298B811F63099FDC299F59922E4F5F3
:10268B0094F593F592F591F596F595F5B2F5B1F5BF
:10269B00B4F5B3F5CAF5C9F5CCF5CBF5E2F5E12206
:1026AB007D0112275EAE07EE30E5077D407F1112EC
:1026BB002715EE30E207E4FD7F11122715C2192210
:1026CB00EF1FAC0670011E4C6014000000000000F0
:1026DB0000000000000000000000000080E2227DEE
:1026EB000212275EAE07EE30E5077D407F11122701
:1026FB0015EE30E207E4FD7F1112271522E4F0A35B
:10270B0074C8F053AF7F7D017F0EE5FC20E7FBEF34
:10271B00547FF5FCAF058FEC22900201EEF0A3EF96
:10272B00F0E0A3F0900201E0900204F0900203E0CD
:10273B00FEA3E0FF22900001E024DF600A14600A90
:10274B00240270090224F702252A0227C112281B32
:10275B0022E4FD7F0E1227157F11E5FC20E7FBEF2E
:10276B004480F5FCE5FC20E7FBAFEC2290020574FE
:10277B0001F0A37400F0A37408F07B017A00794A8E
:10278B0012169CD322C0E0C083C08290FE82E03040
:10279B00E60574BFF0C212D082D083D0E032AB0713
:1027AB00AA06EB1BAE0270011A4E60097FE87E038E
:1027BB001226CB80ED2290008AE0B4040890000032
:1027CB00E06421600302281B122835227F38122572
:1027DB00E67F0C1225E67F061225E67F010225E631
:1027EB00538E7F5389F0758A30758CF8C28DD28CDD
:1027FB00D2A92290023FE0FCA3E0FDA3E0FEA3E000
:10280B00FF2290FE8074E0F090FE82E4F0D2AF22C3
:10281B009000CB7405F07D607F110227159000CBE3
:10282B007404F07D407F11022715E49000CBF07DFE
:10283B00487F1102271502281B405354434953501C
:10284B002300257300323032333536303330323398
:10285B00313835004C696E5A68694B6169005069B3
:10286B00203A006700576569676874203A00253481
:10287B0064007765696768745F62617365203D20EA
:10288B00256C750A00776569676874203D2025649F
:10289B000A0020202030007765696768745F7461D7
:1028AB007265203D2025640A00436F756E74203AD3
:1028BB000078007765696768745F636F756E742065
:1028CB003D2025640A004974656D5F436F756E7416
:1028DB00203D2025640A002020300025336400743D
:1028EB0068726573686F6C64203A00776569676816
:1028FB0074203D202534640A007468726573686F18
:10290B006C64203D20253364006B203D202533640F
:10291B000A001201000202000040BF3402FF000156
:10292B000102000109024300020100803209040088
:10293B000001020201000524001001052401000121
:10294B00042402020524060001070582034000FF50
:10295B0009040100020A0000000705810240000083
:10296B000705010240000004030904080353005447
:10297B000043001E03530054004300200055005336
:10298B000042002000530065007200690061006C7A
:05299B00000000010036
:00000001FF
