:10000000021F512019FDD2198F85220225F9900176
:10001000EDEEF0A3EFF0121FDD9001F31208AC90AB
:1000200001EFE0FCA3E0FDA3E0FEA3E0FFA3E0F806
:10003000A3E0F9A3E0FAA3E0FBC3120888501290F2
:1000400001EFE0FCA3E0FDA3E0FEA3E0FFA31208A4
:10005000AC9001EFE0F8A3E0F9A3E0FAA3E0FBA382
:10006000E0FCA3E0FDA3E0FEA3E0C39BFFEE9AFE4D
:10007000ED99FDEC98FCC006C0079001EDE0FEA3F1
:10008000E0FBAA06E4F9F8D007D0060207F6120D45
:10009000DF80FE0227F89001F3ECF0A3EDF0900171
:1000A000F1EEF0A3EFF064014E7006A3A3E014801C
:1000B000139001F1E07004A3E06402700D9001F36D
:1000C000A3E0243F4480FF12298222021B07F9206B
:1000D000E73624F950037907E4F42402FBE582159E
:1000E0008270021583DBF6E024FB501BE96014E408
:1000F000F0E582158270021583E004F0B40A08E48A
:10010000F0D9EE7401F00A22C2D522ED33EC33921D
:10011000D5FA602AB4FF33EDC2E77BFF60067A01AF
:100120007930E4227A01793920D5047A01793422B0
:100130004E614E002B494E46002D494E4600E47A52
:1001400008F0A3DAFC7B00740722C083C082ECC0F5
:10015000E0EDC0E0EEC0E0EFC0E0EA75F010A4CA48
:10016000ABF075F04DA42BFBE435F0FCEA2410FA5B
:10017000EB34C5FBEC34D9FCEDC2E7FF75F056A4B7
:10018000F42411C5F0F434C58FF0A42AE5F03BE463
:100190003CF020E7141204DED0E0FFD0E0FED0E017
:1001A000FDD0E0FC1204118014F4041204DED0E04F
:1001B000FFD0E0FED0E0FDD0E0FC120308D082D0FA
:1001C00083E0FAEDD2E7CD33EC332482FBE4C3CFF6
:1001D00033CFCE33CECD33CD33DBF37B0775F00A8F
:1001E000846004F0A31B0AE5F0F0A38FF0740AA466
:1001F000FFACF08EF0740AA42CFEACF050010C8D14
:10020000F0740AA42CFDE435F0F0A3DBDE740722C1
:10021000020553E86480F8E933E83360110460F0C4
:10022000ED33EC337009E8FCE9FDEAFEEBFF220454
:1002300060DED3EB9FEA9EE99DE8C2E78CF0C2F74F
:1002400095F0400CE8CCF8E9CDF9EACEFAEBCFFB1B
:1002500012051E85D0F05804700320D5B3E8047051
:10026000075002B2D502055D92D5EC0460F7E4CCEC
:10027000C0E0C398F8603B94186008400DD0E0FBE4
:10028000020535E4FBFAC9FC8028E830E406E4C93D
:10029000FBE4CAFCE830E305E4C9CACBFCE8540738
:1002A0006010F8C3E913F9EA13FAEB13FBEC13FC43
:1002B000D8F130F52FC3E49CFCEF9BFFEE9AFEEDE6
:1002C00099FDD0E0FBEF4E4D4C701222DB0302058E
:1002D0005AEC2CFCEF33FFEE33FEED33FDED30E74F
:1002E000EB020535EF2BFFEE3AFEED39FDD0E0FBDA
:1002F00050130BBB000302055DED13FDEE13FEEF83
:1003000013FFEC13FC020535EC4D6011E849701742
:10031000ED33EC3304600DE4FCFFFEFD22E933E82D
:10032000330470F802055312051E58046009E4CC2A
:100330002481500628500902055D28400302055A11
:10034000C0E0EB4A7044B98006D0E0FB020549EFFB
:100350004E701CBD8008EBFFEAFEE9FD80EBE98DE5
:10036000F0A4FEE5F00203F1E9CDF9EAFEEBFFEFC0
:1003700089F0A4FCE5F0CE89F0A42EFFE435F0CDA1
:1003800089F0A42DFEE435F08067EF4E7005BD8046
:10039000D780C3EF8BF0A4ACF0EE8BF0A42CFCE480
:1003A00035F0F8EF8AF0A42CE5F038FCE433CB8D7F
:1003B000F0A42CFCE5F03BF8EE8AF0A42CFCE5F070
:1003C00038F8E433CF89F0A42CFCE5F038CF3400C2
:1003D000CE89F0A42FFFE5F03EFEE433C98DF0A4F2
:1003E0002EFEE5F039CD8AF0A42FFFE5F03EFEE4C5
:1003F0003DFD33D0E0FB50070BBB000F02055DEC69
:100400002CFCEF33FFEE33FEED33FD020535020524
:100410005DEC5D046005E8590470030205531205A4
:100420001E580460F6EC4860F2EC7004FDFEFF22FA
:10043000C860DB2481C85009C398600250060205D9
:100440005A9850CAF582E9294B4A7005AB820205D9
:100450004975F0007C1A7880C3EF9BEE9AED9940C5
:100460000DC3EF9BFFEE9AFEED99FDE842F0DC2311
:10047000ACF0D0E0FFD0E0FED0E0FDAB8220E71092
:100480001BEB60BAEC2CFCEF33FFEE33FEED33FDDB
:10049000020535E803F830E705C0F075F000EF2FEE
:1004A000FFEE33FEED33FD40B830E7C280AA3F8057
:1004B00000004120000042C80000447A0000461CB1
:1004C000400047C35000497424004B1896804CBE2E
:1004D000BC205A0E1BCA6753C21C749DC5AEFB607C
:1004E000065407601C232312050CEB5438600912D4
:1004F00004F8120507120308ECF8EDF9EEFAEFCB59
:1005000022EB12050780F1543803241C9004AEFE40
:1005100093FC0EEE93FD0EEE930ECE93FF22E9D2E6
:10052000E7C933E833F892D5EDD2E7CD33EC33FCAD
:100530005002B2D522EC30E7100FBF000C0EBE0007
:10054000080DBD00040BEB6014A2D5EB13FCED927B
:10055000E7FD2274FFFCFDFEFF22E480F8A2D574C3
:10056000FF13FC7D80E480EFE709F608DFFA8046A0
:10057000E709F208DFFA803E88828C83E709F0A35E
:10058000DFFA8032E309F608DFFA8078E309F2083F
:10059000DFFA807088828C83E309F0A3DFFA80643D
:1005A00089828A83E0A3F608DFFA805889828A83E9
:1005B000E0A3F208DFFA804C80D280FA80C680D4B3
:1005C000806980F28033801080A680EA809A80A8BB
:1005D00080DA80E280CA803389828A83ECFAE493ED
:1005E000A3C8C582C8CCC583CCF0A3C8C582C8CC7B
:1005F000C583CCDFE9DEE7800D89828A83E493A39B
:10060000F608DFF9ECFAA9F0EDFB2289828A83EC87
:10061000FAE0A3C8C582C8CCC583CCF0A3C8C58204
:10062000C8CCC583CCDFEADEE880DB89828A83E43C
:1006300093A3F208DFF980CC88F0EF60010E4E60E2
:10064000C388F0ED2402B4040050B9F582EB240213
:10065000B4040050AF23234582239005B873BB0137
:100660000689828A83E0225002E722BBFE02E3224F
:1006700089828A83E49322BB010CE58229F582E515
:10068000833AF583E0225006E92582F8E622BBFE94
:1006900006E92582F8E222E58229F582E5833AF52A
:1006A00083E49322BB010689828A83F0225002F7F9
:1006B00022BBFE01F322F8BB010DE58229F582E59C
:1006C000833AF583E8F0225006E92582C8F622BB7A
:1006D000FE05E92582C8F222EF8DF0A4A8F0CF8CA8
:1006E000F0A428CE8DF0A42EFE22BC000BBE002963
:1006F000EF8DF084FFADF022E4CCF875F008EF2F19
:10070000FFEE33FEEC33FCEE9DEC984005FCEE9DD5
:10071000FE0FD5F0E9E4CEFD22EDF8F5F0EE8420F1
:10072000D21CFEADF075F008EF2FFFED33FD400752
:10073000985006D5F0F222C398FD0FD5F0EA22C5F5
:10074000F0F8A3E028F0C5F0F8E5821582700215F4
:1007500083E038F022A3F8E0C5F025F0F0E582153B
:100760008270021583E0C838F0E822E88FF0A4CC4C
:100770008BF0A42CFCE98EF0A42CFC8AF0EDA42CC8
:10078000FCEA8EF0A4CDA8F08BF0A42DCC3825F097
:10079000FDE98FF0A42CCD35F0FCEB8EF0A4FEA982
:1007A000F0EB8FF0A4CFC5F02ECD39FEE43CFCEA8F
:1007B000A42DCE35F0FDE43CFC2275F008758200D6
:1007C000EF2FFFEE33FECD33CDCC33CCC58233C516
:1007D000829BED9AEC99E58298400CF582EE9BFEA7
:1007E000ED9AFDEC99FC0FD5F0D6E4CEFBE4CDFA02
:1007F000E4CCF9A88222B800C1B90059BA002DECA6
:100800008BF084CFCECDFCE5F0CBF97818EF2FFF3D
:10081000EE33FEED33FDEC33FCEB33FB10D70399E5
:100820004004EB99FB0FD8E5E4F9FA227818EF2F92
:10083000FFEE33FEED33FDEC33FCC933C910D705B1
:100840009BE99A4007EC9BFCE99AF90FD8E0E4C9D0
:10085000FAE4CCFB2275F010EF2FFFEE33FEED3300
:10086000FDCC33CCC833C810D7079BEC9AE899402D
:100870000AED9BFDEC9AFCE899F80FD5F0DAE4CD8F
:10088000FBE4CCFAE4C8F922EB9FF5F0EA9E42F0D3
:10089000E99D42F0E89C45F022E8600FEFC333FF8A
:1008A000EE33FEED33FDEC33FCD8F122ECF0A3ED9A
:1008B000F0A3EEF0A3EFF022A8828583F0D083D0DE
:1008C000821208CF1208CF1208CF1208CFE473E4C7
:1008D00093A3C583C5F0C583C8C582C8F0A3C583EB
:1008E000C5F0C583C8C582C822F8E0FBA3A3E0F920
:1008F00025F0F0E582158270021583E0FA38F022C7
:10090000EBF0A3EAF0A3E9F022D083D082F8E493DD
:100910007012740193700DA3A393F8740193F58280
:100920008883E4737402936860EFA3A3A380DFEC71
:100930008EF0A4CCC5F0CCCDF8EFA4CEC5F02DFD43
:10094000E43CFCE8A42EC8C5F03DFDE43CFCEFA46B
:10095000FFE5F028FEE43DFDE43CFC22E50D2461CA
:10096000F582E43402F583E0050D2290025E30103A
:1009700003900261E475F0011208E902065E2009A5
:10098000E97F2ED2098018EF540F2490D43440D43C
:10099000FF300D0BEF24BFB41A0050032461FFE5B4
:1009A0000E6002150E0511E5117002051030100ED3
:1009B00090025EE475F0011208E9EF0206A4022934
:1009C000FE7403D2108003E4C210F50D90025E1293
:1009D0000900E4F50EF510F511E50E60077F201211
:1009E000099F80F5750FFFC20AC209C20BC20CC273
:1009F0000EC20FC21112096BFF700D3010057F007F
:100A00001209B0AF11AE1022B4255FC2D5C20D12CB
:100A1000096BFF24D0B40A00501A75F00A780E3022
:100A2000D50508B6FF0106C6A426F620D504700237
:100A3000D20C80D924CFB41A00EF5004C2E5D20DF5
:100A4000020CA2D20A80C6D20980C0D20B80BCD2CE
:100A5000D580BAD20E80B47F2012099F200B077474
:100A600001B50E0040F112095CFF12099F0209D97D
:100A7000D211D20F809512095CFB12095CFA12099F
:100A80005CF94A4B700679A07A0D7BFF200B2EE5AE
:100A90000E602A7E008E8275830012067760060E35
:100AA000EE650F70F0C2D5EBC0E0EAC0E0E9C0E04F
:100AB000EE120D03D0E0F9D0E0FAD0E0FB12065EB2
:100AC000FF60AAEBC0E0EAC0E0E9C0E012099FD0F5
:100AD000E02401F9D0E03400FAD0E0FBE50F046037
:100AE000DCD50FD98087D20B80A2120CE560F7E528
:100AF0000F7001041200CEA90F600DE50F600914FC
:100B0000F50F120D8DEF60F3EA30E702F404C3999C
:100B10005079EAF4250F0430E701E404F50F800D65
:100B2000120CE560C1EA050F250F1200CEEA900213
:100B30008DF030E701E4250F04D50F04200E0114D9
:100B4000120D03E4C0E0120D8D90028DE0601320C1
:100B5000E70714F0120987802204F0D0E014C0E007
:100B60007F00120987E50F600712097E150F800BC1
:100B7000300E0312097ED0E00209D9D0E00480C40F
:100B8000120CE5609EE50F041200CE90028DEAF093
:100B9000E50F200E026001042404120D0374FF040B
:100BA000C0E0120D8D120987E50F200E02600312BE
:100BB000097ED0E0B50FE87F4512099190028DE0E3
:100BC0007F2B30E7047F2DF404C0E012099FD0E0B2
:100BD00075F00A84C0F0120988D0E0120988020971
:100BE000D9791080027908C20FC2118008D2D57954
:100BF0000A8004790AC2D5E50F047002F50FE4FA01
:100C0000FDFEFF12095CFC7B08200A1312095CFD43
:100C10007B1030090A12095CFE12095CFF7B20EC94
:100C20003382D592D55013C3E43009069FFFE49E6A
:100C3000FEE4200A039DFDE49CFCE4CBF8C20AEC30
:100C4000700CCFCECDCCE824F8F870F38017C3EF4A
:100C500033FFEE33FEED33FDEC33FCEB33FB994019
:100C600002FB0FD8E9EB300A05F8D0E0C448B20A1D
:100C7000C0E00AEC4D4E4F78207B0070C2EAB50F01
:100C80000040BCC0E0120D05D0F0D0E0200A04C442
:100C9000C0E0C4B20AC0F0120988D0F0D5F0EB026F
:100CA00009D91209090A76530BE1580A474C0A433D
:100CB000420BE54F0BED440BED490A5C430BF3553A
:100CC0000B20460B80450AEA470DC0500A4B2D0AFF
:100CD0004F2E0A722B0A53230A70200DA92A0A0BE1
:100CE0004800000A6AE50FB4FF03750F0612095C9D
:100CF000FC12095CFD12095CFE12095CFF90028681
:100D000002010B790AA2D5200C14300E09B9100289
:100D10000404B9080104A2D5200F02500104200BDD
:100D200068920BB50E005034C0E07F20300C197F64
:100D300030A20B720F720E500F120D5CC20BC20F5D
:100D4000C20EC2117F30800F300E03E9C0E01209DD
:100D50009F300E03D0E0F9D0E0B50ECC300E177FF7
:100D600030B9100C12099F7F58300D077F7880032F
:100D7000B9080312099F300B057F2D02099F7F20C0
:100D80002011F87F2B200FF322920B80CF7F00B42D
:100D90000700500B2486F582E43402F583E0FF223D
:100DA000286E756C6C2900D20A12095C300AF8C2F0
:100DB0000A780E30D50108F6020A0B2D5043495827
:100DC00012095C2403B405004001E4900DBB9312AA
:100DD0000990743A120990D20C750E04020BE1438B
:100DE000BA80122A251222B2122B87122B2CD2AFD4
:100DF0009001A4E06404601AD3900099E094E89014
:100E00000098E06480948340097F017E0012278867
:100E100080DE122B73122C251220667B017A00795A
:100E2000039001F27404F0E4FD7FA01220E1900031
:100E300005E024D0FFE434FFFE7C007D0A1206D8D2
:100E4000AA06AB07900004E024D0FFE434FFFE7D47
:100E5000641206D8EF2BFFEE3AFE900006E024D095
:100E6000FDEC34FFCD2FFFED3E90009EF0A3EFF0A0
:100E70007BFF7A2D794090009EE0FFA3E09001F087
:100E8000CFF0A3EFF01223E690009EE0FFA3E090E6
:100E9000010CCFF0A3EFF0121BAB90009A1208AC3C
:100EA0007B017A0079027D0020B6027D011229D7EC
:100EB00092127B017A0079137D0020C6027D011217
:100EC00029D792137B017A0079167D0020A3027D39
:100ED000011229D792147B017A0079577D00209066
:100EE000027D011229D7921530120F900000E07098
:100EF00004A3E0640270031224FE201403020FAB6B
:100F0000900000E07004A3E0640170031223869057
:100F10000000E07004A3E0640370067F03FE122269
:100F200047900000E07004A3E06404707E7B017AC7
:100F30000079039001F27404F0E4FD7FA01220E137
:100F40009001F07401F0A37400F0A37403F07BFF30
:100F50007A2D79491223E6900005E024D0FFE4348D
:100F6000FFFE7C007D0A1206D8AA06AB079000049B
:100F7000E024D0FFE434FFFE7D641206D8EF2BFF9F
:100F8000EE3AFE900006E024D0FDEC34FFCD2FFFBA
:100F9000ED3EFE90009EF0A3EFF07BFF7A2D79529C
:100FA0009001F0EEF0A3EFF01223E63015031229C2
:100FB00028122BAA9000ACE0F8A3E0F9A3E0FAA372
:100FC000E0FBC31208884003020EA090026174FF88
:100FD000F0A3742DF0A3745AF07B017A0079C51246
:100FE00009C17B017A0079C51228C6900000E0FE95
:100FF000A3E0FFEE60030210D4EF24FE6013146040
:1010000016146060240360030210D4121514021039
:10101000D91210E70210D920B61530C61290000080
:10102000E07004A3E0640370067F01FE12224720F3
:10103000C61530B612900000E07004A3E06403709F
:10104000067F02FE12224720B61520C6129000002D
:10105000E07004A3E0640370067F04FE12224712CE
:10106000132B807590026174FFF0A3742DF0A374AC
:1010700068F090010CE0FFA3E0900264CFF0A3EFD2
:10108000F07B017A0079B01209C17B017A0079B056
:101090007D017C007F017E001227C190026174FFF8
:1010A000F0A3742DF0A3746FF090009EE0FFA3E016
:1010B000900264CFF0A3EFF07B017A0079B01209BF
:1010C000C17B017A0079B07D017C007F027E001235
:1010D00027C180057F01122982B2A0122BAA90009D
:1010E000AC1208AC020EA07BFF7A2C79837D017CC8
:1010F000007F027E001227C17BFF7A2C79817D0F51
:101100007C007F027E001227C17BFF7A2C79D77D7D
:10111000017C007F017E001227C17BFF7A2C79DFE2
:101120007D0C7C007F017E001227C17BFF7A2C7929
:10113000817D107C007F017E001227C1122BAAA89E
:1011400004A905AA06AB079000A8E0FCA3E0FDA354
:10115000E0FEA3E024F4FFEE3401FEE43DFDE43CB8
:10116000FCD312088850030211FA90009AE0FCA305
:10117000E0FDA3E0FEA3E0FF9001EF1208AC9001B8
:101180000CE0FEA3E0FF12000E9000A0EEF0A3EF33
:10119000F07BFF7A2C79A39000A0E0FFA3E0900100
:1011A000F0CFF0A3EFF01223E67BFF7A2C79E190E9
:1011B00000A4E0FFA3E09001F0CFF0A3EFF0122332
:1011C000E67BFF7A2C79F4900118E0FFA3E0900110
:1011D000F0CFF0A3EFF01223E67BFF7A2C79B090EA
:1011E000010CE0FFA3E09001F0CFF0A3EFF0122399
:1011F000E6122BAA9000A81208AC90026174FFF0CE
:10120000A3742CF0A3748CF09000A0E0FFA3E090F6
:101210000264CFF0A3EFF07B017A0079B01209C12C
:101220007B017A0079B07D0A7C007F027E00122764
:10123000C1D39000A1E094009000A0E09400501170
:101240007BFF7A2C79C07D0A7C007F027E0012270A
:10125000C19000A4E07002A3E070187BFF7A2D79A2
:10126000057D0DFC7F01FE1227C1E4900118F0A35B
:10127000F0801B9000A4E0FCA3E0FD9000A0E0FE45
:10128000A3E0FF1206EA900118EEF0A3EFF090023F
:101290006174FFF0A3742DF0A37409F09000A4E032
:1012A000FFA3E0900264CFF0A3EFF07B017A007916
:1012B000B01209C17B017A0079B07D0D7C007F01FD
:1012C0007E001227C1C3900119E09464900118E0D8
:1012D00094004006E4F0A37464F090026174FFF09F
:1012E000A3742DF0A37409F0900118E0FFA3E0901F
:1012F0000264CFF0A3EFF07B017A0079B01209C14C
:101300007B017A0079B07D087C007F017E00122786
:10131000C1900118E07002A3E0700F7BFF7A2D7975
:10132000057D08FC7F01FE1227C1227BFF7A2C7904
:10133000837D017C007F027E001227C190009AE02D
:10134000FCA3E0FDA3E0FEA3E0FF9001EF1208ACD8
:1013500090010CE0FEA3E0FF12000E9000A0EEF062
:10136000A3EFF090026174FFF0A3742CF0A3748CCF
:10137000F0A3EEF0A3EFF07B017A0079B01209C17F
:101380007B017A0079B07D0A7C007F027E00122703
:10139000C17BFF7A2C79817D0F7C007F027E001259
:1013A00027C17BFF7A2D790D7D017C007F017E00B6
:1013B0001227C190026174FFF0A3742DF0A3740989
:1013C000F0900108E0FFA3E0900264CFF0A3EFF0FB
:1013D0007B017A0079B01209C17B017A0079B07D76
:1013E0000C7C007F017E001227C17BFF7A2C798163
:1013F0007D107C007F017E001227C1900108E0FA79
:10140000A3E0FB9000A0E0FEA3E0FFAD03AC02125E
:1014100006EA90010EEEF0A3EFF0EB4A70069001A1
:101420000EF0A3F0900108E0FEA3E0FF9000A0E022
:10143000FCA3E0FDD39FEC9E500302150FED4C7012
:101440000302150F122BAAC004C005C006C00790E6
:101450000109E02432FD900108E03400FC9000A076
:10146000E0FEA3E0FF1206EA7C007D641206D8E4E9
:10147000FDC004C005C006AB079000BFE0FEA3E0BE
:10148000FFA3E0F8A3E0F9A3E0FAA3E02FFFEA3E10
:10149000FEED39FDEC38FCD002D001D000C3EF9B4B
:1014A000FBEE9AFAED99F9EC98F8D007D006D00542
:1014B000D004C3120888505BB2A4B2B4C2A07BFFB0
:1014C0007A2D79199000A0E0FFA3E09001F0CFF011
:1014D000A3EFF01223E67BFF7A2D7927900108E035
:1014E000FFA3E09001F0CFF0A3EFF01223E67BFF23
:1014F0007A2C79B090010CE0FFA3E09001F0CFF0DE
:10150000A3EFF01223E6122BAA9000C10208ACD27E
:10151000A4D2B4227BFF7A2C797C7D017C007F01F0
:101520007E001227C17BFF7A2C79817D0A7C007FA7
:10153000017E001227C17BFF7A2C79837D017C001C
:101540007F027E001227C17BFF7A2C79817D0F7C80
:10155000007F027E001227C190026174FFF0A37425
:101560002CF0A3748CF09000A6E0FFA3E09002643E
:10157000CFF0A3EFF07B017A0079B01209C17B01B3
:101580007A0079B07D057C007F017E001227C112B0
:101590002BAAA804A905AA06AB079000A8E0FCA303
:1015A000E0FDA3E0FEA3E024F4FFEE3401FEE43D01
:1015B000FDE43CFCD3120888500302164790009AC1
:1015C000E0FCA3E0FDA3E0FEA3E0FF9001EF120822
:1015D000AC90010CE0FEA3E0FF12000E9000A6E02C
:1015E000FCA3E0FDC3EF9DFFEE9C9000A2F0A3EFF3
:1015F000F07BFF7A2C799090009AE0FCA3E0FDA3A9
:10160000E0FEA3E0FF9001F01208AC1223E67BFF9E
:101610007A2C79A39000A2E0FFA3E09001F0CFF034
:10162000A3EFF01223E67BFF7A2C79B090010CE057
:10163000FFA3E09001F0CFF0A3EFF01223E6122B0E
:10164000AA9000A81208AC90026174FFF0A3742C59
:10165000F0A3748CF09000A2E0FFA3E0900264CFAE
:10166000F0A3EFF07B017A0079B01209C17B017A17
:101670000079B07D0A7C007F027E001227C1D390E2
:1016800000A3E094009000A2E0940050117BFF7A48
:101690002C79C07D0A7C007F027E001227C1229037
:1016A000011AE030E77090011DE0706A90011CE0C3
:1016B0007064900120E07004A3E0640260030217EC
:1016C000AF90011AE0540F14601914603C240260BA
:1016D000030217AF90011FE0700690011EE0601931
:1016E0000217AF9001A4E0B4040C90011FE0700653
:1016F00090011EE060030217AF9001E874FFF0A3B1
:10170000742DF0A374F60217A19001A4E0B40406AE
:1017100090011FE060030217AF90011EE0FE540F1E
:10172000900257F0EE146041247F600304707E90B5
:101730000257E0FF74017E00A807088005C333CE7E
:1017400033CED8F9FF9001EBE0FDEF5D9001E8604A
:101750000C74FFF0A3742DF0A374F8800A74FFF0EA
:10176000A3742DF0A374F68038900257E0FF740143
:101770007E00A807088005C333CE33CED8F9FF908A
:1017800001ECE0FDEF5D9001E8600C74FFF0A374E4
:101790002DF0A374F8800A74FFF0A3742DF0A374E5
:1017A000F6F09001E6E4F0A37402F08005800002F8
:1017B0002BF3122B9A22122AAD7F14122B01AE07A3
:1017C000EE30E6077D807F14122AB1EE20E003029E
:1017D00018A97B017A0179647F2112274E9001229A
:1017E000EFF0900105E0FBA3E0FAA3E04A4B7003A1
:1017F000021899E4900257F0900122E0FF900257FE
:10180000E0FEC39F4003021899900105E0FBA3E0AE
:10181000FAA3E0F9900123E0FD3395E08D82F58392
:10182000120677FF74642EF582E43401F583E06FCD
:101830007031900123E004F0900123E0FF3395E044
:101840008F82F5831206777047FD7F14122AB1E468
:10185000F5F4F5DC90FE07F07F0AFE122B4575C704
:101860006080FE900105E0FBA3E0FAA3E0F9120618
:101870005EFF900257E02464F582E43401F583E0D2
:10188000B507089001237401F08005E4900123F06E
:10189000900257E004F00217F8D216122B135009E9
:1018A000E4FD7F14122AB1C21622900258EBF0A375
:1018B000EAF0A3E9F0E4FFFE90025BE0FBA3E0FAAC
:1018C000A3E0F912065EFDC3EF9DEE940050269052
:1018D0000258E0FBA3E0FAA3E0F98F828E831206A0
:1018E00077FD74582FF58274003EF583EDF00FBF3D
:1018F00000010E80C3900058E06423705490005A99
:10190000E024D0FFE434FFFE7C007D0A1206D8AA52
:1019100006AB07900059E024D0FFE434FFFE7D645D
:101920001206D8EF2BFFEE3AFE90005BE024D0FDCC
:10193000EC34FFCD2FFFED3E900014F0A3EFF090BC
:101940000258E0FBA3E0FAA3E0F9E4FD7FA0122334
:101950001D900014E0FEA3E0FF90010CEEF0A3EF59
:10196000F090026174FFF0A3742DF0A37437F0A31C
:10197000EEF0A3EFF07B017A0079171209C17B0129
:101980007A0079177D097C00021CEB90011AE02097
:10199000E703021A3490011DE024FE60231460392D
:1019A00024026003021A349001E874FFF0A3742D3E
:1019B000F0A37477F09001E6E4F0A37412F080775E
:1019C0009001E874FFF0A3742DF0A37489F09001E6
:1019D000E6E4F0A37443F0805E90011CE014602004
:1019E0001460362402704B9001E874FFF0A3742D4C
:1019F000F0A374CCF09001E6E4F0A37404F0803717
:101A00009001E874FFF0A3742DF0A374D0F090015E
:101A1000E6E4F0A37408F0801E9001E874FFF0A3E0
:101A2000742DF0A374D8F09001E6E4F0A3741EF0D6
:101A300080058000022BF3900120E0FEA3E0FFD39D
:101A40009001E7E09F9001E6E09E4005EEF0A3EFF5
:101A5000F0122B9A224301130000004301100000F2
:101A600000430105FF2C5742009800004200A000EF
:101A700000420108000042010C019042009E00005B
:101A8000420014019050000300000000000000001C
:101A900000000000000000004200A600004200A27A
:101AA00000004200A4006444009A000000004400CA
:101AB000AC000000004400A8000000004400C10089
:101AC0000000004200BF04B042010A0000420116BB
:101AD0000BB842010E00004100020041001300411A
:101AE00000160041005700C112C113C114C11542B4
:101AF00001180000420000000144029500000000AF
:101B000041012300C11900C0E0C0F0C083C082C001
:101B1000D075D000C000C001C002C003C004C00521
:101B2000C006C007900256E5FCF07F06122B01901C
:101B30000253EFF07F02122B01A3EFF07F04122B70
:101B400001A3EFF0900253E030E103122C55900214
:101B500053E030E203122711900254E030E0031208
:101B6000215C900254E030E103122A47900254E0D5
:101B700030E203122A86900255E030E1031217B6D4
:101B8000900253E030E003122C56900256E0F5FC30
:101B9000D007D006D005D004D003D002D001D000A9
:101BA000D0D0D082D083D0F0D0E0329001EF1208B4
:101BB000B8000000009001F31208B800000000E433
:101BC0009001EDF0A3F0121FDD9001EF1208AC9030
:101BD00001F3E0FCA3E0FDA3E0FEA3E0FF9001EF32
:101BE000E0F8A3E0F9A3E0FAA3E0FBEF2BFFEE3A65
:101BF000FEED39FDEC38FCA31208AC7F647E0012C8
:101C000027889001EEE004F070069001EDE004F00A
:101C1000C39001EEE094049001EDE0940040A790A1
:101C200001F3E0FCA3E0FDA3E0FEA3E0FFE47B04FE
:101C3000FAF9F81207F69001F31208AC9001F3E0FC
:101C4000FCA3E0FDA3E0FEA3E0FF229001A4E0647A
:101C500004702390011AE0B4021C90011FE070167A
:101C600090011DE0701090011CE07078900120E060
:101C70007002A3E06002806C90011EE0FE540F90A1
:101C80000257F0EE14602D247F600304705690011B
:101C9000EBE0FF900257E0FD7401A805088002C345
:101CA00033D8FCF45F9001EBF07F0E122AB17D4037
:101CB0007F1180249001ECE0FF900257E0FD740159
:101CC000A805088002C333D8FCF45F9001ECF07FD4
:101CD0000E122AB17D807F14122AB1E4FD7F0E120C
:101CE0002AB18003022BF3122C0D2290025EEBF03E
:101CF000A3EAF0A3E9F0A3ECF0A3EDF090026612E2
:101D00002AA4E4900264F0A3F0900261E0FEA3E054
:101D1000FFD39440EE6480948040067D407F4080F5
:101D200000900263EFF07F11122B01EF30E00E9074
:101D3000026674FFF5F012075545F070E990025EF7
:101D4000E0FBA3E0FAA3E0F9900264E0FEA3E0FF69
:101D5000E92FF9EA3EFA90026312268E900263E0C0
:101D6000FFFD7C00900265E02DF0900264E03CF005
:101D7000C3900262E09DF0900261E09CF0EFC3949A
:101D8000405086D21843AF80229001A4E0640470D2
:101D90002390011AE0B4021C90011FE0701690011C
:101DA0001DE0701090011CE07076900120E0700240
:101DB000A3E06002806A90011EE0FE540F9002577B
:101DC000F0EE14602C247F60030470549001EBE06B
:101DD000FF900257E0FD7401A805088002C333D8C4
:101DE000FC4F9001EBF07F0E122AB17D107F118025
:101DF000239001ECE0FF900257E0FD7401A8050874
:101E00008002C333D8FC4F9001ECF07F0E122AB150
:101E10007D207F14122AB1E4FD7F0E122AB18003C7
:101E2000022BF3122C0D229001A4E0640260229098
:101E3000011AE0701C90011DE0701690011FE07007
:101E40001090011EE0700A900120E07002A3E06093
:101E500003022BF390011CE064019001A470547400
:101E600004F0E49001EBF09001ECF07D017F0E12A4
:101E70002AB17D207F12122AB17D087F10122AB16B
:101E80007D027F0E122AB17D207F12122AB17D08B9
:101E90007F10122AB17D017F0E122AB1E4FD7F125C
:101EA000122AB17D087F13122AB1E4FD7F0E122A97
:101EB000B1800D7403F09001EB74FFF09001ECF031
:101EC000122C0D2290021DEEF0A3EFF090022212D0
:101ED0002AA4E4900220F0A3F090021DE0FEA3E00B
:101EE000FFD39440EE940040067D407F40800090F8
:101EF000021FEFF07F11122B01EF30E00E90022253
:101F000074FFF5F012075545F070E9900220E0FEED
:101F1000A3E02424F974013EFA7B0190021F1226EB
:101F20008E90021FE0FFFD900221E02DF090022034
:101F3000E03400F0C390021EE09FF090021DE09498
:101F400000F090021FE0C39440508ED21843AF803F
:101F500022787FE4F6D8FD758123021F9802008E57
:101F6000E493A3F8E493A34003F68001F208DFF4BE
:101F70008029E493A3F85407240CC8C333C4540F36
:101F80004420C8834004F456800146F6DFE4800B09
:101F90000102040810204080901A55E47E019360ED
:101FA000BCA3FF543F30E509541FFEE493A3600136
:101FB0000ECF54C025E060A840B8E493A3FAE493A0
:101FC000A3F8E493A3C8C582C8CAC583CAF0A3C84E
:101FD000C582C8CAC583CADFE9DEE780BEC2C79032
:101FE00001F71208B8000000002091FDE4FBEBC3EC
:101FF0009418748094805042D2C79001F7E0FCA3FB
:10200000E0FDA3E0FEA3E0FF78011208999001F73C
:102010001208ACC2C730911F9001F7E0FCA3E0FDAD
:10202000A3E0FEA3E02401FFE43EFEE43DFDE43C2A
:10203000FC9001F71208AC0B80B4D2C79001F7E016
:10204000FCA3E0FDA3E0FEA3E0FFED6480FDEC90C7
:1020500001F71208ACC2C79001F7E0FCA3E0FDA3B2
:10206000E0FEA3E0FF2290026174FFF0A3742CF065
:10207000A37460F0A374FFF0A3742CF0A37463F056
:102080007B017A0079B01209C17B017A0079B07DB9
:10209000027C007F017E001227C17FF47E0112279F
:1020A0008890026174FFF0A3742CF0A37460F0A315
:1020B00074FFF0A3742CF0A37472F07B017A0079A2
:1020C000B01209C17B017A0079B07D047C007F02E7
:1020D0007E001227C17FD07E071227887F01022948
:1020E000829001EDEFF0A3EDF0A3EBF0A3EAF0A3F3
:1020F000E9F0122C31E425E0FF9001EDE04FFF12F2
:102100002BD7122C3A9001EEE0FF122BD7122C3A6B
:10211000122C319001EDE04401FF122BD7122C3A22
:10212000E49001F3F09001F2E0FFA3E0C39F50269A
:10213000122BB99001EFE0FBA3E0FAA3E0F99001C4
:10214000F3E0F582758300EF1206B6122BE59001DD
:10215000F3E004F080CF122BC8022C43122AF8AE11
:1021600007EE30E20D54FBFD7F11122AB1E490011D
:10217000E5F0EE30E4084480FD7F11122AB19001B1
:10218000E5E024FD604714604724047046EE30E02B
:10219000427B017A01791A7F2012274E900120E0BC
:1021A000FEA3E0FF122AC0900120EEF0A3EFF09012
:1021B000011AE0546024E0600B24E0600A244070BF
:1021C00009022446022ADC022C52022BF30221D4FB
:1021D0001225AA22122AF8EF20E16B9001E6E0FE18
:1021E000A3E0FFD39440EE940040067D407F408002
:1021F00000900258EFF09001E8E0FBA3E0FAA3E0C2
:10220000F990025DEFF07F2012282D900258E0FF38
:102210007E00C39001E7E09FF09001E6E09EF09021
:1022200001E9EE8FF012073F9001E6E07002A3E0B3
:10223000700D7D0A7F11122AB1E49001E5F0227D34
:10224000027F11122AB122EF64014E700F90010932
:10225000E004F0705C900108E004F022EF64024EAC
:10226000701CD3900109E09400900108E0940040B4
:102270000DA3E024FFF0900108E034FFF022EF64AA
:10228000034E602DEF64044E702790009AE0FCA38B
:10229000E0FDA3E0FEA3E0FF9001EF1208AC900187
:1022A0000CE0FEA3E0FF12000E900108EEF0A3EF99
:1022B000F02253B2FC43B10390FE077480F090FE0D
:1022C00007E030E0F9E4F5DC75F490FDFF122AB187
:1022D0007D087F01122AB17D3F7F07122AB17D3F21
:1022E0007F09122AB17D077F0B122AB1E4FD7F011D
:1022F000122AB19001A47402F0E49001E5F090017B
:10230000EBF0A3F090028E1208B800C20100E49036
:102310000292F0A3F0A37408F043AF802290025E13
:10232000EFF0A3EDF0A3EBF0A3EAF0A3E9F0A374C0
:1023300003F0122C31E425E0FF90025EE04FFF1223
:102340002BD7122C3A90025FE0FF122BD7122C3AB7
:10235000E4900264F0900263E0FFA3E0FEC39F50AC
:1023600022900260E0FBA3E0FAA3E0F98E8275837D
:1023700000120677FF122BD7122C3A900264E00469
:10238000F080D2022C4330145C900000E07004A373
:10239000E06401705090009AE0FCA3E0FDA3E0FE31
:1023A000A3E0FF9001EF1208AC90010CE0FEA3E067
:1023B000FF12000E9000A6EEF0A3EFF07BFF7A2C48
:1023C00079C59001F0EEF0A3EFF01223E67BFF7ADF
:1023D0002C79B090010CE0FFA3E09001F0CFF0A3C6
:1023E000EFF01223E6229001EDEBF0A3EAF0A3E96F
:1023F000F09002187401F0A37401F0A374F0F0904F
:1024000001EDE0F9A3E0FAA3E090021DC9F0A3EA10
:10241000F0A3E9F0900218E0F9A3E0FAA3E090023B
:1024200020C9F0A3EAF0A3E9F07B017A0179241234
:10243000264490021BEEF0A3EFF0121EC490021B84
:10244000E0FEA3E0FF2290011BE0B40D00504F908E
:102450002456F828287302247D02248002249E0238
:10246000248302249E02248602248902248C0224CE
:102470008F02249202249502249802249B02169F24
:10248000021C4B021D8902255902198B022C4C0299
:1024900024A2021E270226D00229AE022C4F122BA4
:1024A000F32290011AE06480702490011DE0701EF8
:1024B00090011CE0701890011FE0701290011EE066
:1024C000700C900120E07004A3E064016003022B13
:1024D000F39001A4E09001E8B4040C74FFF0A3743D
:1024E0002DF0A374F8800A74FFF0A3742DF0A37488
:1024F000F6F09001E6E4F0A304F0122B9A2290008B
:102500009AE0FCA3E0FDA3E0FEA3E0FF9001EF1240
:1025100008AC90010CE0FEA3E0FF12000ED3EF9494
:10252000E8EE9403400B9000A47403F0A374E7F06A
:102530002290009AE0FCA3E0FDA3E0FEA3E0FF9060
:1025400001EF1208AC90010CE0FEA3E0FF12000EB8
:102550009000A4EEF0A3EFF02290011AE070259015
:10256000011FE0701F90011EE0701990011DE070C6
:102570001390011CE0C39480500A900120E0700287
:10258000A3E06003022BF390011CE0900257F0FDE2
:10259000E4FF122AB1900257E09001A46005740391
:1025A000F080037402F0122C0D22122AF8EF30E0B2
:1025B000479001E8E0FBA3E0FAA3E0F97F201227AF
:1025C0004EEFFDC39001E7E09DF09001E6E094003E
:1025D000F09001E9E48FF012073F9001E6E070020D
:1025E000A3E0700D7D487F11122AB1E49001E5F05F
:1025F000227D407F11122AB122C0E0C0F0C083C00A
:1026000082C0D075D000C000C004C005C006C0079D
:10261000900295E0FCA3E0FDA3E0FEA3E02401FF0F
:10262000E43EFEE43DFDE43CFC9002951208ACD093
:1026300007D006D005D004D000D0D0D082D083D02F
:10264000F0D0E03290021DE0FFA3E0FEA3E0CF90C7
:102650000261F0A3EEF0A3EFF0900220E0CBF0A334
:10266000E0CAF0A3E0C9F07F22900264AD82AC839F
:1026700012065E8D828C83F0A309E970010ADFECFB
:10268000900220E0FBA3E0FAA3E0F90209C1E0FD1B
:1026900090026C7401F0900268EBF0A3EAF0A3E9F9
:1026A000F0AE05AF061EEF602090026CE02420FF24
:1026B000900268E0FBA3E475F001120755A9F0FA57
:1026C00012065EFD122AB180DA7D017F11022AB165
:1026D0009001A4E0B4041D90011AE0B481169001A9
:1026E0001DE0701090011FE0700AA3E07004A3E0E9
:1026F00064016003022BF39001E874FFF0A3742DD2
:10270000F0A374F6F09001E6E4F0A304F0122B9A23
:1027100022E4FDFF122AB19001A47402F0E49001BA
:10272000E5F00D7F0E122AB17D487F11122AB17D8E
:10273000027F0E122AB17D487F11122AB1122AADF2
:102740007D907F14122AB1E4FD7F0E022AB190021F
:1027500058EBF0A3EAF0A3E9F0AE077F16122B01C5
:10276000AD07AC05AF051DEF601BAF06122B019046
:102770000258E0FBA3E475F001120755A9F0FAEF47
:102780001206A480DFAF0422E4FCFD900295E0F87D
:10279000A3E0F9A3E0FAA3E02FFFEA3EFEED39FD46
:1027A000EC38FC9001F71208AC122BAA9001F7E06C
:1027B000F8A3E0F9A3E0FAA3E0FBD312088850E9FC
:1027C000229001EDEBF0A3EAF0A3E9F0120096E409
:1027D0009001F0F09001EDE0FBA3E0FAA3E0F9A393
:1027E000E0F582758300120677FF600B1229569080
:1027F00001F0E004F080DD22C0E0C083C082C0D0E0
:1028000075D000C007E58430E1055384FDC219E5A9
:102810008430E00E5384FE900299E585F0E0FF12CB
:102820000003D007D0D0D082D083D0E03290025ABB
:10283000EBF0A3EAF0A3E9F0AE0790025DE0FF142D
:10284000F0EF601BAF0690025AE0FBA3E475F001C5
:10285000120755A9F0FA12065EFD122AB180DB229A
:102860009001A4E0B4040890011AE064216003021E
:102870002BF39001E87401F0A37402F0A3748EF0BE
:10288000900120E0FFA3E09001E6CFF0A3EFF0126B
:102890002C00229001A4E0B4040890011AE064A185
:1028A0006003022BF39001E87401F0A37402F0A31B
:1028B000748EF0900120E0FFA3E09001E6CFF0A33A
:1028C000EFF0122B9A229001EDEBF0A3EAF0A3E9CE
:1028D000F09001EDE0FBA3E0FAA3E0F912065E60E0
:1028E000179001EDA3E475F001120755A9F0FA1253
:1028F000065EFF12000380D9227580FFC2A5D2A612
:10290000D2A77F017E001227889001F6E580F07F34
:10291000017E00122788C2A77F017E0012278890BF
:1029200001F6E0548070D922D2A4D2B47F011229DA
:1029300082900001E004F07006900000E004F0D303
:10294000900001E09404900000E0648094804005D1
:10295000E4F0A304F0229001F1EFF01228F9D2A5DF
:10296000C2A67F017E001227889001F1E0F5807FEA
:10297000017E00122788D2A77F017E00122788C21D
:10298000A7229001F5EFF01228F9C2A5C2A67F0197
:102990007E001227889001F5E0F5807F017E00120D
:1029A0002788D2A77F017E00122788C2A722900124
:1029B000A4E0B4041B90011AE0B4011490011DE0DE
:1029C000700E90011FE07008A3E07002A3E06003A6
:1029D000022BF3122C0D22ED7002801512065EFF01
:1029E000C3940A7480948040047F0A8003EF04FF3C
:1029F000EF1206A412065E6409C37001D322EFB47D
:102A00000A07740D122A09740A309811A899B8138C
:102A10000CC2983098FDA899C298B811F63099FD6B
:102A2000C299F59922E4F594F593F592F591F5960E
:102A3000F595F5B2F5B1F5B4F5B3F5CAF5C9F5CC30
:102A4000F5CBF5E2F5E1227D01122AFAAE07EE3070
:102A5000E5077D407F11122AB1EE30E207E4FD7FE9
:102A600011122AB1C21822EF1FAC0670011E4C6071
:102A70001400000000000000000000000000000042
:102A800000000080E2227D02122AFAAE07EE30E555
:102A9000077D407F11122AB1EE30E207E4FD7F117D
:102AA000122AB122E4F0A374C8F053AF7F7D017FF6
:102AB0000EE5FC20E7FBEF547FF5FCAF058FEC2221
:102AC000900257EEF0A3EFF0E0A3F0900257E090F1
:102AD000025AF0900259E0FEA3E0FF2290011BE0B1
:102AE00024DF600A14600A240270090228600228A8
:102AF00093022B5D122BF322E4FD7F0E122AB17F8D
:102B000011E5FC20E7FBEF4480F5FCE5FC20E7FB4A
:102B1000AFEC2290025B7401F0A37401F0A3742265
:102B2000F07B017A0179641218AAD32275841043CC
:102B3000844043D12075D3CC75D2FF43D18043AFBD
:102B40001043BA0422AB07AA06EB1BAE0270011AAF
:102B50004E60097FE87E03122A6780ED229001A46F
:102B6000E0B4040890011AE064216003022BF31220
:102B70002C0D227F381229827F0C1229827F0612A7
:102B800029827F01022982538E7F5389F0758A3012
:102B9000758CF8C28DD28CD2A9229001E57403F015
:102BA0007D407F11122AB10221D4900295E0FCA34E
:102BB000E0FDA3E0FEA3E0FF2290FE817404F0128A
:102BC0002C1990FE87E0FF2290FE827401F090FEA7
:102BD000817405F0022C1990FE86EFF090FE81744E
:102BE00002F0022C1990FE82E4F090FE817405F050
:102BF000022C199001E57405F07D607F11022AB165
:102C00009001E57404F07D407F11022AB1E4900147
:102C1000E5F07D487F11022AB190FE82E030E6F9AE
:102C2000E054BFF02290FE8074E0F090FE82E4F069
:102C30002290FE817401F0022C1990FE817403F041
:102C4000022C1990FE817406F0022C19022BF3025B
:102C50002BF3022BF32222405354434953502300B9
:102C60002573003230323335363033303233313839
:102C700035004C696E5A68694B6169005069203AA9
:102C8000006700576569676874203A00253464005E
:102C90007765696768745F62617365203D20256CA4
:102CA000750A00776569676874203D2025640A000D
:102CB0007765696768745F6B203D202533640A007F
:102CC00020202030007765696768745F74617265E1
:102CD000203D2025640A00436F756E74203A007809
:102CE000007765696768745F636F756E74203D2057
:102CF00025640A004974656D5F436F756E74203DED
:102D00002025640A00202030002533640074687296
:102D10006573686F6C64203A007765696768742032
:102D20003D202534640A007468726573686F6C64B2
:102D3000203D20253364006B203D202533640A00AC
:102D4000456B203D2025640A00456B203D202573FE
:102D50000A006B203D2025640A00E4B8B2E58FA389
:102D600034204F4B21200A006B203D202564004574
:102D70006B203D202564001201000202000040BFCC
:102D80003402FF00010102000109024300020100B8
:102D90008032090400000102020100052400100134
:102DA0000524010001042402020524060001070590
:102DB00082034000FF09040100020A000000070529
:102DC00081024000000705010240000004030904DD
:102DD00008035300540043001E03530054004300F3
:102DE000200055005300420020005300650072008F
:0A2DF000690061006C0000000100A2
:00000001FF
