:10000000021D2612100880FE0229E30223F0C0E040
:10001000C0F0C083C082C0D075D000C000C001C095
:1000200002C003C004C005C006C007900240E5FC42
:10003000F07F0612293B90023DEFF07F0212293B30
:10004000A3EFF07F0412293BA3EFF090023DE030D4
:10005000E1031200CA90023DE030E2031225509005
:10006000023EE030E003121FBA90023EE030E103AE
:1000700012288190023EE030E2031228C090023F35
:10008000E030E10312165F90023DE030E003122AF7
:1000900042900240E0F5FCD007D006D005D004D055
:1000A00003D002D001D000D0D0D082D083D0F0D005
:1000B000E032AB07AA06EB1BAE0270011A4E6009D4
:1000C0007FE87E031228A180ED222202000EF92093
:1000D000E73624F950037907E4F42402FBE582159E
:1000E0008270021583DBF6E024FB501BE96014E408
:1000F000F0E582158270021583E004F0B40A08E48A
:10010000F0D9EE7401F00A22C2D522ED33EC33921D
:10011000D5FA602AB4FF33EDC2E77BFF60067A01AF
:100120007930E4227A01793920D5047A01793422B0
:100130004E614E002B494E46002D494E4600E47A52
:1001400008F0A3DAFC7B00740722C083C082ECC0F5
:10015000E0EDC0E0EEC0E0EFC0E0EA75F010A4CA48
:10016000ABF075F04DA42BFBE435F0FCEA2410FA5B
:10017000EB34C5FBEC34D9FCEDC2E7FF75F056A4B7
:10018000F42411C5F0F434C58FF0A42AE5F03BE463
:100190003CF020E7141204DED0E0FFD0E0FED0E017
:1001A000FDD0E0FC1204118014F4041204DED0E04F
:1001B000FFD0E0FED0E0FDD0E0FC120308D082D0FA
:1001C00083E0FAEDD2E7CD33EC332482FBE4C3CFF6
:1001D00033CFCE33CECD33CD33DBF37B0775F00A8F
:1001E000846004F0A31B0AE5F0F0A38FF0740AA466
:1001F000FFACF08EF0740AA42CFEACF050010C8D14
:10020000F0740AA42CFDE435F0F0A3DBDE740722C1
:10021000020553E86480F8E933E83360110460F0C4
:10022000ED33EC337009E8FCE9FDEAFEEBFF220454
:1002300060DED3EB9FEA9EE99DE8C2E78CF0C2F74F
:1002400095F0400CE8CCF8E9CDF9EACEFAEBCFFB1B
:1002500012051E85D0F05804700320D5B3E8047051
:10026000075002B2D502055D92D5EC0460F7E4CCEC
:10027000C0E0C398F8603B94186008400DD0E0FBE4
:10028000020535E4FBFAC9FC8028E830E406E4C93D
:10029000FBE4CAFCE830E305E4C9CACBFCE8540738
:1002A0006010F8C3E913F9EA13FAEB13FBEC13FC43
:1002B000D8F130F52FC3E49CFCEF9BFFEE9AFEEDE6
:1002C00099FDD0E0FBEF4E4D4C701222DB0302058E
:1002D0005AEC2CFCEF33FFEE33FEED33FDED30E74F
:1002E000EB020535EF2BFFEE3AFEED39FDD0E0FBDA
:1002F00050130BBB000302055DED13FDEE13FEEF83
:1003000013FFEC13FC020535EC4D6011E849701742
:10031000ED33EC3304600DE4FCFFFEFD22E933E82D
:10032000330470F802055312051E58046009E4CC2A
:100330002481500628500902055D28400302055A11
:10034000C0E0EB4A7044B98006D0E0FB020549EFFB
:100350004E701CBD8008EBFFEAFEE9FD80EBE98DE5
:10036000F0A4FEE5F00203F1E9CDF9EAFEEBFFEFC0
:1003700089F0A4FCE5F0CE89F0A42EFFE435F0CDA1
:1003800089F0A42DFEE435F08067EF4E7005BD8046
:10039000D780C3EF8BF0A4ACF0EE8BF0A42CFCE480
:1003A00035F0F8EF8AF0A42CE5F038FCE433CB8D7F
:1003B000F0A42CFCE5F03BF8EE8AF0A42CFCE5F070
:1003C00038F8E433CF89F0A42CFCE5F038CF3400C2
:1003D000CE89F0A42FFFE5F03EFEE433C98DF0A4F2
:1003E0002EFEE5F039CD8AF0A42FFFE5F03EFEE4C5
:1003F0003DFD33D0E0FB50070BBB000F02055DEC69
:100400002CFCEF33FFEE33FEED33FD020535020524
:100410005DEC5D046005E8590470030205531205A4
:100420001E580460F6EC4860F2EC7004FDFEFF22FA
:10043000C860DB2481C85009C398600250060205D9
:100440005A9850CAF582E9294B4A7005AB820205D9
:100450004975F0007C1A7880C3EF9BEE9AED9940C5
:100460000DC3EF9BFFEE9AFEED99FDE842F0DC2311
:10047000ACF0D0E0FFD0E0FED0E0FDAB8220E71092
:100480001BEB60BAEC2CFCEF33FFEE33FEED33FDDB
:10049000020535E803F830E705C0F075F000EF2FEE
:1004A000FFEE33FEED33FD40B830E7C280AA3F8057
:1004B00000004120000042C80000447A0000461CB1
:1004C000400047C35000497424004B1896804CBE2E
:1004D000BC205A0E1BCA6753C21C749DC5AEFB607C
:1004E000065407601C232312050CEB5438600912D4
:1004F00004F8120507120308ECF8EDF9EEFAEFCB59
:1005000022EB12050780F1543803241C9004AEFE40
:1005100093FC0EEE93FD0EEE930ECE93FF22E9D2E6
:10052000E7C933E833F892D5EDD2E7CD33EC33FCAD
:100530005002B2D522EC30E7100FBF000C0EBE0007
:10054000080DBD00040BEB6014A2D5EB13FCED927B
:10055000E7FD2274FFFCFDFEFF22E480F8A2D574C3
:10056000FF13FC7D80E480EFE709F608DFFA8046A0
:10057000E709F208DFFA803E88828C83E709F0A35E
:10058000DFFA8032E309F608DFFA8078E309F2083F
:10059000DFFA807088828C83E309F0A3DFFA80643D
:1005A00089828A83E0A3F608DFFA805889828A83E9
:1005B000E0A3F208DFFA804C80D280FA80C680D4B3
:1005C000806980F28033801080A680EA809A80A8BB
:1005D00080DA80E280CA803389828A83ECFAE493ED
:1005E000A3C8C582C8CCC583CCF0A3C8C582C8CC7B
:1005F000C583CCDFE9DEE7800D89828A83E493A39B
:10060000F608DFF9ECFAA9F0EDFB2289828A83EC87
:10061000FAE0A3C8C582C8CCC583CCF0A3C8C58204
:10062000C8CCC583CCDFEADEE880DB89828A83E43C
:1006300093A3F208DFF980CC88F0EF60010E4E60E2
:10064000C388F0ED2402B4040050B9F582EB240213
:10065000B4040050AF23234582239005B873BB0137
:100660000689828A83E0225002E722BBFE02E3224F
:1006700089828A83E49322BB010CE58229F582E515
:10068000833AF583E0225006E92582F8E622BBFE94
:1006900006E92582F8E222E58229F582E5833AF52A
:1006A00083E49322BB010689828A83F0225002F7F9
:1006B00022BBFE01F322F8BB010DE58229F582E59C
:1006C000833AF583E8F0225006E92582C8F622BB7A
:1006D000FE05E92582C8F222EF8DF0A4A8F0CF8CA8
:1006E000F0A428CE8DF0A42EFE22BC000BBE002963
:1006F000EF8DF084FFADF022E4CCF875F008EF2F19
:10070000FFEE33FEEC33FCEE9DEC984005FCEE9DD5
:10071000FE0FD5F0E9E4CEFD22EDF8F5F0EE8420F1
:10072000D21CFEADF075F008EF2FFFED33FD400752
:10073000985006D5F0F222C398FD0FD5F0EA22C5F5
:10074000F0F8A3E028F0C5F0F8E5821582700215F4
:1007500083E038F022A3F8E0C5F025F0F0E582153B
:100760008270021583E0C838F0E822E88FF0A4CC4C
:100770008BF0A42CFCE98EF0A42CFC8AF0EDA42CC8
:10078000FCEA8EF0A4CDA8F08BF0A42DCC3825F097
:10079000FDE98FF0A42CCD35F0FCEB8EF0A4FEA982
:1007A000F0EB8FF0A4CFC5F02ECD39FEE43CFCEA8F
:1007B000A42DCE35F0FDE43CFC2275F008758200D6
:1007C000EF2FFFEE33FECD33CDCC33CCC58233C516
:1007D000829BED9AEC99E58298400CF582EE9BFEA7
:1007E000ED9AFDEC99FC0FD5F0D6E4CEFBE4CDFA02
:1007F000E4CCF9A88222B800C1B90059BA002DECA6
:100800008BF084CFCECDFCE5F0CBF97818EF2FFF3D
:10081000EE33FEED33FDEC33FCEB33FB10D70399E5
:100820004004EB99FB0FD8E5E4F9FA227818EF2F92
:10083000FFEE33FEED33FDEC33FCC933C910D705B1
:100840009BE99A4007EC9BFCE99AF90FD8E0E4C9D0
:10085000FAE4CCFB2275F010EF2FFFEE33FEED3300
:10086000FDCC33CCC833C810D7079BEC9AE899402D
:100870000AED9BFDEC9AFCE899F80FD5F0DAE4CD8F
:10088000FBE4CCFAE4C8F922EB9FF5F0EA9E42F0D3
:10089000E99D42F0E89C45F022E8600FEFC333FF8A
:1008A000EE33FEED33FDEC33FCD8F122ECF0A3ED9A
:1008B000F0A3EEF0A3EFF022A8828583F0D083D0DE
:1008C000821208CF1208CF1208CF1208CFE473E4C7
:1008D00093A3C583C5F0C583C8C582C8F0A3C583EB
:1008E000C5F0C583C8C582C822F8E0FBA3A3E0F920
:1008F00025F0F0E582158270021583E0FA38F022C7
:10090000EBF0A3EAF0A3E9F022D083D082F8E493DD
:100910007012740193700DA3A393F8740193F58280
:100920008883E4737402936860EFA3A3A380DFEC71
:100930008EF0A4CCC5F0CCCDF8EFA4CEC5F02DFD43
:10094000E43CFCE8A42EC8C5F03DFDE43CFCEFA46B
:10095000FFE5F028FEE43DFDE43CFC22E50D244BE0
:10096000F582E43402F583E0050D22900248301050
:100970000390024BE475F0011208E902065E2009BB
:10098000E97F2ED2098018EF540F2490D43440D43C
:10099000FF300D0BEF24BFB41A0050032461FFE5B4
:1009A0000E6002150E0511E5117002051030100ED3
:1009B000900248E475F0011208E9EF0206A402284B
:1009C000387403D2108003E4C210F50D900248126F
:1009D0000900E4F50EF510F511E50E60077F201211
:1009E000099F80F5750FFFC20AC209C20BC20CC273
:1009F0000EC20FC21112096BFF700D3010057F007F
:100A00001209B0AF11AE1022B4255FC2D5C20D12CB
:100A1000096BFF24D0B40A00501A75F00A780E3022
:100A2000D50508B6FF0106C6A426F620D504700237
:100A3000D20C80D924CFB41A00EF5004C2E5D20DF5
:100A4000020CA2D20A80C6D20980C0D20B80BCD2CE
:100A5000D580BAD20E80B47F2012099F200B077474
:100A600001B50E0040F112095CFF12099F0209D97D
:100A7000D211D20F809512095CFB12095CFA12099F
:100A80005CF94A4B700679A07A0D7BFF200B2EE5AE
:100A90000E602A7E008E8275830012067760060E35
:100AA000EE650F70F0C2D5EBC0E0EAC0E0E9C0E04F
:100AB000EE120D03D0E0F9D0E0FAD0E0FB12065EB2
:100AC000FF60AAEBC0E0EAC0E0E9C0E012099FD0F5
:100AD000E02401F9D0E03400FAD0E0FBE50F046037
:100AE000DCD50FD98087D20B80A2120CE560F7E528
:100AF0000F7001041200CEA90F600DE50F600914FC
:100B0000F50F120D8DEF60F3EA30E702F404C3999C
:100B10005079EAF4250F0430E701E404F50F800D65
:100B2000120CE560C1EA050F250F1200CEEA900213
:100B300077F030E701E4250F04D50F04200E0114EF
:100B4000120D03E4C0E0120D8D900277E0601320D7
:100B5000E70714F0120987802204F0D0E014C0E007
:100B60007F00120987E50F600712097E150F800BC1
:100B7000300E0312097ED0E00209D9D0E00480C40F
:100B8000120CE5609EE50F041200CE900277EAF0A9
:100B9000E50F200E026001042404120D0374FF040B
:100BA000C0E0120D8D120987E50F200E02600312BE
:100BB000097ED0E0B50FE87F45120991900277E0F9
:100BC0007F2B30E7047F2DF404C0E012099FD0E0B2
:100BD00075F00A84C0F0120988D0E0120988020971
:100BE000D9791080027908C20FC2118008D2D57954
:100BF0000A8004790AC2D5E50F047002F50FE4FA01
:100C0000FDFEFF12095CFC7B08200A1312095CFD43
:100C10007B1030090A12095CFE12095CFF7B20EC94
:100C20003382D592D55013C3E43009069FFFE49E6A
:100C3000FEE4200A039DFDE49CFCE4CBF8C20AEC30
:100C4000700CCFCECDCCE824F8F870F38017C3EF4A
:100C500033FFEE33FEED33FDEC33FCEB33FB994019
:100C600002FB0FD8E9EB300A05F8D0E0C448B20A1D
:100C7000C0E00AEC4D4E4F78207B0070C2EAB50F01
:100C80000040BCC0E0120D05D0F0D0E0200A04C442
:100C9000C0E0C4B20AC0F0120988D0F0D5F0EB026F
:100CA00009D91209090A76530BE1580A474C0A433D
:100CB000420BE54F0BED440BED490A5C430BF3553A
:100CC0000B20460B80450AEA470DC0500A4B2D0AFF
:100CD0004F2E0A722B0A53230A70200DA92A0A0BE1
:100CE0004800000A6AE50FB4FF03750F0612095C9D
:100CF000FC12095CFD12095CFE12095CFF90027097
:100D000002010B790AA2D5200C14300E09B9100289
:100D10000404B9080104A2D5200F02500104200BDD
:100D200068920BB50E005034C0E07F20300C197F64
:100D300030A20B720F720E500F120D5CC20BC20F5D
:100D4000C20EC2117F30800F300E03E9C0E01209DD
:100D50009F300E03D0E0F9D0E0B50ECC300E177FF7
:100D600030B9100C12099F7F58300D077F7880032F
:100D7000B9080312099F300B057F2D02099F7F20C0
:100D80002011F87F2B200FF322920B80CF7F00B42D
:100D90000700500B2470F582E43402F583E0FF2253
:100DA000286E756C6C2900D20A12095C300AF8C2F0
:100DB0000A780E30D50108F6020A0B2D5043495827
:100DC00012095C2403B405004001E4900DBB9312AA
:100DD0000990743A120990D20C750E04020BE17B53
:100DE000FF7A2A796F7D017C007F027E0012260047
:100DF0007BFF7A2A796D7D0F7C007F027E001226B0
:100E0000007BFF7A2A79B37D017C007F017E00128E
:100E100026007BFF7A2A79BB7D0C7C007F017E0057
:100E20001226007BFF7A2A796D7D107C007F017E7F
:100E30000012260012299AA804A905AA06AB079059
:100E400000D6E0FCA3E0FDA3E0FEA3E024F4FFEE67
:100E50003401FEE43DFDE43CFCD312088840789068
:100E600000BAE0FCA3E0FDA3E0FEA3E0FF9001D9FF
:100E70001208AC9000F4E0FEA3E0FF121EBF900049
:100E8000CEEEF0A3EFF07BFF7A2A798F9000CEE0D0
:100E9000FFA3E09001DACFF0A3EFF01221DD7BFF9A
:100EA0007A2A79BD9000D2E0FFA3E09001DACFF07A
:100EB000A3EFF01221DD7BFF7A2A79D0900102E0C6
:100EC000FFA3E09001DACFF0A3EFF01221DD1229A9
:100ED0009A9000D61208AC90024B74FFF0A3742ACB
:100EE000F0A37478F09000CEE0FFA3E090024ECF24
:100EF000F0A3EFF07B017A0079DE1209C17B017A61
:100F00000079DE7D0A7C007F027E00122600D390ED
:100F100000CFE094009000CEE0940050117BFF7A67
:100F20002A799C7D0A7C007F027E001226009000B8
:100F3000D2E07002A3E070187BFF7A2A79E17D0D80
:100F4000FC7F01FE122600E4900102F0A3F0801B5A
:100F50009000D2E0FCA3E0FD9000CEE0FEA3E0FF15
:100F60001206EA900102EEF0A3EFF090024B74FF3C
:100F7000F0A3742AF0A374E5F09000D2E0FFA3E0A0
:100F800090024ECFF0A3EFF07B017A0079DE1209D8
:100F9000C17B017A0079DE7D0D7C007F017E00122D
:100FA0002600C3900103E09464900102E0940040A5
:100FB00006E4F0A37464F090024B74FFF0A3742A6B
:100FC000F0A374E5F0900102E0FFA3E090024ECFA1
:100FD000F0A3EFF07B017A0079DE1209C17B017A80
:100FE0000079DE7D087C007F017E001226009001E2
:100FF00002E07002A3E0700F7BFF7A2A79E17D089E
:10100000FC7F01FE1226002243BA8012285F1221C3
:1010100010122977D2AF90018EE06404601AD39049
:1010200000B9E094C89000B8E06480948040097FE3
:10103000017E001225C780DE122963122A15121FB5
:101040003F1218F29000BA1208AC7B017A007902C4
:101050007D0020B6027D0112281192127B017A00D8
:1010600079337D0020C6027D0112281192137B0185
:101070007A0079367D0020A3027D01122811921496
:101080007B017A0079777D002090027D0112281182
:10109000921530120F900000E07004A3E06402701B
:1010A000031222F5301445900000E07004A3E064C0
:1010B000017003122485900000E07004A3E0640333
:1010C00070067F03FE1220A5900000E07004A3E0EC
:1010D00064047018900003E0FBA3E0FAA3E0F99029
:1010E00001DC7404F0E4FD7FA0121E3B30150312F6
:1010F000273412299A9000DAE0F8A3E0F9A3E0FA85
:10110000A3E0FBC3120888400302104A900000E0ED
:10111000FEA3E0FFEE60030211F2EF24FE60131461
:101120006016146060240360030211F21213D802E7
:1011300011F7120DDF0211F720B61530C61290001C
:1011400000E07004A3E0640370067F01FE1220A596
:1011500020C61530B612900000E07004A3E06403CE
:1011600070067F02FE1220A520B61520C612900040
:1011700000E07004A3E0640370067F04FE1220A563
:10118000121205807290024B74FFF0A3742BF0A32F
:10119000741CF09000F4E0FFA3E090024ECFF0A3A7
:1011A000EFF07B017A0079DE1209C17B017A0079C8
:1011B000DE7D017C007F017E0012260090024B74D0
:1011C000FFF0A3742BF0A37423F0A37401F0A374B5
:1011D00000F0A37403F07B017A0079DE1209C17B71
:1011E000017A0079DE7D017C007F027E00122600FC
:1011F00080057F011227BCB2A012299A9000DA1252
:1012000008AC02104A7BFF7A2A796F7D017C007F4F
:10121000027E001226009000BAE0FCA3E0FDA3E0ED
:10122000FEA3E0FF9001D91208AC9000F4E0FEA309
:10123000E0FF121EBF9000CEEEF0A3EFF090024B45
:1012400074FFF0A3742AF0A37478F0A3EEF0A3EF78
:10125000F07B017A0079DE1209C17B017A0079DE28
:101260007D0A7C007F027E001226007BFF7A2A79AD
:101270006D7D0F7C007F027E001226007BFF7A2AA4
:1012800079E97D017C007F017E0012260090024BEF
:1012900074FFF0A3742AF0A374E5F09000F2E0FF6D
:1012A000A3E090024ECFF0A3EFF07B017A0079DE4D
:1012B0001209C17B017A0079DE7D0C7C007F017E02
:1012C000001226007BFF7A2A796D7D107C007F0159
:1012D0007E001226009000F2E0FAA3E0FB9000CE20
:1012E000E0FEA3E0FFAD03AC021206EA9000FAEEC6
:1012F000F0A3EFF0EB4A70069000FAF0A3F0900034
:10130000F2E0FEA3E0FF9000CEE0FCA3E0FDD39F5F
:10131000EC9E50030213D3ED4C70030213D3122939
:101320009AC004C005C006C0079000F3E02432FD57
:101330009000F2E03400FC9000CEE0FEA3E0FF124B
:1013400006EA7C007D641206D8E4FDC004C005C036
:1013500006AB079000EDE0FEA3E0FF9000F6E0F89A
:10136000A3E0F9A3E0FAA3E02FFFEA3EFEED39FD8A
:10137000EC38FCD002D001D000C3EF9BFBEE9AFA10
:10138000ED99F9EC98F8D007D006D005D004C31237
:1013900008885043B2A4B2B4C2A07BFF7A2A79F580
:1013A0009000CEE0FFA3E09001DACFF0A3EFF012BF
:1013B00021DD7BFF7A2B79039000F2E0FFA3E09020
:1013C00001DACFF0A3EFF01221DD12299A9000F696
:1013D0000208ACD2A4D2B4227BFF7A2A79687D01BC
:1013E0007C007F017E001226007BFF7A2A796D7DCA
:1013F0000A7C007F017E001226007BFF7A2A796F2B
:101400007D017C007F027E001226007BFF7A2A7914
:101410006D7D0F7C007F027E0012260090024B74CF
:10142000FFF0A3742AF0A37478F09000D4E0FFA337
:10143000E090024ECFF0A3EFF07B017A0079DE124C
:1014400009C17B017A0079DE7D057C007F017E0089
:1014500012260012299AA804A905AA06AB07900033
:10146000D6E0FCA3E0FDA3E0FEA3E024F4FFEE340D
:1014700001FEE43DFDE43CFCD3120888407290007C
:10148000BAE0FCA3E0FDA3E0FEA3E0FF9001D912C7
:1014900008AC9000F4E0FEA3E0FF121EBF9000D461
:1014A000E0FCA3E0FDC3EF9DFFEE9C9000D0F0A315
:1014B000EFF07BFF7A2A797C9000BAE0FCA3E0FD94
:1014C000A3E0FEA3E0FF9001DA1208AC1221DD7B5D
:1014D000FF7A2A798F9000D0E0FFA3E09001DACF65
:1014E000F0A3EFF01221DD12299A9000D61208AC79
:1014F00090024B74FFF0A3742AF0A37478F090006C
:10150000D0E0FFA3E090024ECFF0A3EFF07B017A92
:101510000079DE1209C17B017A0079DE7D0A7C0048
:101520007F027E00122600D39000D1E0940090004C
:10153000D0E0940050117BFF7A2A799C7D0A7C00D0
:101540007F027E0012260022900104E030E77090B6
:101550000107E0706A900106E0706490010AE07093
:1015600004A3E064026003021658900104E0540FE3
:1015700014601914603C240260030216589001099B
:10158000E07006900108E0601902165890018EE0A4
:10159000B4040C900109E07006900108E0600302B9
:1015A00016589001D274FFF0A3742BF0A374AA0212
:1015B000164A90018EE0B40406900109E06003022F
:1015C0001658900108E0FE540F900241F0EE1460AE
:1015D00041247F600304707E900241E0FF74017E2D
:1015E00000A807088005C333CE33CED8F9FF900199
:1015F000D5E0FDEF5D9001D2600C74FFF0A3742B79
:10160000F0A374AC800A74FFF0A3742BF0A374AA47
:101610008038900241E0FF74017E00A80708800531
:10162000C333CE33CED8F9FF9001D6E0FDEF5D9005
:1016300001D2600C74FFF0A3742BF0A374AC800A89
:1016400074FFF0A3742BF0A374AAF09001D0E4F01F
:10165000A37402F0800580000229E312298A221275
:1016600028E77F1412293BAE07EE30E6077D807F26
:10167000141228EBEE20E0030217527B017A017965
:101680004E7F2112258D90010CEFF09000EFE0FBD2
:10169000A3E0FAA3E04A4B7003021742E490024130
:1016A000F090010CE0FF900241E0FEC39F40030276
:1016B00017429000EFE0FBA3E0FAA3E0F990010DE0
:1016C000E0FD3395E08D82F583120677FF744E2E90
:1016D000F582E43401F583E06F703190010DE00490
:1016E000F090010DE0FF3395E08F82F583120677CD
:1016F0007047FD7F141228EBE4F5F4F5DC90FE074B
:10170000F07F0AFE1200B275C76080FE9000EFE025
:10171000FBA3E0FAA3E0F912065EFF900241E02489
:101720004EF582E43401F583E0B5070890010D74AD
:1017300001F08005E490010DF0900241E004F00218
:1017400016A1D2161227625009E4FD7F141228EB6D
:10175000C21622900242EBF0A3EAF0A3E9F0E4FF04
:10176000FE900245E0FBA3E0FAA3E0F912065EFD5D
:10177000C3EF9DEE94005026900242E0FBA3E0FAF6
:10178000A3E0F98F828E83120677FD74782FF5829D
:1017900074003EF583EDF00FBF00010E80C3900092
:1017A00078E06423704290007AE024D0FFE434FFB4
:1017B000FE7C007D0A1206D8AA06AB07900079E0ED
:1017C00024D0FFE434FFFE7D641206D8EF2BFFEE39
:1017D0003AFE90007BE024D0FDEC34FFCD2FFFEDEE
:1017E0003E900034F0A3EFF0900034E0FEA3E0FF61
:1017F0009000F4EEF0FCA3EFF0FD9000BEF090023C
:101800004B74FFF0A3742BF0A37413F0A3ECF0A3BC
:10181000EDF07B017A0079371209C17B017A0079FA
:10182000377D097C00021A32900104E020E70302B0
:1018300018D1900107E024FE60231460392402606F
:10184000030218D19001D274FFF0A3742BF0A3749B
:101850002BF09001D0E4F0A37412F080779001D2C5
:1018600074FFF0A3742BF0A3743DF09001D0E4F06A
:10187000A37443F0805E900106E01460201460368B
:101880002402704B9001D274FFF0A3742BF0A37468
:1018900080F09001D0E4F0A37404F080379001D27E
:1018A00074FFF0A3742BF0A37484F09001D0E4F0E3
:1018B000A37408F0801E9001D274FFF0A3742BF083
:1018C000A3748CF09001D0E4F0A3741EF080058026
:1018D000000229E390010AE0FEA3E0FFD39001D1CA
:1018E000E09F9001D0E09E4005EEF0A3EFF01229BA
:1018F0008A229001D91208B8000000009001DD1280
:1019000008B800000000E49001D7F0A3F0121DB267
:101910009001D91208AC9001DDE0FCA3E0FDA3E04A
:10192000FEA3E0FF9001D9E0F8A3E0F9A3E0FAA359
:10193000E0FBEF2BFFEE3AFEED39FDEC38FCA31295
:1019400008AC7F647E001225C79001D8E004F070D7
:10195000069001D7E004F0C39001D8E09404900110
:10196000D7E0940040A79001DDE0FCA3E0FDA3E0F8
:10197000FEA3E0FFE47B04FAF9F81207F69001DD1C
:101980001208AC9001DDE0FCA3E0FDA3E0FEA3E0C3
:10199000FF2290018EE064047023900104E0B40201
:1019A0001C900109E07016900107E070109001068C
:1019B000E0707890010AE07002A3E06002806C9011
:1019C0000108E0FE540F900241F0EE14602D247FD8
:1019D00060030470569001D5E0FF900241E0FD7471
:1019E00001A805088002C333D8FCF45F9001D5F04C
:1019F0007F0E1228EB7D407F1180249001D6E0FFFE
:101A0000900241E0FD7401A805088002C333D8FCB0
:101A1000F45F9001D6F07F0E1228EB7D807F1412C8
:101A200028EBE4FD7F0E1228EB80030229E3122944
:101A3000FD22900248EBF0A3EAF0A3E9F0A3ECF05A
:101A4000A3EDF09002501228DEE490024EF0A3F0D5
:101A500090024BE0FEA3E0FFD39440EE64809480BC
:101A600040067D407F40800090024DEFF07F1112D4
:101A7000293BEF30E00E90025074FFF5F01207554D
:101A800045F070E9900248E0FBA3E0FAA3E0F9908A
:101A9000024EE0FEA3E0FFE92FF9EA3EFA90024D84
:101AA0001224CD90024DE0FFFD7C0090024FE02D0E
:101AB000F090024EE03CF0C390024CE09DF09002AA
:101AC0004BE09CF0EFC394405086D21843AF802285
:101AD00090018EE064047023900104E0B4021C9035
:101AE0000109E07016900107E07010900106E070A7
:101AF0007690010AE07002A3E06002806A9001081B
:101B0000E0FE540F900241F0EE14602C247F60033D
:101B10000470549001D5E0FF900241E0FD7401A8EB
:101B200005088002C333D8FC4F9001D5F07F0E1218
:101B300028EB7D107F1180239001D6E0FF900241B9
:101B4000E0FD7401A805088002C333D8FC4F900162
:101B5000D6F07F0E1228EB7D207F141228EBE4FDD7
:101B60007F0E1228EB80030229E31229FD22900147
:101B70008EE064026022900104E0701C900107E096
:101B80007016900109E07010900108E0700A900151
:101B90000AE07002A3E060030229E3900106E0641A
:101BA0000190018E70547404F0E49001D5F090011E
:101BB000D6F07D017F0E1228EB7D207F121228EBDC
:101BC0007D087F101228EB7D027F0E1228EB7D200E
:101BD0007F121228EB7D087F101228EB7D017F0E0B
:101BE0001228EBE4FD7F121228EB7D087F131228E8
:101BF000EBE4FD7F0E1228EB800D7403F09001D50D
:101C000074FFF09001D6F01229FD224300FF00007E
:101C1000004300FC0000004300EFFF2A434200B8ED
:101C200000004200CE00004200F200004200F40139
:101C30009042003401904200D400004200D00000E5
:101C40004200D200644400BA000000004400DA0000
:101C50000000004400D6000000004400F600000030
:101C6000004200ED04B04200FA00004100020041D1
:101C70000033004100360041007700C112C113C19A
:101C800014C1154201020000420000000144027F1D
:101C90000000000041010D0000900207EEF0A3EFEC
:101CA000F090020C1228DEE490020AF0A3F09002F9
:101CB00007E0FEA3E0FFD39440EE940040067D4091
:101CC0007F408000900209EFF07F1112293BEF3036
:101CD000E00E90020C74FFF5F012075545F070E924
:101CE00090020AE0FEA3E0240EF974013EFA7B01A3
:101CF0009002091224CD900209E0FFFD90020BE052
:101D00002DF090020AE03400F0C3900208E09FF04A
:101D1000900207E09400F0900209E0C39440508ED6
:101D2000D21843AF8022787FE4F6D8FD7581230274
:101D30001D6D020003E493A3F8E493A34003F6802F
:101D400001F208DFF48029E493A3F85407240CC8B7
:101D5000C333C4540F4420C8834004F45680014662
:101D6000F6DFE4800B0102040810204080901C0B79
:101D7000E47E019360BCA3FF543F30E509541FFE8D
:101D8000E493A360010ECF54C025E060A840B8E4FE
:101D900093A3FAE493A3F8E493A3C8C582C8CAC581
:101DA00083CAF0A3C8C582C8CAC583CADFE9DEE713
:101DB00080BEC2C79001E11208B800000000209167
:101DC000FDE4FBEBC39418748094805042D2C7901A
:101DD00001E1E0FCA3E0FDA3E0FEA3E0FF78011237
:101DE00008999001E11208ACC2C730911F9001E13F
:101DF000E0FCA3E0FDA3E0FEA3E02401FFE43EFE3F
:101E0000E43DFDE43CFC9001E11208AC0B80B4D24F
:101E1000C79001E1E0FCA3E0FDA3E0FEA3E0FFED3D
:101E20006480FDEC9001E11208ACC2C79001E1E0D2
:101E3000FCA3E0FDA3E0FEA3E0FF229001D7EFF0BA
:101E4000A3EDF0A3EBF0A3EAF0A3E9F0122A2190AE
:101E500001D7E04401FF1229C7122A339001D8E0CC
:101E6000FF1229C7122A33122A219001D7E0FF124C
:101E700029C7122A33E49001DDF09001DCE0FFA3D2
:101E8000E0C39F50371229A99001D9E0FBA3E0FAE3
:101E9000A3E0F99001DDE0FEF582758300EF120604
:101EA000B69001DCE014FFEEC39F50051229D580E7
:101EB000031229B89001DDE004F080BE022A2A90C6
:101EC00001D7EEF0A3EFF0121DB29001DD1208ACC5
:101ED0009001D9E0FCA3E0FDA3E0FEA3E0FFA3E0B6
:101EE000F8A3E0F9A3E0FAA3E0FBC31208885012BC
:101EF0009001D9E0FCA3E0FDA3E0FEA3E0FFA31264
:101F000008AC9001D9E0F8A3E0F9A3E0FAA3E0FB64
:101F1000A3E0FCA3E0FDA3E0FEA3E0C39BFFEE9AD9
:101F2000FEED99FDEC98FCC006C0079001D7E0FEDD
:101F3000A3E0FBAA06E4F9F8D007D0060207F69062
:101F4000024B74FFF0A3742AF0A3744CF0A374FF47
:101F5000F0A3742AF0A3744FF07B017A0079DE12AB
:101F600009C17B017A0079DE7D027C007F017E0061
:101F70001226007FF47E011225C790024B74FFF0F9
:101F8000A3742AF0A3744CF0A374FFF0A3742AF096
:101F9000A3745EF07B017A0079DE1209C17B017ABD
:101FA0000079DE7D047C007F027E001226007FD057
:101FB0007E071225C77F010227BC122932AE07EE29
:101FC00030E20D54FBFD7F111228EBE49001CFF0BD
:101FD000EE30E4084480FD7F111228EB9001CFE041
:101FE00024FD604714604724047046EE30E0427BD5
:101FF000017A0179047F2012258D90010AE0FEA369
:10200000E0FF1228FA90010AEEF0A3EFF09001042D
:10201000E0546024E0600B24E0600A244070090270
:10202000223D022916022A3F0229E302203212230E
:10203000A122122932EF20E16B9001D0E0FEA3E053
:10204000FFD39440EE940040067D407F4080009096
:102050000242EFF09001D2E0FBA3E0FAA3E0F99096
:102060000247EFF07F2012266C900242E0FF7E00D4
:10207000C39001D1E09FF09001D0E09EF09001D399
:10208000EE8FF012073F9001D0E07002A3E0700DD8
:102090007D0A7F111228EBE49001CFF0227D027FB0
:1020A000111228EB22EF64014E700F9000F3E00450
:1020B000F0705C9000F2E004F022EF64024E701CBD
:1020C000D39000F3E094009000F2E09400400DA360
:1020D000E024FFF09000F2E034FFF022EF64034EC2
:1020E000602DEF64044E70279000BAE0FCA3E0FD81
:1020F000A3E0FEA3E0FF9001D91208AC9000F4E049
:10210000FEA3E0FF121EBF9000F2EEF0A3EFF0225C
:1021100053B2FC43B10390FE077480F090FE07E0D9
:1021200030E0F9E4F5DC75F490FDFF1228EB7D0852
:102130007F011228EB7D3F7F071228EB7D3F7F094F
:102140001228EB7D077F0B1228EBE4FD7F0112289C
:10215000EB90018E7402F0E49001CFF09001D5F085
:10216000A3F09002781208B800C20100E490027C4B
:10217000F0A3F0A37408F043AF8022900242EFF086
:10218000A3EDF0A3EBF0A3EAF0A3E9F0122A21906B
:102190000242E04401FF1229C7122A33900243E0B1
:1021A000FF1229C7122A33E4900248F0900247E058
:1021B000FFA3E0FEC39F5022900244E0FBA3E0FA9D
:1021C000A3E0F98E82758300120677FF1229C712E9
:1021D0002A33900248E004F080D2022A2A9001D7E4
:1021E000EBF0A3EAF0A3E9F09002027401F0A3740B
:1021F00001F0A374DAF09001D7E0F9A3E0FAA3E0CC
:10220000900207C9F0A3EAF0A3E9F0900202E0F916
:10221000A3E0FAA3E090020AC9F0A3EAF0A3E9F070
:102220007B017A01790E12243B900205EEF0A3EFB8
:10223000F0121C99900205E0FEA3E0FF2290010538
:10224000E0B40D00504F90224DF8282873022274FC
:1022500002227702229502227A02229502227D0230
:10226000228002228302228602228902228C0222FA
:102270008F022292021548021992021AD0022350AC
:10228000021828020008022299021B6E02250F0282
:1022900027E8022A3C1229E322900104E0648070BE
:1022A00024900107E0701E900106E070189001096B
:1022B000E07012900108E0700C90010AE07004A335
:1022C000E0640160030229E390018EE09001D2B442
:1022D000040C74FFF0A3742BF0A374AC800A74FF99
:1022E000F0A3742BF0A374AAF09001D0E4F0A3043F
:1022F000F012298A229000BAE0FCA3E0FDA3E0FEE0
:10230000A3E0FF9001D91208AC9000F4E0FEA3E036
:10231000FF121EBFD3EF94E8EE9403400B9000D25F
:102320007403F0A374E7F0229000BAE0FCA3E0FD90
:10233000A3E0FEA3E0FF9001D91208AC9000F4E006
:10234000FEA3E0FF121EBF9000D2EEF0A3EFF0223A
:10235000900104E07025900109E0701F900108E0F1
:102360007019900107E07013900106E0C39480504B
:102370000A90010AE07002A3E060030229E39001E1
:1023800006E0900241F0FDE4FF1228EB900241E0EC
:1023900090018E60057403F080037402F01229FD31
:1023A00022122932EF30E0479001D2E0FBA3E0FA9D
:1023B000A3E0F97F2012258DEFFDC39001D1E09DB0
:1023C000F09001D0E09400F09001D3E48FF0120778
:1023D0003F9001D0E07002A3E0700D7D487F1112A4
:1023E00028EBE49001CFF0227D407F111228EB22F0
:1023F000C0E0C0F0C083C082C0D075D000C000C0B3
:1024000004C005C006C00790027FE0FCA3E0FDA366
:10241000E0FEA3E02401FFE43EFEE43DFDE43CFCDD
:1024200090027F1208ACD007D006D005D004D000AF
:10243000D0D0D082D083D0F0D0E032900207E0FF3D
:10244000A3E0FEA3E0CF90024BF0A3EEF0A3EFF0E9
:1024500090020AE0CBF0A3E0CAF0A3E0C9F07F222B
:1024600090024EAD82AC8312065E8D828C83F0A307
:1024700009E970010ADFEC90020AE0FBA3E0FAA38D
:10248000E0F90209C1301444900000E07004A3E0B8
:10249000640170389000BAE0FCA3E0FDA3E0FEA365
:1024A000E0FF9001D91208AC9000F4E0FEA3E0FF39
:1024B000121EBF9000D4EEF0A3EFF07BFF7A2A79D2
:1024C000A19001DAEEF0A3EFF01221DD22E0FD9001
:1024D00002567401F0900252EBF0A3EAF0A3E9F087
:1024E000AE05AF061EEF6020900256E02420FF905C
:1024F0000252E0FBA3E475F001120755A9F0FA12AD
:10250000065EFD1228EB80DA7D017F110228EB9038
:10251000018EE0B4041D900104E0B481169001071F
:10252000E07010900109E0700AA3E07004A3E06479
:102530000160030229E39001D274FFF0A3742BF031
:10254000A374AAF09001D0E4F0A304F012298A2227
:10255000E4FDFF1228EB90018E7402F0E49001CFAD
:10256000F00D7F0E1228EB7D487F111228EB7D02C3
:102570007F0E1228EB7D487F111228EB1228E77D91
:10258000907F141228EBE4FD7F0E0228EB900242AC
:10259000EBF0A3EAF0A3E9F0AE077F1612293BADFA
:1025A00007AC05AF051DEF601BAF0612293B90027B
:1025B00042E0FBA3E475F001120755A9F0FAEF120F
:1025C00006A480DFAF0422E4FCFD90027FE0F8A3C4
:1025D000E0F9A3E0FAA3E02FFFEA3EFEED39FDECBF
:1025E00038FC9001E11208AC12299A9001E1E0F860
:1025F000A3E0F9A3E0FAA3E0FBD312088850E92294
:102600009001D7EBF0A3EAF0A3E9F0122637E490AB
:1026100001DAF09001D7E0FBA3E0FAA3E0F9A3E030
:10262000F582758300120677FF600B1227909001E8
:10263000DAE004F080DD229001DDECF0A3EDF09013
:1026400001DBEEF0A3EFF064014E7006A3A3E014EB
:1026500080139001DBE07004A3E06402700D900130
:10266000DDA3E0243F4480FF1227BC22900244EB0C
:10267000F0A3EAF0A3E9F0AE07900247E0FF14F000
:10268000EF601BAF06900244E0FBA3E475F001127B
:102690000755A9F0FA12065EFD1228EB80DB2290A6
:1026A000018EE0B40408900104E064216003022973
:1026B000E39001D27401F0A37402F0A37478F09057
:1026C000010AE0FFA3E09001D0CFF0A3EFF01229C0
:1026D000F02290018EE0B40408900104E064A1604F
:1026E000030229E39001D27401F0A37402F0A374F1
:1026F00078F090010AE0FFA3E09001D0CFF0A3EFC3
:10270000F012298A227580FFC2A5D2A6D2A77F0126
:102710007E001225C79001E0E580F07F017E001267
:1027200025C7C2A77F017E001225C79001E0E054B3
:102730008070D922D2A4D2B47F011227BC900001AC
:10274000E004F07006900000E004F0D3900001E097
:102750009404900000E0648094804005E4F0A304B9
:10276000F0229002457401F0A37401F0A3740CF000
:102770007B017A01794E1217537B017A01794E90D1
:10278000010CE0900247F0E4FD7FA012217BD322F0
:102790009001DBEFF0122705D2A5C2A67F017E00D3
:1027A0001225C79001DBE0F5807F017E001225C76E
:1027B000D2A77F017E001225C7C2A7229001DFEFBA
:1027C000F0122705C2A5C2A67F017E001225C79080
:1027D00001DFE0F5807F017E001225C7D2A77F01CF
:1027E0007E001225C7C2A72290018EE0B4041B9080
:1027F0000104E0B40114900107E0700E900109E0BB
:102800007008A3E07002A3E060030229E31229FD2F
:1028100022ED7002801512065EFFC3940A74809444
:102820008040047F0A8003EF04FFEF1206A4120623
:102830005E6409C37001D322EFB40A07740D122835
:1028400043740A309811A899B8130CC2983098FDB7
:10285000A899C298B811F63099FDC299F59922E469
:10286000F594F593F592F591F596F595F5B2F5B1E8
:10287000F5B4F5B3F5CAF5C9F5CCF5CBF5E2F5E15C
:10288000227D01122934AE07EE30E5077D407F112D
:102890001228EBEE30E207E4FD7F111228EBC2189C
:1028A00022EF1FAC0670011E4C60140000000000F7
:1028B0000000000000000000000000000080E22294
:1028C0007D02122934AE07EE30E5077D407F1112FC
:1028D00028EBEE30E207E4FD7F111228EB22E4F052
:1028E000A374C8F053AF7F7D017F0EE5FC20E7FBAA
:1028F000EF547FF5FCAF058FEC22900241EEF0A380
:10290000EFF0E0A3F0900241E0900244F090024327
:10291000E0FEA3E0FF22900105E024DF600A1460DE
:102920000A2402700902269F0226D202294D12298A
:10293000E322E4FD7F0E1228EB7F11E5FC20E7FB8C
:10294000EF4480F5FCE5FC20E7FBAFEC2290018E24
:10295000E0B40408900104E0642160030229E3125A
:1029600029FD227F381227BC7F0C1227BC7F06125C
:1029700027BC7F010227BC538E7F5389F0758A30B4
:10298000758CF8C28DD28CD2A9229001CF7403F03D
:102990007D407F111228EB02203290027FE0FCA3E1
:1029A000E0FDA3E0FEA3E0FF2290FE817404F0129C
:1029B0002A0990FE87E0FF2290FE827401F090FECB
:1029C000817405F0022A0990FE86EFF090FE817472
:1029D00002F0022A0990FE82E4F090FE817405F074
:1029E000022A099001CF7405F07D607F110228EB67
:1029F0009001CF7404F07D407F110228EBE4900138
:102A0000CFF07D487F110228EB90FE82E030E6F99E
:102A1000E054BFF02290FE8074E0F090FE82E4F07B
:102A20002290FE817401F0022A0990FE817486F0E2
:102A3000022A0990FE817403F0022A090229E302A6
:102A400029E3224053544349535023002573003255
:102A500030323335363033303233313835004C692B
:102A60006E5A68694B6169005069203A00670057E7
:102A70006569676874203A00253464007765696782
:102A800068745F62617365203D20256C750A00776C
:102A90006569676874203D2025640A002020203085
:102AA000007765696768745F74617265203D2025F1
:102AB000640A00436F756E74203A00780077656988
:102AC0006768745F636F756E74203D2025640A002B
:102AD0004974656D5F436F756E74203D2025640AEF
:102AE0000020203000253364007468726573686FBD
:102AF0006C64203A00776569676874203D2025344E
:102B0000640A007468726573686F6C64203D2025E8
:102B10003364006B203D202533640A006B203D2088
:102B2000256400456B203D20256300120100020250
:102B3000000040BF3402FF0001010200010902430E
:102B400000020100803209040000010202010005B8
:102B500024001001052401000104240202052406BA
:102B60000001070582034000FF09040100020A007A
:102B70000000070581024000000705010240000037
:102B80000403090408035300540043001E035300C8
:102B90005400430020005500530042002000530021
:0E2BA00065007200690061006C000000010019
:00000001FF
